{
  "abi": [
    {
      "inputs": [],
      "stateMutability": "nonpayable",
      "type": "constructor"
    },
    {
      "anonymous": false,
      "inputs": [
        {
          "indexed": true,
          "internalType": "address",
          "name": "owner",
          "type": "address"
        },
        {
          "indexed": true,
          "internalType": "address",
          "name": "approved",
          "type": "address"
        },
        {
          "indexed": true,
          "internalType": "uint256",
          "name": "tokenId",
          "type": "uint256"
        }
      ],
      "name": "Approval",
      "type": "event"
    },
    {
      "anonymous": false,
      "inputs": [
        {
          "indexed": true,
          "internalType": "address",
          "name": "owner",
          "type": "address"
        },
        {
          "indexed": true,
          "internalType": "address",
          "name": "operator",
          "type": "address"
        },
        {
          "indexed": false,
          "internalType": "bool",
          "name": "approved",
          "type": "bool"
        }
      ],
      "name": "ApprovalForAll",
      "type": "event"
    },
    {
      "anonymous": false,
      "inputs": [
        {
          "indexed": true,
          "internalType": "address",
          "name": "previousOwner",
          "type": "address"
        },
        {
          "indexed": true,
          "internalType": "address",
          "name": "newOwner",
          "type": "address"
        }
      ],
      "name": "OwnershipTransferred",
      "type": "event"
    },
    {
      "anonymous": false,
      "inputs": [
        {
          "indexed": true,
          "internalType": "address",
          "name": "from",
          "type": "address"
        },
        {
          "indexed": true,
          "internalType": "address",
          "name": "to",
          "type": "address"
        },
        {
          "indexed": true,
          "internalType": "uint256",
          "name": "tokenId",
          "type": "uint256"
        }
      ],
      "name": "Transfer",
      "type": "event"
    },
    {
      "inputs": [],
      "name": "addDistrict",
      "outputs": [],
      "stateMutability": "nonpayable",
      "type": "function"
    },
    {
      "inputs": [
        {
          "internalType": "uint256[]",
          "name": "_tokenIds",
          "type": "uint256[]"
        },
        {
          "internalType": "uint256[]",
          "name": "_rarity",
          "type": "uint256[]"
        }
      ],
      "name": "addRarity",
      "outputs": [],
      "stateMutability": "nonpayable",
      "type": "function"
    },
    {
      "inputs": [
        {
          "internalType": "address",
          "name": "to",
          "type": "address"
        },
        {
          "internalType": "uint256",
          "name": "tokenId",
          "type": "uint256"
        }
      ],
      "name": "approve",
      "outputs": [],
      "stateMutability": "nonpayable",
      "type": "function"
    },
    {
      "inputs": [
        {
          "internalType": "uint256",
          "name": "_arenaTokenId",
          "type": "uint256"
        }
      ],
      "name": "arenaDetails",
      "outputs": [
        {
          "internalType": "uint256",
          "name": "arenaTier_",
          "type": "uint256"
        },
        {
          "internalType": "uint256",
          "name": "arenaLevel_",
          "type": "uint256"
        },
        {
          "internalType": "uint256",
          "name": "timeToWaitForLevelUp_",
          "type": "uint256"
        },
        {
          "internalType": "bool",
          "name": "staked_",
          "type": "bool"
        },
        {
          "internalType": "bool",
          "name": "canUpgrade_",
          "type": "bool"
        }
      ],
      "stateMutability": "view",
      "type": "function"
    },
    {
      "inputs": [
        {
          "internalType": "uint256",
          "name": "",
          "type": "uint256"
        }
      ],
      "name": "arenas",
      "outputs": [
        {
          "internalType": "bool",
          "name": "staked",
          "type": "bool"
        },
        {
          "internalType": "uint256",
          "name": "tier",
          "type": "uint256"
        },
        {
          "internalType": "uint256",
          "name": "level",
          "type": "uint256"
        },
        {
          "internalType": "uint256",
          "name": "rarity",
          "type": "uint256"
        },
        {
          "internalType": "uint256",
          "name": "timeOfStake",
          "type": "uint256"
        },
        {
          "internalType": "uint256",
          "name": "timeOfLastRewardUpdate",
          "type": "uint256"
        },
        {
          "internalType": "uint256",
          "name": "unclaimedRewardsEsport",
          "type": "uint256"
        },
        {
          "internalType": "uint256",
          "name": "unclaimedRewardsByte",
          "type": "uint256"
        }
      ],
      "stateMutability": "view",
      "type": "function"
    },
    {
      "inputs": [
        {
          "internalType": "uint256",
          "name": "_arenaTokenId",
          "type": "uint256"
        }
      ],
      "name": "availableRewards",
      "outputs": [
        {
          "internalType": "uint256",
          "name": "",
          "type": "uint256"
        },
        {
          "internalType": "uint256",
          "name": "",
          "type": "uint256"
        }
      ],
      "stateMutability": "view",
      "type": "function"
    },
    {
      "inputs": [
        {
          "internalType": "address",
          "name": "owner",
          "type": "address"
        }
      ],
      "name": "balanceOf",
      "outputs": [
        {
          "internalType": "uint256",
          "name": "",
          "type": "uint256"
        }
      ],
      "stateMutability": "view",
      "type": "function"
    },
    {
      "inputs": [],
      "name": "byteEndabled",
      "outputs": [
        {
          "internalType": "bool",
          "name": "",
          "type": "bool"
        }
      ],
      "stateMutability": "view",
      "type": "function"
    },
    {
      "inputs": [],
      "name": "bytePriceForUpgrade",
      "outputs": [
        {
          "internalType": "uint256",
          "name": "",
          "type": "uint256"
        }
      ],
      "stateMutability": "view",
      "type": "function"
    },
    {
      "inputs": [],
      "name": "byteToken",
      "outputs": [
        {
          "internalType": "contract IERC20",
          "name": "",
          "type": "address"
        }
      ],
      "stateMutability": "view",
      "type": "function"
    },
    {
      "inputs": [
        {
          "internalType": "uint256",
          "name": "_arenaTokenId",
          "type": "uint256"
        }
      ],
      "name": "claimRewards",
      "outputs": [],
      "stateMutability": "nonpayable",
      "type": "function"
    },
    {
      "inputs": [],
      "name": "esportPriceForUpgrade",
      "outputs": [
        {
          "internalType": "uint256",
          "name": "",
          "type": "uint256"
        }
      ],
      "stateMutability": "view",
      "type": "function"
    },
    {
      "inputs": [],
      "name": "esportToken",
      "outputs": [
        {
          "internalType": "contract IERC20",
          "name": "",
          "type": "address"
        }
      ],
      "stateMutability": "view",
      "type": "function"
    },
    {
      "inputs": [
        {
          "internalType": "uint256",
          "name": "tokenId",
          "type": "uint256"
        }
      ],
      "name": "getApproved",
      "outputs": [
        {
          "internalType": "address",
          "name": "",
          "type": "address"
        }
      ],
      "stateMutability": "view",
      "type": "function"
    },
    {
      "inputs": [
        {
          "internalType": "uint256",
          "name": "_arenaTokenId",
          "type": "uint256"
        },
        {
          "internalType": "uint256",
          "name": "_levelsToIncrease",
          "type": "uint256"
        }
      ],
      "name": "increaseLevel",
      "outputs": [],
      "stateMutability": "nonpayable",
      "type": "function"
    },
    {
      "inputs": [],
      "name": "initialize",
      "outputs": [],
      "stateMutability": "nonpayable",
      "type": "function"
    },
    {
      "inputs": [
        {
          "internalType": "address",
          "name": "owner",
          "type": "address"
        },
        {
          "internalType": "address",
          "name": "operator",
          "type": "address"
        }
      ],
      "name": "isApprovedForAll",
      "outputs": [
        {
          "internalType": "bool",
          "name": "",
          "type": "bool"
        }
      ],
      "stateMutability": "view",
      "type": "function"
    },
    {
      "inputs": [],
      "name": "levelBooster",
      "outputs": [
        {
          "internalType": "address",
          "name": "",
          "type": "address"
        }
      ],
      "stateMutability": "view",
      "type": "function"
    },
    {
      "inputs": [],
      "name": "levelsForUpgrade",
      "outputs": [
        {
          "internalType": "uint256",
          "name": "",
          "type": "uint256"
        }
      ],
      "stateMutability": "view",
      "type": "function"
    },
    {
      "inputs": [],
      "name": "maxAmountPerTx",
      "outputs": [
        {
          "internalType": "uint256",
          "name": "",
          "type": "uint256"
        }
      ],
      "stateMutability": "view",
      "type": "function"
    },
    {
      "inputs": [
        {
          "internalType": "uint256",
          "name": "_tokenId",
          "type": "uint256"
        }
      ],
      "name": "migrateArena",
      "outputs": [],
      "stateMutability": "nonpayable",
      "type": "function"
    },
    {
      "inputs": [
        {
          "internalType": "uint256",
          "name": "_amount",
          "type": "uint256"
        }
      ],
      "name": "mint",
      "outputs": [],
      "stateMutability": "payable",
      "type": "function"
    },
    {
      "inputs": [],
      "name": "mintCarbonEnd",
      "outputs": [
        {
          "internalType": "uint256",
          "name": "",
          "type": "uint256"
        }
      ],
      "stateMutability": "view",
      "type": "function"
    },
    {
      "inputs": [],
      "name": "mintEnd",
      "outputs": [
        {
          "internalType": "uint256",
          "name": "",
          "type": "uint256"
        }
      ],
      "stateMutability": "view",
      "type": "function"
    },
    {
      "inputs": [
        {
          "internalType": "uint256",
          "name": "_mintAmount",
          "type": "uint256"
        },
        {
          "internalType": "address",
          "name": "_receiver",
          "type": "address"
        }
      ],
      "name": "mintForAddress",
      "outputs": [],
      "stateMutability": "nonpayable",
      "type": "function"
    },
    {
      "inputs": [],
      "name": "mintGoldEnd",
      "outputs": [
        {
          "internalType": "uint256",
          "name": "",
          "type": "uint256"
        }
      ],
      "stateMutability": "view",
      "type": "function"
    },
    {
      "inputs": [],
      "name": "mintStart",
      "outputs": [
        {
          "internalType": "uint256",
          "name": "",
          "type": "uint256"
        }
      ],
      "stateMutability": "view",
      "type": "function"
    },
    {
      "inputs": [],
      "name": "name",
      "outputs": [
        {
          "internalType": "string",
          "name": "",
          "type": "string"
        }
      ],
      "stateMutability": "view",
      "type": "function"
    },
    {
      "inputs": [],
      "name": "oldArenas",
      "outputs": [
        {
          "internalType": "contract IArenas",
          "name": "",
          "type": "address"
        }
      ],
      "stateMutability": "view",
      "type": "function"
    },
    {
      "inputs": [],
      "name": "owner",
      "outputs": [
        {
          "internalType": "address",
          "name": "",
          "type": "address"
        }
      ],
      "stateMutability": "view",
      "type": "function"
    },
    {
      "inputs": [
        {
          "internalType": "uint256",
          "name": "tokenId",
          "type": "uint256"
        }
      ],
      "name": "ownerOf",
      "outputs": [
        {
          "internalType": "address",
          "name": "",
          "type": "address"
        }
      ],
      "stateMutability": "view",
      "type": "function"
    },
    {
      "inputs": [],
      "name": "passes",
      "outputs": [
        {
          "internalType": "contract IERC1155",
          "name": "",
          "type": "address"
        }
      ],
      "stateMutability": "view",
      "type": "function"
    },
    {
      "inputs": [],
      "name": "paused",
      "outputs": [
        {
          "internalType": "bool",
          "name": "",
          "type": "bool"
        }
      ],
      "stateMutability": "view",
      "type": "function"
    },
    {
      "inputs": [],
      "name": "priceForAll",
      "outputs": [
        {
          "internalType": "uint256",
          "name": "",
          "type": "uint256"
        }
      ],
      "stateMutability": "view",
      "type": "function"
    },
    {
      "inputs": [],
      "name": "priceForCarbon",
      "outputs": [
        {
          "internalType": "uint256",
          "name": "",
          "type": "uint256"
        }
      ],
      "stateMutability": "view",
      "type": "function"
    },
    {
      "inputs": [],
      "name": "priceForGold",
      "outputs": [
        {
          "internalType": "uint256",
          "name": "",
          "type": "uint256"
        }
      ],
      "stateMutability": "view",
      "type": "function"
    },
    {
      "inputs": [],
      "name": "renounceOwnership",
      "outputs": [],
      "stateMutability": "nonpayable",
      "type": "function"
    },
    {
      "inputs": [],
      "name": "rewardsPerHourByte",
      "outputs": [
        {
          "internalType": "uint256",
          "name": "",
          "type": "uint256"
        }
      ],
      "stateMutability": "view",
      "type": "function"
    },
    {
      "inputs": [],
      "name": "rewardsPerHourEsport",
      "outputs": [
        {
          "internalType": "uint256",
          "name": "",
          "type": "uint256"
        }
      ],
      "stateMutability": "view",
      "type": "function"
    },
    {
      "inputs": [
        {
          "internalType": "address",
          "name": "from",
          "type": "address"
        },
        {
          "internalType": "address",
          "name": "to",
          "type": "address"
        },
        {
          "internalType": "uint256",
          "name": "tokenId",
          "type": "uint256"
        }
      ],
      "name": "safeTransferFrom",
      "outputs": [],
      "stateMutability": "nonpayable",
      "type": "function"
    },
    {
      "inputs": [
        {
          "internalType": "address",
          "name": "from",
          "type": "address"
        },
        {
          "internalType": "address",
          "name": "to",
          "type": "address"
        },
        {
          "internalType": "uint256",
          "name": "tokenId",
          "type": "uint256"
        },
        {
          "internalType": "bytes",
          "name": "_data",
          "type": "bytes"
        }
      ],
      "name": "safeTransferFrom",
      "outputs": [],
      "stateMutability": "nonpayable",
      "type": "function"
    },
    {
      "inputs": [
        {
          "internalType": "address",
          "name": "_admin",
          "type": "address"
        }
      ],
      "name": "setAdmin",
      "outputs": [],
      "stateMutability": "nonpayable",
      "type": "function"
    },
    {
      "inputs": [
        {
          "internalType": "address",
          "name": "operator",
          "type": "address"
        },
        {
          "internalType": "bool",
          "name": "approved",
          "type": "bool"
        }
      ],
      "name": "setApprovalForAll",
      "outputs": [],
      "stateMutability": "nonpayable",
      "type": "function"
    },
    {
      "inputs": [
        {
          "internalType": "bool",
          "name": "_bool",
          "type": "bool"
        }
      ],
      "name": "setByteEnabled",
      "outputs": [],
      "stateMutability": "nonpayable",
      "type": "function"
    },
    {
      "inputs": [
        {
          "internalType": "contract IERC20",
          "name": "_address",
          "type": "address"
        }
      ],
      "name": "setByteToken",
      "outputs": [],
      "stateMutability": "nonpayable",
      "type": "function"
    },
    {
      "inputs": [
        {
          "internalType": "contract IArenas",
          "name": "_oldArenas",
          "type": "address"
        },
        {
          "internalType": "contract IERC1155",
          "name": "_passes",
          "type": "address"
        },
        {
          "internalType": "contract IERC20",
          "name": "_esportToken",
          "type": "address"
        }
      ],
      "name": "setInterfaces",
      "outputs": [],
      "stateMutability": "nonpayable",
      "type": "function"
    },
    {
      "inputs": [
        {
          "internalType": "address",
          "name": "_levelBooster",
          "type": "address"
        }
      ],
      "name": "setLevelBooster",
      "outputs": [],
      "stateMutability": "nonpayable",
      "type": "function"
    },
    {
      "inputs": [
        {
          "internalType": "uint256",
          "name": "_maxMintAmountPerTx",
          "type": "uint256"
        }
      ],
      "name": "setMaxMintAmountPerTx",
      "outputs": [],
      "stateMutability": "nonpayable",
      "type": "function"
    },
    {
      "inputs": [
        {
          "internalType": "uint256",
          "name": "_mintStart",
          "type": "uint256"
        },
        {
          "internalType": "uint256",
          "name": "_mintCarbonEnd",
          "type": "uint256"
        },
        {
          "internalType": "uint256",
          "name": "_mintGoldEnd",
          "type": "uint256"
        },
        {
          "internalType": "uint256",
          "name": "_mintEnd",
          "type": "uint256"
        }
      ],
      "name": "setMintingPeriods",
      "outputs": [],
      "stateMutability": "nonpayable",
      "type": "function"
    },
    {
      "inputs": [
        {
          "internalType": "bool",
          "name": "_paused",
          "type": "bool"
        }
      ],
      "name": "setPaused",
      "outputs": [],
      "stateMutability": "nonpayable",
      "type": "function"
    },
    {
      "inputs": [
        {
          "internalType": "uint256",
          "name": "_carbon",
          "type": "uint256"
        },
        {
          "internalType": "uint256",
          "name": "_gold",
          "type": "uint256"
        },
        {
          "internalType": "uint256",
          "name": "_all",
          "type": "uint256"
        }
      ],
      "name": "setPrice",
      "outputs": [],
      "stateMutability": "nonpayable",
      "type": "function"
    },
    {
      "inputs": [
        {
          "internalType": "uint256",
          "name": "_priceForUpgradeEsport",
          "type": "uint256"
        },
        {
          "internalType": "uint256",
          "name": "_priceForUpgradeByte",
          "type": "uint256"
        }
      ],
      "name": "setPriceForUpgrade",
      "outputs": [],
      "stateMutability": "nonpayable",
      "type": "function"
    },
    {
      "inputs": [
        {
          "internalType": "uint256",
          "name": "_rewardsPerHourEsport",
          "type": "uint256"
        },
        {
          "internalType": "uint256",
          "name": "_rewardsPerHourByte",
          "type": "uint256"
        }
      ],
      "name": "setRewardsPerHour",
      "outputs": [],
      "stateMutability": "nonpayable",
      "type": "function"
    },
    {
      "inputs": [
        {
          "internalType": "string",
          "name": "_uri",
          "type": "string"
        }
      ],
      "name": "setUri",
      "outputs": [],
      "stateMutability": "nonpayable",
      "type": "function"
    },
    {
      "inputs": [
        {
          "internalType": "uint256",
          "name": "_arenaTokenId",
          "type": "uint256"
        }
      ],
      "name": "stakeArena",
      "outputs": [],
      "stateMutability": "nonpayable",
      "type": "function"
    },
    {
      "inputs": [
        {
          "internalType": "uint256",
          "name": "",
          "type": "uint256"
        }
      ],
      "name": "stakerAddress",
      "outputs": [
        {
          "internalType": "address",
          "name": "",
          "type": "address"
        }
      ],
      "stateMutability": "view",
      "type": "function"
    },
    {
      "inputs": [
        {
          "internalType": "bytes4",
          "name": "interfaceId",
          "type": "bytes4"
        }
      ],
      "name": "supportsInterface",
      "outputs": [
        {
          "internalType": "bool",
          "name": "",
          "type": "bool"
        }
      ],
      "stateMutability": "view",
      "type": "function"
    },
    {
      "inputs": [],
      "name": "symbol",
      "outputs": [
        {
          "internalType": "string",
          "name": "",
          "type": "string"
        }
      ],
      "stateMutability": "view",
      "type": "function"
    },
    {
      "inputs": [],
      "name": "tierMultiplier",
      "outputs": [
        {
          "internalType": "uint256",
          "name": "",
          "type": "uint256"
        }
      ],
      "stateMutability": "view",
      "type": "function"
    },
    {
      "inputs": [
        {
          "internalType": "uint256",
          "name": "index",
          "type": "uint256"
        }
      ],
      "name": "tokenByIndex",
      "outputs": [
        {
          "internalType": "uint256",
          "name": "",
          "type": "uint256"
        }
      ],
      "stateMutability": "view",
      "type": "function"
    },
    {
      "inputs": [
        {
          "internalType": "address",
          "name": "owner",
          "type": "address"
        },
        {
          "internalType": "uint256",
          "name": "index",
          "type": "uint256"
        }
      ],
      "name": "tokenOfOwnerByIndex",
      "outputs": [
        {
          "internalType": "uint256",
          "name": "",
          "type": "uint256"
        }
      ],
      "stateMutability": "view",
      "type": "function"
    },
    {
      "inputs": [
        {
          "internalType": "uint256",
          "name": "_tokenId",
          "type": "uint256"
        }
      ],
      "name": "tokenURI",
      "outputs": [
        {
          "internalType": "string",
          "name": "",
          "type": "string"
        }
      ],
      "stateMutability": "view",
      "type": "function"
    },
    {
      "inputs": [
        {
          "internalType": "address",
          "name": "_owner",
          "type": "address"
        }
      ],
      "name": "tokensOfOwner",
      "outputs": [
        {
          "internalType": "uint256[]",
          "name": "",
          "type": "uint256[]"
        }
      ],
      "stateMutability": "view",
      "type": "function"
    },
    {
      "inputs": [],
      "name": "totalSupply",
      "outputs": [
        {
          "internalType": "uint256",
          "name": "",
          "type": "uint256"
        }
      ],
      "stateMutability": "view",
      "type": "function"
    },
    {
      "inputs": [
        {
          "internalType": "address",
          "name": "from",
          "type": "address"
        },
        {
          "internalType": "address",
          "name": "to",
          "type": "address"
        },
        {
          "internalType": "uint256",
          "name": "tokenId",
          "type": "uint256"
        }
      ],
      "name": "transferFrom",
      "outputs": [],
      "stateMutability": "nonpayable",
      "type": "function"
    },
    {
      "inputs": [
        {
          "internalType": "address",
          "name": "newOwner",
          "type": "address"
        }
      ],
      "name": "transferOwnership",
      "outputs": [],
      "stateMutability": "nonpayable",
      "type": "function"
    },
    {
      "inputs": [
        {
          "internalType": "uint256",
          "name": "_arenaTokenId",
          "type": "uint256"
        }
      ],
      "name": "unstakeArena",
      "outputs": [],
      "stateMutability": "nonpayable",
      "type": "function"
    },
    {
      "inputs": [
        {
          "internalType": "uint256",
          "name": "_arenaTokenId",
          "type": "uint256"
        }
      ],
      "name": "upgradeArenaTier",
      "outputs": [],
      "stateMutability": "nonpayable",
      "type": "function"
    },
    {
      "inputs": [
        {
          "internalType": "address",
          "name": "_user",
          "type": "address"
        }
      ],
      "name": "userStakedArenas",
      "outputs": [
        {
          "internalType": "uint256[]",
          "name": "",
          "type": "uint256[]"
        }
      ],
      "stateMutability": "view",
      "type": "function"
    },
    {
      "inputs": [
        {
          "internalType": "uint256",
          "name": "_amountEsport",
          "type": "uint256"
        },
        {
          "internalType": "uint256",
          "name": "_amountByte",
          "type": "uint256"
        }
      ],
      "name": "withdraw",
      "outputs": [],
      "stateMutability": "nonpayable",
      "type": "function"
    },
    {
      "stateMutability": "payable",
      "type": "receive"
    }
  ],
  "bytecode": "60806040523480156200001157600080fd5b50600054610100900460ff166200002f5760005460ff161562000039565b62000039620000de565b620000a15760405162461bcd60e51b815260206004820152602e60248201527f496e697469616c697a61626c653a20636f6e747261637420697320616c72656160448201526d191e481a5b9a5d1a585b1a5e995960921b606482015260840160405180910390fd5b600054610100900460ff16158015620000c4576000805461ffff19166101011790555b8015620000d7576000805461ff00191690555b506200010b565b6000620000f630620000fc60201b620031401760201c565b15905090565b6001600160a01b03163b151590565b6149ec806200011b6000396000f3fe6080604052600436106104095760003560e01c80638462151c11610213578063b88d4fde11610123578063ea25390a116100ab578063f9a9e75e1161007a578063f9a9e75e14610cd0578063fb90c34f14610cf0578063fdba132e14610d10578063fe93c62e14610d31578063ff1c9c6a14610d4657600080fd5b8063ea25390a14610c59578063ea2b4ab214610c79578063efbd73f414610c90578063f2fde38b14610cb057600080fd5b8063bf59d497116100f2578063bf59d49714610b99578063c111355514610bb9578063c87b56dd14610bd0578063daf7570914610bf0578063e985e9c514610c1057600080fd5b8063b88d4fde14610aec578063b8ee528914610b0c578063bcd5053314610b2d578063bd155e8414610b7957600080fd5b806399dc141b116101a6578063a0712d6811610175578063a0712d6814610a62578063a22cb46514610a75578063aa585d5614610a95578063b071401b14610ab5578063b1f63c9c14610ad557600080fd5b806399dc141b146109e15780639b62a61b14610a025780639b642de114610a225780639f67e0ee14610a4257600080fd5b806392465f81116101e257806392465f811461095e578063940670451461097557806395d89b41146109ac57806397c2d898146109c157600080fd5b80638462151c1461086957806384f4319c1461088957806385b27c85146109295780638da5cb5b1461094057600080fd5b8063366d2a901161031957806361c02efb116102a1578063704b6c0211610270578063704b6c02146107e857806370a0823114610808578063715018a61461082857806373a1d94e1461083d5780638129fc1c1461085457600080fd5b806361c02efb1461075c5780636352211e146107915780636b2b0a94146107b15780636e87fb51146107c857600080fd5b806342842e0e116102e857806342842e0e146106ba578063441a3e70146106da5780634f6ccce7146106fa578063542a22741461071a5780635c975abb1461073a57600080fd5b8063366d2a901461064a57806336cd224d146106615780633ed89d701461067857806340ebc9d01461069a57600080fd5b806316c38b3c1161039c578063200469fb1161036b578063200469fb146105bb57806321d52422146105d257806323b872dd146105f3578063255e4685146106135780632f745c591461062a57600080fd5b806316c38b3c1461055857806318160ddd146105785780631b725d8f1461058d5780631f8398ad146105a457600080fd5b8063095ea7b3116103d8578063095ea7b3146104d15780630962ef79146104f35780630ed38dce146105135780630fadc2861461053357600080fd5b806301ffc9a71461041557806306fdde031461044a578063081812fc1461046c57806309329413146104a457600080fd5b3661041057005b600080fd5b34801561042157600080fd5b5061043561043036600461404c565b610d67565b60405190151581526020015b60405180910390f35b34801561045657600080fd5b5061045f610d78565b60405161044191906140c1565b34801561047857600080fd5b5061048c6104873660046140d4565b610e0a565b6040516001600160a01b039091168152602001610441565b3480156104b057600080fd5b506104c46104bf366004614102565b610ea4565b604051610441919061411f565b3480156104dd57600080fd5b506104f16104ec366004614163565b610f11565b005b3480156104ff57600080fd5b506104f161050e3660046140d4565b611027565b34801561051f57600080fd5b506104f161052e3660046140d4565b6112e6565b34801561053f57600080fd5b5061054a6101385481565b604051908152602001610441565b34801561056457600080fd5b506104f161057336600461419d565b61135e565b34801561058457600080fd5b5060cb5461054a565b34801561059957600080fd5b5061054a6101435481565b3480156105b057600080fd5b5061054a6101455481565b3480156105c757600080fd5b5061054a6101365481565b3480156105de57600080fd5b5061012f5461048c906001600160a01b031681565b3480156105ff57600080fd5b506104f161060e3660046141ba565b6113aa565b34801561061f57600080fd5b5061054a6101375481565b34801561063657600080fd5b5061054a610645366004614163565b6113db565b34801561065657600080fd5b5061054a6101415481565b34801561066d57600080fd5b5061054a6101355481565b34801561068457600080fd5b506101325461043590600160a81b900460ff1681565b3480156106a657600080fd5b506104f16106b53660046140d4565b611471565b3480156106c657600080fd5b506104f16106d53660046141ba565b61181c565b3480156106e657600080fd5b506104f16106f53660046141fb565b611837565b34801561070657600080fd5b5061054a6107153660046140d4565b611a62565b34801561072657600080fd5b506104f161073536600461421d565b611af5565b34801561074657600080fd5b506101325461043590600160a01b900460ff1681565b34801561076857600080fd5b5061077c6107773660046140d4565b611b64565b60408051928352602083019190915201610441565b34801561079d57600080fd5b5061048c6107ac3660046140d4565b611be3565b3480156107bd57600080fd5b5061054a61013c5481565b3480156107d457600080fd5b506104f16107e3366004614102565b611c5a565b3480156107f457600080fd5b506104f1610803366004614102565b611caa565b34801561081457600080fd5b5061054a610823366004614102565b611cf7565b34801561083457600080fd5b506104f1611d7e565b34801561084957600080fd5b5061054a6101445481565b34801561086057600080fd5b506104f1611db4565b34801561087557600080fd5b506104c4610884366004614102565b611fa2565b34801561089557600080fd5b506108ec6108a43660046140d4565b610148602052600090815260409020805460018201546002830154600384015460048501546005860154600687015460079097015460ff909616969495939492939192909188565b6040805198151589526020890197909752958701949094526060860192909252608085015260a084015260c083015260e082015261010001610441565b34801561093557600080fd5b5061054a61013d5481565b34801561094c57600080fd5b506097546001600160a01b031661048c565b34801561096a57600080fd5b5061054a6101345481565b34801561098157600080fd5b5061048c6109903660046140d4565b610147602052600090815260409020546001600160a01b031681565b3480156109b857600080fd5b5061045f612042565b3480156109cd57600080fd5b506104f16109dc36600461419d565b612051565b3480156109ed57600080fd5b506101305461048c906001600160a01b031681565b348015610a0e57600080fd5b506104f1610a1d3660046141fb565b61209d565b348015610a2e57600080fd5b506104f1610a3d366004614307565b612139565b348015610a4e57600080fd5b506104f1610a5d3660046140d4565b61217e565b6104f1610a703660046140d4565b612367565b348015610a8157600080fd5b506104f1610a90366004614350565b6127a9565b348015610aa157600080fd5b506104f1610ab0366004614389565b6127b4565b348015610ac157600080fd5b506104f1610ad03660046140d4565b6127f2565b348015610ae157600080fd5b5061054a6101395481565b348015610af857600080fd5b506104f1610b073660046143b5565b612825565b348015610b1857600080fd5b5061012e5461048c906001600160a01b031681565b348015610b3957600080fd5b50610b4d610b483660046140d4565b61285d565b60408051958652602086019490945292840191909152151560608301521515608082015260a001610441565b348015610b8557600080fd5b506104f1610b943660046141fb565b612947565b348015610ba557600080fd5b506104f1610bb4366004614435565b61297e565b348015610bc557600080fd5b5061054a61013b5481565b348015610bdc57600080fd5b5061045f610beb3660046140d4565b6129c3565b348015610bfc57600080fd5b506104f1610c0b3660046144e7565b612aa2565b348015610c1c57600080fd5b50610435610c2b36600461454b565b6001600160a01b039182166000908152606a6020908152604080832093909416825291909152205460ff1690565b348015610c6557600080fd5b506104f1610c743660046140d4565b612b6e565b348015610c8557600080fd5b5061054a61013a5481565b348015610c9c57600080fd5b506104f1610cab366004614579565b612ec3565b348015610cbc57600080fd5b506104f1610ccb366004614102565b612fc3565b348015610cdc57600080fd5b506104f1610ceb3660046141fb565b61305b565b348015610cfc57600080fd5b506104f1610d0b366004614102565b613095565b348015610d1c57600080fd5b506101315461048c906001600160a01b031681565b348015610d3d57600080fd5b506104f16130e5565b348015610d5257600080fd5b5061012d5461048c906001600160a01b031681565b6000610d728261314f565b92915050565b606060658054610d879061459e565b80601f0160208091040260200160405190810160405280929190818152602001828054610db39061459e565b8015610e005780601f10610dd557610100808354040283529160200191610e00565b820191906000526020600020905b815481529060010190602001808311610de357829003601f168201915b5050505050905090565b6000818152606760205260408120546001600160a01b0316610e885760405162461bcd60e51b815260206004820152602c60248201527f4552433732313a20617070726f76656420717565727920666f72206e6f6e657860448201526b34b9ba32b73a103a37b5b2b760a11b60648201526084015b60405180910390fd5b506000908152606960205260409020546001600160a01b031690565b6001600160a01b03811660009081526101466020908152604091829020805483518184028101840190945280845260609392830182828015610f0557602002820191906000526020600020905b815481526020019060010190808311610ef1575b50505050509050919050565b6000610f1c82611be3565b9050806001600160a01b0316836001600160a01b03161415610f8a5760405162461bcd60e51b815260206004820152602160248201527f4552433732313a20617070726f76616c20746f2063757272656e74206f776e656044820152603960f91b6064820152608401610e7f565b336001600160a01b0382161480610fa65750610fa68133610c2b565b6110185760405162461bcd60e51b815260206004820152603860248201527f4552433732313a20617070726f76652063616c6c6572206973206e6f74206f7760448201527f6e6572206e6f7220617070726f76656420666f7220616c6c00000000000000006064820152608401610e7f565b6110228383613174565b505050565b600260fb54141561104a5760405162461bcd60e51b8152600401610e7f906145d9565b600260fb5561105881611be3565b6001600160a01b0316336001600160a01b0316146110b85760405162461bcd60e51b815260206004820152601960248201527f596f7520646f6e2774206f776e2074686973206172656e6121000000000000006044820152606401610e7f565b600081815261014860205260408120600601546110d4836131e2565b6110de9190614626565b9050600081116111305760405162461bcd60e51b815260206004820152601c60248201527f596f752068617665206e6f207265776172647320746f20636c61696d000000006044820152606401610e7f565b61013254600160a81b900460ff161561124a576000828152610148602052604081206007015461115f84613265565b6111699190614626565b9050600081116111bb5760405162461bcd60e51b815260206004820152601c60248201527f596f752068617665206e6f207265776172647320746f20636c61696d000000006044820152606401610e7f565b600083815261014860205260408082206007019190915561013054905163a9059cbb60e01b8152336004820152602481018390526001600160a01b039091169063a9059cbb906044016020604051808303816000875af1158015611223573d6000803e3d6000fd5b505050506040513d601f19601f82011682018060405250810190611247919061463e565b50505b600082815261014860205260408082204260058201556006019190915561012f54905163a9059cbb60e01b8152336004820152602481018390526001600160a01b039091169063a9059cbb906044016020604051808303816000875af11580156112b8573d6000803e3d6000fd5b505050506040513d601f19601f820116820180604052508101906112dc919061463e565b5050600160fb5550565b61012d54604051630852cd8d60e31b8152600481018390526001600160a01b03909116906342966c6890602401600060405180830381600087803b15801561132d57600080fd5b505af1158015611341573d6000803e3d6000fd5b5050505061135b338260016113569190614626565b6132c2565b50565b6097546001600160a01b03163314806113825750610132546001600160a01b031633145b61138b57600080fd5b6101328054911515600160a01b0260ff60a01b19909216919091179055565b6113b433826132dc565b6113d05760405162461bcd60e51b8152600401610e7f9061465b565b6110228383836133d3565b60006113e683611cf7565b82106114485760405162461bcd60e51b815260206004820152602b60248201527f455243373231456e756d657261626c653a206f776e657220696e646578206f7560448201526a74206f6620626f756e647360a81b6064820152608401610e7f565b506001600160a01b0391909116600090815260c960209081526040808320938352929052205490565b600260fb5414156114945760405162461bcd60e51b8152600401610e7f906145d9565b600260fb55336114a382611be3565b6001600160a01b03161461150e5760405162461bcd60e51b815260206004820152602c60248201527f43616e27742075706772616465207469657220666f7220746f6b656e7320796f60448201526b7520646f6e2774206f776e2160a01b6064820152608401610e7f565b600081815261014860209081526040808320815161010081018352815460ff16151581526001820154938101939093526002810154918301919091526003810154606083015260048101546080830152600581015460a0830152600681015460c08301526007015460e0820152906115858361357a565b9050610141548260200151600161159c9190614626565b6115a691906146ac565b8110156115f55760405162461bcd60e51b815260206004820181905260248201527f4e6f74206869676820656e6f756768206c6576656c20746f20757067726164656044820152606401610e7f565b61012f54602083015161013b546001600160a01b03909216916323b872dd9133913091611621916146ac565b6040516001600160e01b031960e086901b1681526001600160a01b03938416600482015292909116602483015260448201526064016020604051808303816000875af1158015611675573d6000803e3d6000fd5b505050506040513d601f19601f82011682018060405250810190611699919061463e565b506116a3836131e2565b8260c0018181516116b49190614626565b90525061013254600160a81b900460ff161561178d5761013054602083015161013c546001600160a01b03909216916323b872dd91339130916116f6916146ac565b6040516001600160e01b031960e086901b1681526001600160a01b03938416600482015292909116602483015260448201526064016020604051808303816000875af115801561174a573d6000803e3d6000fd5b505050506040513d601f19601f8201168201806040525081019061176e919061463e565b5061177883613265565b8260e0018181516117899190614626565b9052505b4260a0830152602082018051600191906117a8908390614626565b90525050600091825261014860209081526040928390208251815460ff191690151517815590820151600180830191909155928201516002820155606082015160038201556080820151600482015560a0820151600582015560c0820151600682015560e09091015160079091015560fb55565b61102283838360405180602001604052806000815250612825565b6097546001600160a01b031633146118615760405162461bcd60e51b8152600401610e7f906146cb565b61012f546040516370a0823160e01b81523060048201526000916001600160a01b0316906370a0823190602401602060405180830381865afa1580156118ab573d6000803e3d6000fd5b505050506040513d601f19601f820116820180604052508101906118cf9190614700565b9050808311156118de57600080fd5b61012f5460405163a9059cbb60e01b8152336004820152602481018590526001600160a01b039091169063a9059cbb906044016020604051808303816000875af1158015611930573d6000803e3d6000fd5b505050506040513d601f19601f82011682018060405250810190611954919061463e565b5061013254600160a81b900460ff161561102257610130546040516370a0823160e01b81523060048201526000916001600160a01b0316906370a0823190602401602060405180830381865afa1580156119b2573d6000803e3d6000fd5b505050506040513d601f19601f820116820180604052508101906119d69190614700565b9050808311156119e557600080fd5b6101305460405163a9059cbb60e01b8152336004820152602481018590526001600160a01b039091169063a9059cbb906044016020604051808303816000875af1158015611a37573d6000803e3d6000fd5b505050506040513d601f19601f82011682018060405250810190611a5b919061463e565b5050505050565b6000611a6d60cb5490565b8210611ad05760405162461bcd60e51b815260206004820152602c60248201527f455243373231456e756d657261626c653a20676c6f62616c20696e646578206f60448201526b7574206f6620626f756e647360a01b6064820152608401610e7f565b60cb8281548110611ae357611ae3614719565b90600052602060002001549050919050565b6097546001600160a01b0316331480611b195750610132546001600160a01b031633145b611b2257600080fd5b61012d80546001600160a01b039485166001600160a01b03199182161790915561012e80549385169382169390931790925561012f8054919093169116179055565b6000806000611b72846131e2565b60008581526101486020526040902060060154611b8f9190614626565b61013254909150600090600160a81b900460ff1615611bd557611bb185613265565b60008681526101486020526040902060070154611bce9190614626565b9050611bd9565b5060005b9094909350915050565b6000818152606760205260408120546001600160a01b031680610d725760405162461bcd60e51b815260206004820152602960248201527f4552433732313a206f776e657220717565727920666f72206e6f6e657869737460448201526832b73a103a37b5b2b760b91b6064820152608401610e7f565b6097546001600160a01b0316331480611c7e5750610132546001600160a01b031633145b611c8757600080fd5b61013080546001600160a01b0319166001600160a01b0392909216919091179055565b6097546001600160a01b03163314611cd45760405162461bcd60e51b8152600401610e7f906146cb565b61013280546001600160a01b0319166001600160a01b0392909216919091179055565b60006001600160a01b038216611d625760405162461bcd60e51b815260206004820152602a60248201527f4552433732313a2062616c616e636520717565727920666f7220746865207a65604482015269726f206164647265737360b01b6064820152608401610e7f565b506001600160a01b031660009081526068602052604090205490565b6097546001600160a01b03163314611da85760405162461bcd60e51b8152600401610e7f906146cb565b611db260006135e7565b565b600054610100900460ff16611dcf5760005460ff1615611dd3565b303b155b611e365760405162461bcd60e51b815260206004820152602e60248201527f496e697469616c697a61626c653a20636f6e747261637420697320616c72656160448201526d191e481a5b9a5d1a585b1a5e995960921b6064820152608401610e7f565b600054610100900460ff16158015611e58576000805461ffff19166101011790555b611ea06040518060400160405280600a8152602001694d6574614172656e617360b01b815250604051806040016040528060048152602001634d41524560e01b815250613639565b611ea861366a565b611eb0613699565b678ac7230489e800006101345567d02ab486cedc0000610135556801158e460913d000006101365568056bc75e2d6310000061013b55680ad78ebc5ac620000061013c55600361013d556103e861013e5560408051808201909152600580825264173539b7b760d91b6020909201918252611f2e9161014091613f63565b50600a610141556203f48061014255620186a06101435561c350610144556002610145556103e861013355610132805460ff60a01b1916600160a01b179055611f783360766132c2565b611f833360bc6132c2565b611f8e3360d86132c2565b801561135b576000805461ff001916905550565b60606000611faf83611cf7565b905060008167ffffffffffffffff811115611fcc57611fcc614268565b604051908082528060200260200182016040528015611ff5578160200160208202803683370190505b50905060005b8281101561203a5761200d85826113db565b82828151811061201f5761201f614719565b60209081029190910101526120338161472f565b9050611ffb565b509392505050565b606060668054610d879061459e565b6097546001600160a01b03163314806120755750610132546001600160a01b031633145b61207e57600080fd5b6101328054911515600160a81b0260ff60a81b19909216919091179055565b610131546001600160a01b0316331461210e5760405162461bcd60e51b815260206004820152602d60248201527f596f7520617265206e6f7420617574686f726973656420746f2063616c6c207460448201526c6869732066756e6374696f6e2160981b6064820152608401610e7f565b6000828152610148602052604081206002018054839290612130908490614626565b90915550505050565b6097546001600160a01b031633148061215d5750610132546001600160a01b031633145b61216657600080fd5b805161217a9061013f906020840190613f63565b5050565b600260fb5414156121a15760405162461bcd60e51b8152600401610e7f906145d9565b600260fb556121af81611be3565b6001600160a01b0316336001600160a01b03161461221a5760405162461bcd60e51b815260206004820152602260248201527f43616e2774207374616b652061206172656e6120796f7520646f6e2774206f776044820152616e2160f01b6064820152608401610e7f565b60008181526101486020908152604091829020825161010081018452815460ff1615801582526001830154938201939093526002820154938101939093526003810154606084015260048101546080840152600581015460a0840152600681015460c08401526007015460e08301526122cd5760405162461bcd60e51b81526020600482015260156024820152744172656e6120616c7265616479207374616b65642160581b6044820152606401610e7f565b4260808201818152600180845260a084019283526000858152610148602090815260408083208751815460ff1916901515178155828801518186015581880151600282015560608801516003820155945160048601559451600585015560c0860151600685015560e0909501516007909301929092553382526101468452918120805480840182559082529290209091019190915560fb55565b8061013d5481111561238b5760405162461bcd60e51b8152600401610e7f9061474a565b61013e54816101335461239e9190614626565b11156123e35760405162461bcd60e51b81526020600482015260146024820152734d617820737570706c792065786365656465642160601b6044820152606401610e7f565b61013254600160a01b900460ff16156124335760405162461bcd60e51b81526020600482015260126024820152714d696e74696e67206973207061757365642160701b6044820152606401610e7f565b6101375442101580156124495750610138544211155b156125b55761012e54604051627eeac760e11b8152336004820152600060248201819052916001600160a01b03169062fdd58e90604401602060405180830381865afa15801561249d573d6000803e3d6000fd5b505050506040513d601f19601f820116820180604052508101906124c19190614700565b1161250e5760405162461bcd60e51b815260206004820152601d60248201527f596f7520646f6e2774206f776e20436172626f6e204d657461506173730000006044820152606401610e7f565b61012f54610134546001600160a01b03909116906323b872dd90339030906125379087906146ac565b6040516001600160e01b031960e086901b1681526001600160a01b03938416600482015292909116602483015260448201526064016020604051808303816000875af115801561258b573d6000803e3d6000fd5b505050506040513d601f19601f820116820180604052508101906125af919061463e565b5061279f565b6101395442116127315761012e54604051627eeac760e11b8152336004820152600160248201526000916001600160a01b03169062fdd58e90604401602060405180830381865afa15801561260e573d6000803e3d6000fd5b505050506040513d601f19601f820116820180604052508101906126329190614700565b11806126ae575061012e54604051627eeac760e11b8152336004820152600060248201819052916001600160a01b03169062fdd58e90604401602060405180830381865afa158015612688573d6000803e3d6000fd5b505050506040513d601f19601f820116820180604052508101906126ac9190614700565b115b6127085760405162461bcd60e51b815260206004820152602560248201527f596f7520646f6e2774206f776e20436172626f6e206f7220476f6c64204d6574604482015264615061737360d81b6064820152608401610e7f565b61012f54610135546001600160a01b03909116906323b872dd90339030906125379087906146ac565b61013a5442116127645761012f54610136546001600160a01b03909116906323b872dd90339030906125379087906146ac565b60405162461bcd60e51b815260206004820152601060248201526f4d696e74696e67206e6f74206c69766560801b6044820152606401610e7f565b61217a33836136c8565b61217a338383613708565b6097546001600160a01b03163314806127d85750610132546001600160a01b031633145b6127e157600080fd5b610134929092556101355561013655565b6097546001600160a01b03163314806128165750610132546001600160a01b031633145b61281f57600080fd5b61013d55565b61282f33836132dc565b61284b5760405162461bcd60e51b8152600401610e7f9061465b565b612857848484846137d7565b50505050565b60008181526101486020526040812060019081015461014154839283928392839283919061288c908490614626565b61289691906146ac565b60008981526101486020526040812060020154919091101591506128b98961357a565b60008a815261014860205260408120549192509060ff161561291c5760008a815261014860205260409020600401546128f29042614790565b6128fd836001614626565b6101425461290b91906146ac565b6129159190614790565b9050612922565b50610142545b6000998a5261014860205260409099205492999098975060ff90921695509350915050565b6097546001600160a01b031633146129715760405162461bcd60e51b8152600401610e7f906146cb565b6101439190915561014455565b6097546001600160a01b03163314806129a25750610132546001600160a01b031633145b6129ab57600080fd5b61013793909355610138919091556101395561013a55565b6000818152606760205260409020546060906001600160a01b0316612a425760405162461bcd60e51b815260206004820152602f60248201527f4552433732314d657461646174613a2055524920717565727920666f72206e6f60448201526e3732bc34b9ba32b73a103a37b5b2b760891b6064820152608401610e7f565b6000612a4c61380a565b90506000815111612a6c5760405180602001604052806000815250612a9b565b80612a768461381a565b610140604051602001612a8b939291906147a7565b6040516020818303038152906040525b9392505050565b6097546001600160a01b0316331480612ac65750610132546001600160a01b031633145b612acf57600080fd5b8051825114612add57600080fd5b60005b8251811015611022576005828281518110612afd57612afd614719565b602002602001015110612b0f57600080fd5b818181518110612b2157612b21614719565b60200260200101516101486000858481518110612b4057612b40614719565b602002602001015181526020019081526020016000206003018190555080612b679061472f565b9050612ae0565b600260fb541415612b915760405162461bcd60e51b8152600401610e7f906145d9565b600260fb55612b9f81611be3565b6001600160a01b0316336001600160a01b031614612c0b5760405162461bcd60e51b8152602060048201526024808201527f596f7520617265206e6f7420746865206f776e6572206f662074686973204172604482015263656e612160e01b6064820152608401610e7f565b60008181526101486020908152604091829020825161010081018452815460ff1615158082526001830154938201939093526002820154938101939093526003810154606084015260048101546080840152600581015460a0840152600681015460c08401526007015460e0830152612cbd5760405162461bcd60e51b81526020600482015260146024820152734172656e61206973206e6f74207374616b65642160601b6044820152606401610e7f565b6000612cc8836131e2565b9050808260c001818151612cdc9190614626565b9052506000612cea84613265565b9050808360e001818151612cfe9190614626565b90525060008352612d0e8461357a565b60408481019182526000608086018181524260a0880190815288835261014860209081528484208951815460ff1916901515178155818a0151600182015595516002870155606089015160038701559151600486015551600585015560c0870151600685015560e0870151600790940193909355338152610146835281812080548351818602810186019094528084529193909190830182828015612dd257602002820191906000526020600020905b815481526020019060010190808311612dbe575b5050505050905060005b8151811015612e5c5785828281518110612df857612df8614719565b60200260200101511415612e4c578160018351612e159190614790565b81518110612e2557612e25614719565b6020026020010151828281518110612e3f57612e3f614719565b6020026020010181815250505b612e558161472f565b9050612ddc565b50336000908152610146602090815260409091208251612e7e92840190613fe7565b5033600090815261014660205260409020805480612e9e57612e9e61486b565b6001900381819060005260206000200160009055905550505050600160fb8190555050565b8161013d54811115612ee75760405162461bcd60e51b8152600401610e7f9061474a565b61013e548161013354612efa9190614626565b1115612f3f5760405162461bcd60e51b81526020600482015260146024820152734d617820737570706c792065786365656465642160601b6044820152606401610e7f565b61013254600160a01b900460ff1615612f8f5760405162461bcd60e51b81526020600482015260126024820152714d696e74696e67206973207061757365642160701b6044820152606401610e7f565b6097546001600160a01b03163314612fb95760405162461bcd60e51b8152600401610e7f906146cb565b61102282846136c8565b6097546001600160a01b03163314612fed5760405162461bcd60e51b8152600401610e7f906146cb565b6001600160a01b0381166130525760405162461bcd60e51b815260206004820152602660248201527f4f776e61626c653a206e6577206f776e657220697320746865207a65726f206160448201526564647265737360d01b6064820152608401610e7f565b61135b816135e7565b6097546001600160a01b031633148061307f5750610132546001600160a01b031633145b61308857600080fd5b61013b9190915561013c55565b6097546001600160a01b03163314806130b95750610132546001600160a01b031633145b6130c257600080fd5b61013180546001600160a01b0319166001600160a01b0392909216919091179055565b6097546001600160a01b03163314806131095750610132546001600160a01b031633145b61311257600080fd5b610fa061013e54111561312457600080fd5b6103e861013e60008282546131399190614626565b9091555050565b6001600160a01b03163b151590565b60006001600160e01b0319821663780e9d6360e01b1480610d725750610d7282613918565b600081815260696020526040902080546001600160a01b0319166001600160a01b03841690811790915581906131a982611be3565b6001600160a01b03167f8c5be1e5ebec7d5bd14f71427d1e84f3dd0314c0f7b2291e5b200ac8c7c3b92560405160405180910390a45050565b6000818152610148602052604081205460ff161561325d576101455460008381526101486020526040902060010154610e109161321e91614626565b610143546000858152610148602052604090206005015461323f9042614790565b61324991906146ac565b61325391906146ac565b610d729190614897565b506000919050565b6000818152610148602052604081205460ff161561325d576101455460008381526101486020526040902060010154610e10916132a191614626565b610144546000858152610148602052604090206005015461323f9042614790565b61217a828260405180602001604052806000815250613968565b6000818152606760205260408120546001600160a01b03166133555760405162461bcd60e51b815260206004820152602c60248201527f4552433732313a206f70657261746f7220717565727920666f72206e6f6e657860448201526b34b9ba32b73a103a37b5b2b760a11b6064820152608401610e7f565b600061336083611be3565b9050806001600160a01b0316846001600160a01b0316148061339b5750836001600160a01b031661339084610e0a565b6001600160a01b0316145b806133cb57506001600160a01b038082166000908152606a602090815260408083209388168352929052205460ff165b949350505050565b826001600160a01b03166133e682611be3565b6001600160a01b03161461344a5760405162461bcd60e51b815260206004820152602560248201527f4552433732313a207472616e736665722066726f6d20696e636f72726563742060448201526437bbb732b960d91b6064820152608401610e7f565b6001600160a01b0382166134ac5760405162461bcd60e51b8152602060048201526024808201527f4552433732313a207472616e7366657220746f20746865207a65726f206164646044820152637265737360e01b6064820152608401610e7f565b6134b783838361399b565b6134c2600082613174565b6001600160a01b03831660009081526068602052604081208054600192906134eb908490614790565b90915550506001600160a01b0382166000908152606860205260408120805460019290613519908490614626565b909155505060008181526067602052604080822080546001600160a01b0319166001600160a01b0386811691821790925591518493918716917fddf252ad1be2c89b69c2b068fc378daa952ba7f163c4a11628f55a4df523b3ef91a4505050565b600081815261014860205260408120600401546135a857506000908152610148602052604090206002015490565b6000828152610148602052604090206002810154610142546004909201549091906135d39042614790565b6135dd9190614897565b610d729190614626565b609780546001600160a01b038381166001600160a01b0319831681179093556040519116919082907f8be0079c531659141344cd1fd0a4f28419497f9722a3daafe3b4186f6b6457e090600090a35050565b600054610100900460ff166136605760405162461bcd60e51b8152600401610e7f906148ab565b61217a8282613a23565b600054610100900460ff166136915760405162461bcd60e51b8152600401610e7f906148ab565b611db2613a71565b600054610100900460ff166136c05760405162461bcd60e51b8152600401610e7f906148ab565b611db2613aa1565b60005b818110156110225761013380549060006136e48361472f565b91905055506136f683610133546132c2565b806137008161472f565b9150506136cb565b816001600160a01b0316836001600160a01b0316141561376a5760405162461bcd60e51b815260206004820152601960248201527f4552433732313a20617070726f766520746f2063616c6c6572000000000000006044820152606401610e7f565b6001600160a01b038381166000818152606a6020908152604080832094871680845294825291829020805460ff191686151590811790915591519182527f17307eab39ab6107e8899845ad3d59bd9653f200f220920489ca2b5937696c31910160405180910390a3505050565b6137e28484846133d3565b6137ee84848484613acf565b6128575760405162461bcd60e51b8152600401610e7f906148f6565b606061013f8054610d879061459e565b60608161383e5750506040805180820190915260018152600360fc1b602082015290565b8160005b811561386857806138528161472f565b91506138619050600a83614897565b9150613842565b60008167ffffffffffffffff81111561388357613883614268565b6040519080825280601f01601f1916602001820160405280156138ad576020820181803683370190505b5090505b84156133cb576138c2600183614790565b91506138cf600a86614948565b6138da906030614626565b60f81b8183815181106138ef576138ef614719565b60200101906001600160f81b031916908160001a905350613911600a86614897565b94506138b1565b60006001600160e01b031982166380ac58cd60e01b148061394957506001600160e01b03198216635b5e139f60e01b145b80610d7257506301ffc9a760e01b6001600160e01b0319831614610d72565b6139728383613bcd565b61397f6000848484613acf565b6110225760405162461bcd60e51b8152600401610e7f906148f6565b6000818152610148602052604090205460ff1615613a055760405162461bcd60e51b815260206004820152602160248201527f596f752063616e2774207472616e73666572207374616b6564206172656e61736044820152602160f81b6064820152608401610e7f565b60008181526101486020526040812060020155611022838383613d1b565b600054610100900460ff16613a4a5760405162461bcd60e51b8152600401610e7f906148ab565b8151613a5d906065906020850190613f63565b508051611022906066906020840190613f63565b600054610100900460ff16613a985760405162461bcd60e51b8152600401610e7f906148ab565b611db2336135e7565b600054610100900460ff16613ac85760405162461bcd60e51b8152600401610e7f906148ab565b600160fb55565b60006001600160a01b0384163b15613bc257604051630a85bd0160e11b81526001600160a01b0385169063150b7a0290613b1390339089908890889060040161495c565b6020604051808303816000875af1925050508015613b4e575060408051601f3d908101601f19168201909252613b4b91810190614999565b60015b613ba8573d808015613b7c576040519150601f19603f3d011682016040523d82523d6000602084013e613b81565b606091505b508051613ba05760405162461bcd60e51b8152600401610e7f906148f6565b805181602001fd5b6001600160e01b031916630a85bd0160e11b1490506133cb565b506001949350505050565b6001600160a01b038216613c235760405162461bcd60e51b815260206004820181905260248201527f4552433732313a206d696e7420746f20746865207a65726f20616464726573736044820152606401610e7f565b6000818152606760205260409020546001600160a01b031615613c885760405162461bcd60e51b815260206004820152601c60248201527f4552433732313a20746f6b656e20616c7265616479206d696e746564000000006044820152606401610e7f565b613c946000838361399b565b6001600160a01b0382166000908152606860205260408120805460019290613cbd908490614626565b909155505060008181526067602052604080822080546001600160a01b0319166001600160a01b03861690811790915590518392907fddf252ad1be2c89b69c2b068fc378daa952ba7f163c4a11628f55a4df523b3ef908290a45050565b6001600160a01b038316613d7657613d718160cb8054600083815260cc60205260408120829055600182018355919091527fa7ce836d032b2bf62b7e2097a8e0a6d8aeb35405ad15271e96d3b0188a1d06fb0155565b613d99565b816001600160a01b0316836001600160a01b031614613d9957613d998382613dd3565b6001600160a01b038216613db05761102281613e70565b826001600160a01b0316826001600160a01b031614611022576110228282613f1f565b60006001613de084611cf7565b613dea9190614790565b600083815260ca6020526040902054909150808214613e3d576001600160a01b038416600090815260c960209081526040808320858452825280832054848452818420819055835260ca90915290208190555b50600091825260ca602090815260408084208490556001600160a01b03909416835260c981528383209183525290812055565b60cb54600090613e8290600190614790565b600083815260cc602052604081205460cb8054939450909284908110613eaa57613eaa614719565b906000526020600020015490508060cb8381548110613ecb57613ecb614719565b600091825260208083209091019290925582815260cc909152604080822084905585825281205560cb805480613f0357613f0361486b565b6001900381819060005260206000200160009055905550505050565b6000613f2a83611cf7565b6001600160a01b03909316600090815260c960209081526040808320868452825280832085905593825260ca9052919091209190915550565b828054613f6f9061459e565b90600052602060002090601f016020900481019282613f915760008555613fd7565b82601f10613faa57805160ff1916838001178555613fd7565b82800160010185558215613fd7579182015b82811115613fd7578251825591602001919060010190613fbc565b50613fe3929150614021565b5090565b828054828255906000526020600020908101928215613fd75791602002820182811115613fd7578251825591602001919060010190613fbc565b5b80821115613fe35760008155600101614022565b6001600160e01b03198116811461135b57600080fd5b60006020828403121561405e57600080fd5b8135612a9b81614036565b60005b8381101561408457818101518382015260200161406c565b838111156128575750506000910152565b600081518084526140ad816020860160208601614069565b601f01601f19169290920160200192915050565b602081526000612a9b6020830184614095565b6000602082840312156140e657600080fd5b5035919050565b6001600160a01b038116811461135b57600080fd5b60006020828403121561411457600080fd5b8135612a9b816140ed565b6020808252825182820181905260009190848201906040850190845b818110156141575783518352928401929184019160010161413b565b50909695505050505050565b6000806040838503121561417657600080fd5b8235614181816140ed565b946020939093013593505050565b801515811461135b57600080fd5b6000602082840312156141af57600080fd5b8135612a9b8161418f565b6000806000606084860312156141cf57600080fd5b83356141da816140ed565b925060208401356141ea816140ed565b929592945050506040919091013590565b6000806040838503121561420e57600080fd5b50508035926020909101359150565b60008060006060848603121561423257600080fd5b833561423d816140ed565b9250602084013561424d816140ed565b9150604084013561425d816140ed565b809150509250925092565b634e487b7160e01b600052604160045260246000fd5b604051601f8201601f1916810167ffffffffffffffff811182821017156142a7576142a7614268565b604052919050565b600067ffffffffffffffff8311156142c9576142c9614268565b6142dc601f8401601f191660200161427e565b90508281528383830111156142f057600080fd5b828260208301376000602084830101529392505050565b60006020828403121561431957600080fd5b813567ffffffffffffffff81111561433057600080fd5b8201601f8101841361434157600080fd5b6133cb848235602084016142af565b6000806040838503121561436357600080fd5b823561436e816140ed565b9150602083013561437e8161418f565b809150509250929050565b60008060006060848603121561439e57600080fd5b505081359360208301359350604090920135919050565b600080600080608085870312156143cb57600080fd5b84356143d6816140ed565b935060208501356143e6816140ed565b925060408501359150606085013567ffffffffffffffff81111561440957600080fd5b8501601f8101871361441a57600080fd5b614429878235602084016142af565b91505092959194509250565b6000806000806080858703121561444b57600080fd5b5050823594602084013594506040840135936060013592509050565b600082601f83011261447857600080fd5b8135602067ffffffffffffffff82111561449457614494614268565b8160051b6144a382820161427e565b92835284810182019282810190878511156144bd57600080fd5b83870192505b848310156144dc578235825291830191908301906144c3565b979650505050505050565b600080604083850312156144fa57600080fd5b823567ffffffffffffffff8082111561451257600080fd5b61451e86838701614467565b9350602085013591508082111561453457600080fd5b5061454185828601614467565b9150509250929050565b6000806040838503121561455e57600080fd5b8235614569816140ed565b9150602083013561437e816140ed565b6000806040838503121561458c57600080fd5b82359150602083013561437e816140ed565b600181811c908216806145b257607f821691505b602082108114156145d357634e487b7160e01b600052602260045260246000fd5b50919050565b6020808252601f908201527f5265656e7472616e637947756172643a207265656e7472616e742063616c6c00604082015260600190565b634e487b7160e01b600052601160045260246000fd5b6000821982111561463957614639614610565b500190565b60006020828403121561465057600080fd5b8151612a9b8161418f565b60208082526031908201527f4552433732313a207472616e736665722063616c6c6572206973206e6f74206f6040820152701ddb995c881b9bdc88185c1c1c9bdd9959607a1b606082015260800190565b60008160001904831182151516156146c6576146c6614610565b500290565b6020808252818101527f4f776e61626c653a2063616c6c6572206973206e6f7420746865206f776e6572604082015260600190565b60006020828403121561471257600080fd5b5051919050565b634e487b7160e01b600052603260045260246000fd5b600060001982141561474357614743614610565b5060010190565b60208082526026908201527f4d6178696d756d206d696e7420706572207472616e73616374696f6e2065786360408201526565656465642160d01b606082015260800190565b6000828210156147a2576147a2614610565b500390565b6000845160206147ba8285838a01614069565b8551918401916147cd8184848a01614069565b8554920191600090600181811c90808316806147ea57607f831692505b85831081141561480857634e487b7160e01b85526022600452602485fd5b80801561481c576001811461482d5761485a565b60ff1985168852838801955061485a565b60008b81526020902060005b858110156148525781548a820152908401908801614839565b505083880195505b50939b9a5050505050505050505050565b634e487b7160e01b600052603160045260246000fd5b634e487b7160e01b600052601260045260246000fd5b6000826148a6576148a6614881565b500490565b6020808252602b908201527f496e697469616c697a61626c653a20636f6e7472616374206973206e6f74206960408201526a6e697469616c697a696e6760a81b606082015260800190565b60208082526032908201527f4552433732313a207472616e7366657220746f206e6f6e20455243373231526560408201527131b2b4bb32b91034b6b83632b6b2b73a32b960711b606082015260800190565b60008261495757614957614881565b500690565b6001600160a01b038581168252841660208201526040810183905260806060820181905260009061498f90830184614095565b9695505050505050565b6000602082840312156149ab57600080fd5b8151612a9b8161403656fea26469706673582212208c4e5012f23c126a4a3716504dac484ec6e38356b1ff68d71e5b8f8b3b3d6a1864736f6c634300080c0033",
  "bytecodeSha1": "402ed6f1a7b45bf6e0e10f0199b03068a4189946",
  "compiler": {
    "evm_version": "istanbul",
    "optimizer": {
      "enabled": true,
      "runs": 200
    },
    "version": "0.8.12+commit.f00d7308"
  },
  "contractName": "MetaArenas",
  "language": "Solidity",
  "natspec": {
    "kind": "dev",
    "methods": {
      "approve(address,uint256)": {
        "details": "See {IERC721-approve}."
      },
      "balanceOf(address)": {
        "details": "See {IERC721-balanceOf}."
      },
      "getApproved(uint256)": {
        "details": "See {IERC721-getApproved}."
      },
      "isApprovedForAll(address,address)": {
        "details": "See {IERC721-isApprovedForAll}."
      },
      "name()": {
        "details": "See {IERC721Metadata-name}."
      },
      "owner()": {
        "details": "Returns the address of the current owner."
      },
      "ownerOf(uint256)": {
        "details": "See {IERC721-ownerOf}."
      },
      "renounceOwnership()": {
        "details": "Leaves the contract without owner. It will not be possible to call `onlyOwner` functions anymore. Can only be called by the current owner. NOTE: Renouncing ownership will leave the contract without an owner, thereby removing any functionality that is only available to the owner."
      },
      "safeTransferFrom(address,address,uint256)": {
        "details": "See {IERC721-safeTransferFrom}."
      },
      "safeTransferFrom(address,address,uint256,bytes)": {
        "details": "See {IERC721-safeTransferFrom}."
      },
      "setApprovalForAll(address,bool)": {
        "details": "See {IERC721-setApprovalForAll}."
      },
      "symbol()": {
        "details": "See {IERC721Metadata-symbol}."
      },
      "tokenByIndex(uint256)": {
        "details": "See {IERC721Enumerable-tokenByIndex}."
      },
      "tokenOfOwnerByIndex(address,uint256)": {
        "details": "See {IERC721Enumerable-tokenOfOwnerByIndex}."
      },
      "totalSupply()": {
        "details": "See {IERC721Enumerable-totalSupply}."
      },
      "transferFrom(address,address,uint256)": {
        "details": "See {IERC721-transferFrom}."
      },
      "transferOwnership(address)": {
        "details": "Transfers ownership of the contract to a new account (`newOwner`). Can only be called by the current owner."
      }
    },
    "version": 1
  },
  "opcodes": "PUSH1 0x80 PUSH1 0x40 MSTORE PUSH1 0x4 CALLDATASIZE LT PUSH2 0x409 JUMPI PUSH1 0x0 CALLDATALOAD PUSH1 0xE0 SHR DUP1 PUSH4 0x8462151C GT PUSH2 0x213 JUMPI DUP1 PUSH4 0xB88D4FDE GT PUSH2 0x123 JUMPI DUP1 PUSH4 0xEA25390A GT PUSH2 0xAB JUMPI DUP1 PUSH4 0xF9A9E75E GT PUSH2 0x7A JUMPI DUP1 PUSH4 0xF9A9E75E EQ PUSH2 0xCD0 JUMPI DUP1 PUSH4 0xFB90C34F EQ PUSH2 0xCF0 JUMPI DUP1 PUSH4 0xFDBA132E EQ PUSH2 0xD10 JUMPI DUP1 PUSH4 0xFE93C62E EQ PUSH2 0xD31 JUMPI DUP1 PUSH4 0xFF1C9C6A EQ PUSH2 0xD46 JUMPI PUSH1 0x0 DUP1 REVERT JUMPDEST DUP1 PUSH4 0xEA25390A EQ PUSH2 0xC59 JUMPI DUP1 PUSH4 0xEA2B4AB2 EQ PUSH2 0xC79 JUMPI DUP1 PUSH4 0xEFBD73F4 EQ PUSH2 0xC90 JUMPI DUP1 PUSH4 0xF2FDE38B EQ PUSH2 0xCB0 JUMPI PUSH1 0x0 DUP1 REVERT JUMPDEST DUP1 PUSH4 0xBF59D497 GT PUSH2 0xF2 JUMPI DUP1 PUSH4 0xBF59D497 EQ PUSH2 0xB99 JUMPI DUP1 PUSH4 0xC1113555 EQ PUSH2 0xBB9 JUMPI DUP1 PUSH4 0xC87B56DD EQ PUSH2 0xBD0 JUMPI DUP1 PUSH4 0xDAF75709 EQ PUSH2 0xBF0 JUMPI DUP1 PUSH4 0xE985E9C5 EQ PUSH2 0xC10 JUMPI PUSH1 0x0 DUP1 REVERT JUMPDEST DUP1 PUSH4 0xB88D4FDE EQ PUSH2 0xAEC JUMPI DUP1 PUSH4 0xB8EE5289 EQ PUSH2 0xB0C JUMPI DUP1 PUSH4 0xBCD50533 EQ PUSH2 0xB2D JUMPI DUP1 PUSH4 0xBD155E84 EQ PUSH2 0xB79 JUMPI PUSH1 0x0 DUP1 REVERT JUMPDEST DUP1 PUSH4 0x99DC141B GT PUSH2 0x1A6 JUMPI DUP1 PUSH4 0xA0712D68 GT PUSH2 0x175 JUMPI DUP1 PUSH4 0xA0712D68 EQ PUSH2 0xA62 JUMPI DUP1 PUSH4 0xA22CB465 EQ PUSH2 0xA75 JUMPI DUP1 PUSH4 0xAA585D56 EQ PUSH2 0xA95 JUMPI DUP1 PUSH4 0xB071401B EQ PUSH2 0xAB5 JUMPI DUP1 PUSH4 0xB1F63C9C EQ PUSH2 0xAD5 JUMPI PUSH1 0x0 DUP1 REVERT JUMPDEST DUP1 PUSH4 0x99DC141B EQ PUSH2 0x9E1 JUMPI DUP1 PUSH4 0x9B62A61B EQ PUSH2 0xA02 JUMPI DUP1 PUSH4 0x9B642DE1 EQ PUSH2 0xA22 JUMPI DUP1 PUSH4 0x9F67E0EE EQ PUSH2 0xA42 JUMPI PUSH1 0x0 DUP1 REVERT JUMPDEST DUP1 PUSH4 0x92465F81 GT PUSH2 0x1E2 JUMPI DUP1 PUSH4 0x92465F81 EQ PUSH2 0x95E JUMPI DUP1 PUSH4 0x94067045 EQ PUSH2 0x975 JUMPI DUP1 PUSH4 0x95D89B41 EQ PUSH2 0x9AC JUMPI DUP1 PUSH4 0x97C2D898 EQ PUSH2 0x9C1 JUMPI PUSH1 0x0 DUP1 REVERT JUMPDEST DUP1 PUSH4 0x8462151C EQ PUSH2 0x869 JUMPI DUP1 PUSH4 0x84F4319C EQ PUSH2 0x889 JUMPI DUP1 PUSH4 0x85B27C85 EQ PUSH2 0x929 JUMPI DUP1 PUSH4 0x8DA5CB5B EQ PUSH2 0x940 JUMPI PUSH1 0x0 DUP1 REVERT JUMPDEST DUP1 PUSH4 0x366D2A90 GT PUSH2 0x319 JUMPI DUP1 PUSH4 0x61C02EFB GT PUSH2 0x2A1 JUMPI DUP1 PUSH4 0x704B6C02 GT PUSH2 0x270 JUMPI DUP1 PUSH4 0x704B6C02 EQ PUSH2 0x7E8 JUMPI DUP1 PUSH4 0x70A08231 EQ PUSH2 0x808 JUMPI DUP1 PUSH4 0x715018A6 EQ PUSH2 0x828 JUMPI DUP1 PUSH4 0x73A1D94E EQ PUSH2 0x83D JUMPI DUP1 PUSH4 0x8129FC1C EQ PUSH2 0x854 JUMPI PUSH1 0x0 DUP1 REVERT JUMPDEST DUP1 PUSH4 0x61C02EFB EQ PUSH2 0x75C JUMPI DUP1 PUSH4 0x6352211E EQ PUSH2 0x791 JUMPI DUP1 PUSH4 0x6B2B0A94 EQ PUSH2 0x7B1 JUMPI DUP1 PUSH4 0x6E87FB51 EQ PUSH2 0x7C8 JUMPI PUSH1 0x0 DUP1 REVERT JUMPDEST DUP1 PUSH4 0x42842E0E GT PUSH2 0x2E8 JUMPI DUP1 PUSH4 0x42842E0E EQ PUSH2 0x6BA JUMPI DUP1 PUSH4 0x441A3E70 EQ PUSH2 0x6DA JUMPI DUP1 PUSH4 0x4F6CCCE7 EQ PUSH2 0x6FA JUMPI DUP1 PUSH4 0x542A2274 EQ PUSH2 0x71A JUMPI DUP1 PUSH4 0x5C975ABB EQ PUSH2 0x73A JUMPI PUSH1 0x0 DUP1 REVERT JUMPDEST DUP1 PUSH4 0x366D2A90 EQ PUSH2 0x64A JUMPI DUP1 PUSH4 0x36CD224D EQ PUSH2 0x661 JUMPI DUP1 PUSH4 0x3ED89D70 EQ PUSH2 0x678 JUMPI DUP1 PUSH4 0x40EBC9D0 EQ PUSH2 0x69A JUMPI PUSH1 0x0 DUP1 REVERT JUMPDEST DUP1 PUSH4 0x16C38B3C GT PUSH2 0x39C JUMPI DUP1 PUSH4 0x200469FB GT PUSH2 0x36B JUMPI DUP1 PUSH4 0x200469FB EQ PUSH2 0x5BB JUMPI DUP1 PUSH4 0x21D52422 EQ PUSH2 0x5D2 JUMPI DUP1 PUSH4 0x23B872DD EQ PUSH2 0x5F3 JUMPI DUP1 PUSH4 0x255E4685 EQ PUSH2 0x613 JUMPI DUP1 PUSH4 0x2F745C59 EQ PUSH2 0x62A JUMPI PUSH1 0x0 DUP1 REVERT JUMPDEST DUP1 PUSH4 0x16C38B3C EQ PUSH2 0x558 JUMPI DUP1 PUSH4 0x18160DDD EQ PUSH2 0x578 JUMPI DUP1 PUSH4 0x1B725D8F EQ PUSH2 0x58D JUMPI DUP1 PUSH4 0x1F8398AD EQ PUSH2 0x5A4 JUMPI PUSH1 0x0 DUP1 REVERT JUMPDEST DUP1 PUSH4 0x95EA7B3 GT PUSH2 0x3D8 JUMPI DUP1 PUSH4 0x95EA7B3 EQ PUSH2 0x4D1 JUMPI DUP1 PUSH4 0x962EF79 EQ PUSH2 0x4F3 JUMPI DUP1 PUSH4 0xED38DCE EQ PUSH2 0x513 JUMPI DUP1 PUSH4 0xFADC286 EQ PUSH2 0x533 JUMPI PUSH1 0x0 DUP1 REVERT JUMPDEST DUP1 PUSH4 0x1FFC9A7 EQ PUSH2 0x415 JUMPI DUP1 PUSH4 0x6FDDE03 EQ PUSH2 0x44A JUMPI DUP1 PUSH4 0x81812FC EQ PUSH2 0x46C JUMPI DUP1 PUSH4 0x9329413 EQ PUSH2 0x4A4 JUMPI PUSH1 0x0 DUP1 REVERT JUMPDEST CALLDATASIZE PUSH2 0x410 JUMPI STOP JUMPDEST PUSH1 0x0 DUP1 REVERT JUMPDEST CALLVALUE DUP1 ISZERO PUSH2 0x421 JUMPI PUSH1 0x0 DUP1 REVERT JUMPDEST POP PUSH2 0x435 PUSH2 0x430 CALLDATASIZE PUSH1 0x4 PUSH2 0x404C JUMP JUMPDEST PUSH2 0xD67 JUMP JUMPDEST PUSH1 0x40 MLOAD SWAP1 ISZERO ISZERO DUP2 MSTORE PUSH1 0x20 ADD JUMPDEST PUSH1 0x40 MLOAD DUP1 SWAP2 SUB SWAP1 RETURN JUMPDEST CALLVALUE DUP1 ISZERO PUSH2 0x456 JUMPI PUSH1 0x0 DUP1 REVERT JUMPDEST POP PUSH2 0x45F PUSH2 0xD78 JUMP JUMPDEST PUSH1 0x40 MLOAD PUSH2 0x441 SWAP2 SWAP1 PUSH2 0x40C1 JUMP JUMPDEST CALLVALUE DUP1 ISZERO PUSH2 0x478 JUMPI PUSH1 0x0 DUP1 REVERT JUMPDEST POP PUSH2 0x48C PUSH2 0x487 CALLDATASIZE PUSH1 0x4 PUSH2 0x40D4 JUMP JUMPDEST PUSH2 0xE0A JUMP JUMPDEST PUSH1 0x40 MLOAD PUSH1 0x1 PUSH1 0x1 PUSH1 0xA0 SHL SUB SWAP1 SWAP2 AND DUP2 MSTORE PUSH1 0x20 ADD PUSH2 0x441 JUMP JUMPDEST CALLVALUE DUP1 ISZERO PUSH2 0x4B0 JUMPI PUSH1 0x0 DUP1 REVERT JUMPDEST POP PUSH2 0x4C4 PUSH2 0x4BF CALLDATASIZE PUSH1 0x4 PUSH2 0x4102 JUMP JUMPDEST PUSH2 0xEA4 JUMP JUMPDEST PUSH1 0x40 MLOAD PUSH2 0x441 SWAP2 SWAP1 PUSH2 0x411F JUMP JUMPDEST CALLVALUE DUP1 ISZERO PUSH2 0x4DD JUMPI PUSH1 0x0 DUP1 REVERT JUMPDEST POP PUSH2 0x4F1 PUSH2 0x4EC CALLDATASIZE PUSH1 0x4 PUSH2 0x4163 JUMP JUMPDEST PUSH2 0xF11 JUMP JUMPDEST STOP JUMPDEST CALLVALUE DUP1 ISZERO PUSH2 0x4FF JUMPI PUSH1 0x0 DUP1 REVERT JUMPDEST POP PUSH2 0x4F1 PUSH2 0x50E CALLDATASIZE PUSH1 0x4 PUSH2 0x40D4 JUMP JUMPDEST PUSH2 0x1027 JUMP JUMPDEST CALLVALUE DUP1 ISZERO PUSH2 0x51F JUMPI PUSH1 0x0 DUP1 REVERT JUMPDEST POP PUSH2 0x4F1 PUSH2 0x52E CALLDATASIZE PUSH1 0x4 PUSH2 0x40D4 JUMP JUMPDEST PUSH2 0x12E6 JUMP JUMPDEST CALLVALUE DUP1 ISZERO PUSH2 0x53F JUMPI PUSH1 0x0 DUP1 REVERT JUMPDEST POP PUSH2 0x54A PUSH2 0x138 SLOAD DUP2 JUMP JUMPDEST PUSH1 0x40 MLOAD SWAP1 DUP2 MSTORE PUSH1 0x20 ADD PUSH2 0x441 JUMP JUMPDEST CALLVALUE DUP1 ISZERO PUSH2 0x564 JUMPI PUSH1 0x0 DUP1 REVERT JUMPDEST POP PUSH2 0x4F1 PUSH2 0x573 CALLDATASIZE PUSH1 0x4 PUSH2 0x419D JUMP JUMPDEST PUSH2 0x135E JUMP JUMPDEST CALLVALUE DUP1 ISZERO PUSH2 0x584 JUMPI PUSH1 0x0 DUP1 REVERT JUMPDEST POP PUSH1 0xCB SLOAD PUSH2 0x54A JUMP JUMPDEST CALLVALUE DUP1 ISZERO PUSH2 0x599 JUMPI PUSH1 0x0 DUP1 REVERT JUMPDEST POP PUSH2 0x54A PUSH2 0x143 SLOAD DUP2 JUMP JUMPDEST CALLVALUE DUP1 ISZERO PUSH2 0x5B0 JUMPI PUSH1 0x0 DUP1 REVERT JUMPDEST POP PUSH2 0x54A PUSH2 0x145 SLOAD DUP2 JUMP JUMPDEST CALLVALUE DUP1 ISZERO PUSH2 0x5C7 JUMPI PUSH1 0x0 DUP1 REVERT JUMPDEST POP PUSH2 0x54A PUSH2 0x136 SLOAD DUP2 JUMP JUMPDEST CALLVALUE DUP1 ISZERO PUSH2 0x5DE JUMPI PUSH1 0x0 DUP1 REVERT JUMPDEST POP PUSH2 0x12F SLOAD PUSH2 0x48C SWAP1 PUSH1 0x1 PUSH1 0x1 PUSH1 0xA0 SHL SUB AND DUP2 JUMP JUMPDEST CALLVALUE DUP1 ISZERO PUSH2 0x5FF JUMPI PUSH1 0x0 DUP1 REVERT JUMPDEST POP PUSH2 0x4F1 PUSH2 0x60E CALLDATASIZE PUSH1 0x4 PUSH2 0x41BA JUMP JUMPDEST PUSH2 0x13AA JUMP JUMPDEST CALLVALUE DUP1 ISZERO PUSH2 0x61F JUMPI PUSH1 0x0 DUP1 REVERT JUMPDEST POP PUSH2 0x54A PUSH2 0x137 SLOAD DUP2 JUMP JUMPDEST CALLVALUE DUP1 ISZERO PUSH2 0x636 JUMPI PUSH1 0x0 DUP1 REVERT JUMPDEST POP PUSH2 0x54A PUSH2 0x645 CALLDATASIZE PUSH1 0x4 PUSH2 0x4163 JUMP JUMPDEST PUSH2 0x13DB JUMP JUMPDEST CALLVALUE DUP1 ISZERO PUSH2 0x656 JUMPI PUSH1 0x0 DUP1 REVERT JUMPDEST POP PUSH2 0x54A PUSH2 0x141 SLOAD DUP2 JUMP JUMPDEST CALLVALUE DUP1 ISZERO PUSH2 0x66D JUMPI PUSH1 0x0 DUP1 REVERT JUMPDEST POP PUSH2 0x54A PUSH2 0x135 SLOAD DUP2 JUMP JUMPDEST CALLVALUE DUP1 ISZERO PUSH2 0x684 JUMPI PUSH1 0x0 DUP1 REVERT JUMPDEST POP PUSH2 0x132 SLOAD PUSH2 0x435 SWAP1 PUSH1 0x1 PUSH1 0xA8 SHL SWAP1 DIV PUSH1 0xFF AND DUP2 JUMP JUMPDEST CALLVALUE DUP1 ISZERO PUSH2 0x6A6 JUMPI PUSH1 0x0 DUP1 REVERT JUMPDEST POP PUSH2 0x4F1 PUSH2 0x6B5 CALLDATASIZE PUSH1 0x4 PUSH2 0x40D4 JUMP JUMPDEST PUSH2 0x1471 JUMP JUMPDEST CALLVALUE DUP1 ISZERO PUSH2 0x6C6 JUMPI PUSH1 0x0 DUP1 REVERT JUMPDEST POP PUSH2 0x4F1 PUSH2 0x6D5 CALLDATASIZE PUSH1 0x4 PUSH2 0x41BA JUMP JUMPDEST PUSH2 0x181C JUMP JUMPDEST CALLVALUE DUP1 ISZERO PUSH2 0x6E6 JUMPI PUSH1 0x0 DUP1 REVERT JUMPDEST POP PUSH2 0x4F1 PUSH2 0x6F5 CALLDATASIZE PUSH1 0x4 PUSH2 0x41FB JUMP JUMPDEST PUSH2 0x1837 JUMP JUMPDEST CALLVALUE DUP1 ISZERO PUSH2 0x706 JUMPI PUSH1 0x0 DUP1 REVERT JUMPDEST POP PUSH2 0x54A PUSH2 0x715 CALLDATASIZE PUSH1 0x4 PUSH2 0x40D4 JUMP JUMPDEST PUSH2 0x1A62 JUMP JUMPDEST CALLVALUE DUP1 ISZERO PUSH2 0x726 JUMPI PUSH1 0x0 DUP1 REVERT JUMPDEST POP PUSH2 0x4F1 PUSH2 0x735 CALLDATASIZE PUSH1 0x4 PUSH2 0x421D JUMP JUMPDEST PUSH2 0x1AF5 JUMP JUMPDEST CALLVALUE DUP1 ISZERO PUSH2 0x746 JUMPI PUSH1 0x0 DUP1 REVERT JUMPDEST POP PUSH2 0x132 SLOAD PUSH2 0x435 SWAP1 PUSH1 0x1 PUSH1 0xA0 SHL SWAP1 DIV PUSH1 0xFF AND DUP2 JUMP JUMPDEST CALLVALUE DUP1 ISZERO PUSH2 0x768 JUMPI PUSH1 0x0 DUP1 REVERT JUMPDEST POP PUSH2 0x77C PUSH2 0x777 CALLDATASIZE PUSH1 0x4 PUSH2 0x40D4 JUMP JUMPDEST PUSH2 0x1B64 JUMP JUMPDEST PUSH1 0x40 DUP1 MLOAD SWAP3 DUP4 MSTORE PUSH1 0x20 DUP4 ADD SWAP2 SWAP1 SWAP2 MSTORE ADD PUSH2 0x441 JUMP JUMPDEST CALLVALUE DUP1 ISZERO PUSH2 0x79D JUMPI PUSH1 0x0 DUP1 REVERT JUMPDEST POP PUSH2 0x48C PUSH2 0x7AC CALLDATASIZE PUSH1 0x4 PUSH2 0x40D4 JUMP JUMPDEST PUSH2 0x1BE3 JUMP JUMPDEST CALLVALUE DUP1 ISZERO PUSH2 0x7BD JUMPI PUSH1 0x0 DUP1 REVERT JUMPDEST POP PUSH2 0x54A PUSH2 0x13C SLOAD DUP2 JUMP JUMPDEST CALLVALUE DUP1 ISZERO PUSH2 0x7D4 JUMPI PUSH1 0x0 DUP1 REVERT JUMPDEST POP PUSH2 0x4F1 PUSH2 0x7E3 CALLDATASIZE PUSH1 0x4 PUSH2 0x4102 JUMP JUMPDEST PUSH2 0x1C5A JUMP JUMPDEST CALLVALUE DUP1 ISZERO PUSH2 0x7F4 JUMPI PUSH1 0x0 DUP1 REVERT JUMPDEST POP PUSH2 0x4F1 PUSH2 0x803 CALLDATASIZE PUSH1 0x4 PUSH2 0x4102 JUMP JUMPDEST PUSH2 0x1CAA JUMP JUMPDEST CALLVALUE DUP1 ISZERO PUSH2 0x814 JUMPI PUSH1 0x0 DUP1 REVERT JUMPDEST POP PUSH2 0x54A PUSH2 0x823 CALLDATASIZE PUSH1 0x4 PUSH2 0x4102 JUMP JUMPDEST PUSH2 0x1CF7 JUMP JUMPDEST CALLVALUE DUP1 ISZERO PUSH2 0x834 JUMPI PUSH1 0x0 DUP1 REVERT JUMPDEST POP PUSH2 0x4F1 PUSH2 0x1D7E JUMP JUMPDEST CALLVALUE DUP1 ISZERO PUSH2 0x849 JUMPI PUSH1 0x0 DUP1 REVERT JUMPDEST POP PUSH2 0x54A PUSH2 0x144 SLOAD DUP2 JUMP JUMPDEST CALLVALUE DUP1 ISZERO PUSH2 0x860 JUMPI PUSH1 0x0 DUP1 REVERT JUMPDEST POP PUSH2 0x4F1 PUSH2 0x1DB4 JUMP JUMPDEST CALLVALUE DUP1 ISZERO PUSH2 0x875 JUMPI PUSH1 0x0 DUP1 REVERT JUMPDEST POP PUSH2 0x4C4 PUSH2 0x884 CALLDATASIZE PUSH1 0x4 PUSH2 0x4102 JUMP JUMPDEST PUSH2 0x1FA2 JUMP JUMPDEST CALLVALUE DUP1 ISZERO PUSH2 0x895 JUMPI PUSH1 0x0 DUP1 REVERT JUMPDEST POP PUSH2 0x8EC PUSH2 0x8A4 CALLDATASIZE PUSH1 0x4 PUSH2 0x40D4 JUMP JUMPDEST PUSH2 0x148 PUSH1 0x20 MSTORE PUSH1 0x0 SWAP1 DUP2 MSTORE PUSH1 0x40 SWAP1 KECCAK256 DUP1 SLOAD PUSH1 0x1 DUP3 ADD SLOAD PUSH1 0x2 DUP4 ADD SLOAD PUSH1 0x3 DUP5 ADD SLOAD PUSH1 0x4 DUP6 ADD SLOAD PUSH1 0x5 DUP7 ADD SLOAD PUSH1 0x6 DUP8 ADD SLOAD PUSH1 0x7 SWAP1 SWAP8 ADD SLOAD PUSH1 0xFF SWAP1 SWAP7 AND SWAP7 SWAP5 SWAP6 SWAP4 SWAP5 SWAP3 SWAP4 SWAP2 SWAP3 SWAP1 SWAP2 DUP9 JUMP JUMPDEST PUSH1 0x40 DUP1 MLOAD SWAP9 ISZERO ISZERO DUP10 MSTORE PUSH1 0x20 DUP10 ADD SWAP8 SWAP1 SWAP8 MSTORE SWAP6 DUP8 ADD SWAP5 SWAP1 SWAP5 MSTORE PUSH1 0x60 DUP7 ADD SWAP3 SWAP1 SWAP3 MSTORE PUSH1 0x80 DUP6 ADD MSTORE PUSH1 0xA0 DUP5 ADD MSTORE PUSH1 0xC0 DUP4 ADD MSTORE PUSH1 0xE0 DUP3 ADD MSTORE PUSH2 0x100 ADD PUSH2 0x441 JUMP JUMPDEST CALLVALUE DUP1 ISZERO PUSH2 0x935 JUMPI PUSH1 0x0 DUP1 REVERT JUMPDEST POP PUSH2 0x54A PUSH2 0x13D SLOAD DUP2 JUMP JUMPDEST CALLVALUE DUP1 ISZERO PUSH2 0x94C JUMPI PUSH1 0x0 DUP1 REVERT JUMPDEST POP PUSH1 0x97 SLOAD PUSH1 0x1 PUSH1 0x1 PUSH1 0xA0 SHL SUB AND PUSH2 0x48C JUMP JUMPDEST CALLVALUE DUP1 ISZERO PUSH2 0x96A JUMPI PUSH1 0x0 DUP1 REVERT JUMPDEST POP PUSH2 0x54A PUSH2 0x134 SLOAD DUP2 JUMP JUMPDEST CALLVALUE DUP1 ISZERO PUSH2 0x981 JUMPI PUSH1 0x0 DUP1 REVERT JUMPDEST POP PUSH2 0x48C PUSH2 0x990 CALLDATASIZE PUSH1 0x4 PUSH2 0x40D4 JUMP JUMPDEST PUSH2 0x147 PUSH1 0x20 MSTORE PUSH1 0x0 SWAP1 DUP2 MSTORE PUSH1 0x40 SWAP1 KECCAK256 SLOAD PUSH1 0x1 PUSH1 0x1 PUSH1 0xA0 SHL SUB AND DUP2 JUMP JUMPDEST CALLVALUE DUP1 ISZERO PUSH2 0x9B8 JUMPI PUSH1 0x0 DUP1 REVERT JUMPDEST POP PUSH2 0x45F PUSH2 0x2042 JUMP JUMPDEST CALLVALUE DUP1 ISZERO PUSH2 0x9CD JUMPI PUSH1 0x0 DUP1 REVERT JUMPDEST POP PUSH2 0x4F1 PUSH2 0x9DC CALLDATASIZE PUSH1 0x4 PUSH2 0x419D JUMP JUMPDEST PUSH2 0x2051 JUMP JUMPDEST CALLVALUE DUP1 ISZERO PUSH2 0x9ED JUMPI PUSH1 0x0 DUP1 REVERT JUMPDEST POP PUSH2 0x130 SLOAD PUSH2 0x48C SWAP1 PUSH1 0x1 PUSH1 0x1 PUSH1 0xA0 SHL SUB AND DUP2 JUMP JUMPDEST CALLVALUE DUP1 ISZERO PUSH2 0xA0E JUMPI PUSH1 0x0 DUP1 REVERT JUMPDEST POP PUSH2 0x4F1 PUSH2 0xA1D CALLDATASIZE PUSH1 0x4 PUSH2 0x41FB JUMP JUMPDEST PUSH2 0x209D JUMP JUMPDEST CALLVALUE DUP1 ISZERO PUSH2 0xA2E JUMPI PUSH1 0x0 DUP1 REVERT JUMPDEST POP PUSH2 0x4F1 PUSH2 0xA3D CALLDATASIZE PUSH1 0x4 PUSH2 0x4307 JUMP JUMPDEST PUSH2 0x2139 JUMP JUMPDEST CALLVALUE DUP1 ISZERO PUSH2 0xA4E JUMPI PUSH1 0x0 DUP1 REVERT JUMPDEST POP PUSH2 0x4F1 PUSH2 0xA5D CALLDATASIZE PUSH1 0x4 PUSH2 0x40D4 JUMP JUMPDEST PUSH2 0x217E JUMP JUMPDEST PUSH2 0x4F1 PUSH2 0xA70 CALLDATASIZE PUSH1 0x4 PUSH2 0x40D4 JUMP JUMPDEST PUSH2 0x2367 JUMP JUMPDEST CALLVALUE DUP1 ISZERO PUSH2 0xA81 JUMPI PUSH1 0x0 DUP1 REVERT JUMPDEST POP PUSH2 0x4F1 PUSH2 0xA90 CALLDATASIZE PUSH1 0x4 PUSH2 0x4350 JUMP JUMPDEST PUSH2 0x27A9 JUMP JUMPDEST CALLVALUE DUP1 ISZERO PUSH2 0xAA1 JUMPI PUSH1 0x0 DUP1 REVERT JUMPDEST POP PUSH2 0x4F1 PUSH2 0xAB0 CALLDATASIZE PUSH1 0x4 PUSH2 0x4389 JUMP JUMPDEST PUSH2 0x27B4 JUMP JUMPDEST CALLVALUE DUP1 ISZERO PUSH2 0xAC1 JUMPI PUSH1 0x0 DUP1 REVERT JUMPDEST POP PUSH2 0x4F1 PUSH2 0xAD0 CALLDATASIZE PUSH1 0x4 PUSH2 0x40D4 JUMP JUMPDEST PUSH2 0x27F2 JUMP JUMPDEST CALLVALUE DUP1 ISZERO PUSH2 0xAE1 JUMPI PUSH1 0x0 DUP1 REVERT JUMPDEST POP PUSH2 0x54A PUSH2 0x139 SLOAD DUP2 JUMP JUMPDEST CALLVALUE DUP1 ISZERO PUSH2 0xAF8 JUMPI PUSH1 0x0 DUP1 REVERT JUMPDEST POP PUSH2 0x4F1 PUSH2 0xB07 CALLDATASIZE PUSH1 0x4 PUSH2 0x43B5 JUMP JUMPDEST PUSH2 0x2825 JUMP JUMPDEST CALLVALUE DUP1 ISZERO PUSH2 0xB18 JUMPI PUSH1 0x0 DUP1 REVERT JUMPDEST POP PUSH2 0x12E SLOAD PUSH2 0x48C SWAP1 PUSH1 0x1 PUSH1 0x1 PUSH1 0xA0 SHL SUB AND DUP2 JUMP JUMPDEST CALLVALUE DUP1 ISZERO PUSH2 0xB39 JUMPI PUSH1 0x0 DUP1 REVERT JUMPDEST POP PUSH2 0xB4D PUSH2 0xB48 CALLDATASIZE PUSH1 0x4 PUSH2 0x40D4 JUMP JUMPDEST PUSH2 0x285D JUMP JUMPDEST PUSH1 0x40 DUP1 MLOAD SWAP6 DUP7 MSTORE PUSH1 0x20 DUP7 ADD SWAP5 SWAP1 SWAP5 MSTORE SWAP3 DUP5 ADD SWAP2 SWAP1 SWAP2 MSTORE ISZERO ISZERO PUSH1 0x60 DUP4 ADD MSTORE ISZERO ISZERO PUSH1 0x80 DUP3 ADD MSTORE PUSH1 0xA0 ADD PUSH2 0x441 JUMP JUMPDEST CALLVALUE DUP1 ISZERO PUSH2 0xB85 JUMPI PUSH1 0x0 DUP1 REVERT JUMPDEST POP PUSH2 0x4F1 PUSH2 0xB94 CALLDATASIZE PUSH1 0x4 PUSH2 0x41FB JUMP JUMPDEST PUSH2 0x2947 JUMP JUMPDEST CALLVALUE DUP1 ISZERO PUSH2 0xBA5 JUMPI PUSH1 0x0 DUP1 REVERT JUMPDEST POP PUSH2 0x4F1 PUSH2 0xBB4 CALLDATASIZE PUSH1 0x4 PUSH2 0x4435 JUMP JUMPDEST PUSH2 0x297E JUMP JUMPDEST CALLVALUE DUP1 ISZERO PUSH2 0xBC5 JUMPI PUSH1 0x0 DUP1 REVERT JUMPDEST POP PUSH2 0x54A PUSH2 0x13B SLOAD DUP2 JUMP JUMPDEST CALLVALUE DUP1 ISZERO PUSH2 0xBDC JUMPI PUSH1 0x0 DUP1 REVERT JUMPDEST POP PUSH2 0x45F PUSH2 0xBEB CALLDATASIZE PUSH1 0x4 PUSH2 0x40D4 JUMP JUMPDEST PUSH2 0x29C3 JUMP JUMPDEST CALLVALUE DUP1 ISZERO PUSH2 0xBFC JUMPI PUSH1 0x0 DUP1 REVERT JUMPDEST POP PUSH2 0x4F1 PUSH2 0xC0B CALLDATASIZE PUSH1 0x4 PUSH2 0x44E7 JUMP JUMPDEST PUSH2 0x2AA2 JUMP JUMPDEST CALLVALUE DUP1 ISZERO PUSH2 0xC1C JUMPI PUSH1 0x0 DUP1 REVERT JUMPDEST POP PUSH2 0x435 PUSH2 0xC2B CALLDATASIZE PUSH1 0x4 PUSH2 0x454B JUMP JUMPDEST PUSH1 0x1 PUSH1 0x1 PUSH1 0xA0 SHL SUB SWAP2 DUP3 AND PUSH1 0x0 SWAP1 DUP2 MSTORE PUSH1 0x6A PUSH1 0x20 SWAP1 DUP2 MSTORE PUSH1 0x40 DUP1 DUP4 KECCAK256 SWAP4 SWAP1 SWAP5 AND DUP3 MSTORE SWAP2 SWAP1 SWAP2 MSTORE KECCAK256 SLOAD PUSH1 0xFF AND SWAP1 JUMP JUMPDEST CALLVALUE DUP1 ISZERO PUSH2 0xC65 JUMPI PUSH1 0x0 DUP1 REVERT JUMPDEST POP PUSH2 0x4F1 PUSH2 0xC74 CALLDATASIZE PUSH1 0x4 PUSH2 0x40D4 JUMP JUMPDEST PUSH2 0x2B6E JUMP JUMPDEST CALLVALUE DUP1 ISZERO PUSH2 0xC85 JUMPI PUSH1 0x0 DUP1 REVERT JUMPDEST POP PUSH2 0x54A PUSH2 0x13A SLOAD DUP2 JUMP JUMPDEST CALLVALUE DUP1 ISZERO PUSH2 0xC9C JUMPI PUSH1 0x0 DUP1 REVERT JUMPDEST POP PUSH2 0x4F1 PUSH2 0xCAB CALLDATASIZE PUSH1 0x4 PUSH2 0x4579 JUMP JUMPDEST PUSH2 0x2EC3 JUMP JUMPDEST CALLVALUE DUP1 ISZERO PUSH2 0xCBC JUMPI PUSH1 0x0 DUP1 REVERT JUMPDEST POP PUSH2 0x4F1 PUSH2 0xCCB CALLDATASIZE PUSH1 0x4 PUSH2 0x4102 JUMP JUMPDEST PUSH2 0x2FC3 JUMP JUMPDEST CALLVALUE DUP1 ISZERO PUSH2 0xCDC JUMPI PUSH1 0x0 DUP1 REVERT JUMPDEST POP PUSH2 0x4F1 PUSH2 0xCEB CALLDATASIZE PUSH1 0x4 PUSH2 0x41FB JUMP JUMPDEST PUSH2 0x305B JUMP JUMPDEST CALLVALUE DUP1 ISZERO PUSH2 0xCFC JUMPI PUSH1 0x0 DUP1 REVERT JUMPDEST POP PUSH2 0x4F1 PUSH2 0xD0B CALLDATASIZE PUSH1 0x4 PUSH2 0x4102 JUMP JUMPDEST PUSH2 0x3095 JUMP JUMPDEST CALLVALUE DUP1 ISZERO PUSH2 0xD1C JUMPI PUSH1 0x0 DUP1 REVERT JUMPDEST POP PUSH2 0x131 SLOAD PUSH2 0x48C SWAP1 PUSH1 0x1 PUSH1 0x1 PUSH1 0xA0 SHL SUB AND DUP2 JUMP JUMPDEST CALLVALUE DUP1 ISZERO PUSH2 0xD3D JUMPI PUSH1 0x0 DUP1 REVERT JUMPDEST POP PUSH2 0x4F1 PUSH2 0x30E5 JUMP JUMPDEST CALLVALUE DUP1 ISZERO PUSH2 0xD52 JUMPI PUSH1 0x0 DUP1 REVERT JUMPDEST POP PUSH2 0x12D SLOAD PUSH2 0x48C SWAP1 PUSH1 0x1 PUSH1 0x1 PUSH1 0xA0 SHL SUB AND DUP2 JUMP JUMPDEST PUSH1 0x0 PUSH2 0xD72 DUP3 PUSH2 0x314F JUMP JUMPDEST SWAP3 SWAP2 POP POP JUMP JUMPDEST PUSH1 0x60 PUSH1 0x65 DUP1 SLOAD PUSH2 0xD87 SWAP1 PUSH2 0x459E JUMP JUMPDEST DUP1 PUSH1 0x1F ADD PUSH1 0x20 DUP1 SWAP2 DIV MUL PUSH1 0x20 ADD PUSH1 0x40 MLOAD SWAP1 DUP2 ADD PUSH1 0x40 MSTORE DUP1 SWAP3 SWAP2 SWAP1 DUP2 DUP2 MSTORE PUSH1 0x20 ADD DUP3 DUP1 SLOAD PUSH2 0xDB3 SWAP1 PUSH2 0x459E JUMP JUMPDEST DUP1 ISZERO PUSH2 0xE00 JUMPI DUP1 PUSH1 0x1F LT PUSH2 0xDD5 JUMPI PUSH2 0x100 DUP1 DUP4 SLOAD DIV MUL DUP4 MSTORE SWAP2 PUSH1 0x20 ADD SWAP2 PUSH2 0xE00 JUMP JUMPDEST DUP3 ADD SWAP2 SWAP1 PUSH1 0x0 MSTORE PUSH1 0x20 PUSH1 0x0 KECCAK256 SWAP1 JUMPDEST DUP2 SLOAD DUP2 MSTORE SWAP1 PUSH1 0x1 ADD SWAP1 PUSH1 0x20 ADD DUP1 DUP4 GT PUSH2 0xDE3 JUMPI DUP3 SWAP1 SUB PUSH1 0x1F AND DUP3 ADD SWAP2 JUMPDEST POP POP POP POP POP SWAP1 POP SWAP1 JUMP JUMPDEST PUSH1 0x0 DUP2 DUP2 MSTORE PUSH1 0x67 PUSH1 0x20 MSTORE PUSH1 0x40 DUP2 KECCAK256 SLOAD PUSH1 0x1 PUSH1 0x1 PUSH1 0xA0 SHL SUB AND PUSH2 0xE88 JUMPI PUSH1 0x40 MLOAD PUSH3 0x461BCD PUSH1 0xE5 SHL DUP2 MSTORE PUSH1 0x20 PUSH1 0x4 DUP3 ADD MSTORE PUSH1 0x2C PUSH1 0x24 DUP3 ADD MSTORE PUSH32 0x4552433732313A20617070726F76656420717565727920666F72206E6F6E6578 PUSH1 0x44 DUP3 ADD MSTORE PUSH12 0x34B9BA32B73A103A37B5B2B7 PUSH1 0xA1 SHL PUSH1 0x64 DUP3 ADD MSTORE PUSH1 0x84 ADD JUMPDEST PUSH1 0x40 MLOAD DUP1 SWAP2 SUB SWAP1 REVERT JUMPDEST POP PUSH1 0x0 SWAP1 DUP2 MSTORE PUSH1 0x69 PUSH1 0x20 MSTORE PUSH1 0x40 SWAP1 KECCAK256 SLOAD PUSH1 0x1 PUSH1 0x1 PUSH1 0xA0 SHL SUB AND SWAP1 JUMP JUMPDEST PUSH1 0x1 PUSH1 0x1 PUSH1 0xA0 SHL SUB DUP2 AND PUSH1 0x0 SWAP1 DUP2 MSTORE PUSH2 0x146 PUSH1 0x20 SWAP1 DUP2 MSTORE PUSH1 0x40 SWAP2 DUP3 SWAP1 KECCAK256 DUP1 SLOAD DUP4 MLOAD DUP2 DUP5 MUL DUP2 ADD DUP5 ADD SWAP1 SWAP5 MSTORE DUP1 DUP5 MSTORE PUSH1 0x60 SWAP4 SWAP3 DUP4 ADD DUP3 DUP3 DUP1 ISZERO PUSH2 0xF05 JUMPI PUSH1 0x20 MUL DUP3 ADD SWAP2 SWAP1 PUSH1 0x0 MSTORE PUSH1 0x20 PUSH1 0x0 KECCAK256 SWAP1 JUMPDEST DUP2 SLOAD DUP2 MSTORE PUSH1 0x20 ADD SWAP1 PUSH1 0x1 ADD SWAP1 DUP1 DUP4 GT PUSH2 0xEF1 JUMPI JUMPDEST POP POP POP POP POP SWAP1 POP SWAP2 SWAP1 POP JUMP JUMPDEST PUSH1 0x0 PUSH2 0xF1C DUP3 PUSH2 0x1BE3 JUMP JUMPDEST SWAP1 POP DUP1 PUSH1 0x1 PUSH1 0x1 PUSH1 0xA0 SHL SUB AND DUP4 PUSH1 0x1 PUSH1 0x1 PUSH1 0xA0 SHL SUB AND EQ ISZERO PUSH2 0xF8A JUMPI PUSH1 0x40 MLOAD PUSH3 0x461BCD PUSH1 0xE5 SHL DUP2 MSTORE PUSH1 0x20 PUSH1 0x4 DUP3 ADD MSTORE PUSH1 0x21 PUSH1 0x24 DUP3 ADD MSTORE PUSH32 0x4552433732313A20617070726F76616C20746F2063757272656E74206F776E65 PUSH1 0x44 DUP3 ADD MSTORE PUSH1 0x39 PUSH1 0xF9 SHL PUSH1 0x64 DUP3 ADD MSTORE PUSH1 0x84 ADD PUSH2 0xE7F JUMP JUMPDEST CALLER PUSH1 0x1 PUSH1 0x1 PUSH1 0xA0 SHL SUB DUP3 AND EQ DUP1 PUSH2 0xFA6 JUMPI POP PUSH2 0xFA6 DUP2 CALLER PUSH2 0xC2B JUMP JUMPDEST PUSH2 0x1018 JUMPI PUSH1 0x40 MLOAD PUSH3 0x461BCD PUSH1 0xE5 SHL DUP2 MSTORE PUSH1 0x20 PUSH1 0x4 DUP3 ADD MSTORE PUSH1 0x38 PUSH1 0x24 DUP3 ADD MSTORE PUSH32 0x4552433732313A20617070726F76652063616C6C6572206973206E6F74206F77 PUSH1 0x44 DUP3 ADD MSTORE PUSH32 0x6E6572206E6F7220617070726F76656420666F7220616C6C0000000000000000 PUSH1 0x64 DUP3 ADD MSTORE PUSH1 0x84 ADD PUSH2 0xE7F JUMP JUMPDEST PUSH2 0x1022 DUP4 DUP4 PUSH2 0x3174 JUMP JUMPDEST POP POP POP JUMP JUMPDEST PUSH1 0x2 PUSH1 0xFB SLOAD EQ ISZERO PUSH2 0x104A JUMPI PUSH1 0x40 MLOAD PUSH3 0x461BCD PUSH1 0xE5 SHL DUP2 MSTORE PUSH1 0x4 ADD PUSH2 0xE7F SWAP1 PUSH2 0x45D9 JUMP JUMPDEST PUSH1 0x2 PUSH1 0xFB SSTORE PUSH2 0x1058 DUP2 PUSH2 0x1BE3 JUMP JUMPDEST PUSH1 0x1 PUSH1 0x1 PUSH1 0xA0 SHL SUB AND CALLER PUSH1 0x1 PUSH1 0x1 PUSH1 0xA0 SHL SUB AND EQ PUSH2 0x10B8 JUMPI PUSH1 0x40 MLOAD PUSH3 0x461BCD PUSH1 0xE5 SHL DUP2 MSTORE PUSH1 0x20 PUSH1 0x4 DUP3 ADD MSTORE PUSH1 0x19 PUSH1 0x24 DUP3 ADD MSTORE PUSH32 0x596F7520646F6E2774206F776E2074686973206172656E612100000000000000 PUSH1 0x44 DUP3 ADD MSTORE PUSH1 0x64 ADD PUSH2 0xE7F JUMP JUMPDEST PUSH1 0x0 DUP2 DUP2 MSTORE PUSH2 0x148 PUSH1 0x20 MSTORE PUSH1 0x40 DUP2 KECCAK256 PUSH1 0x6 ADD SLOAD PUSH2 0x10D4 DUP4 PUSH2 0x31E2 JUMP JUMPDEST PUSH2 0x10DE SWAP2 SWAP1 PUSH2 0x4626 JUMP JUMPDEST SWAP1 POP PUSH1 0x0 DUP2 GT PUSH2 0x1130 JUMPI PUSH1 0x40 MLOAD PUSH3 0x461BCD PUSH1 0xE5 SHL DUP2 MSTORE PUSH1 0x20 PUSH1 0x4 DUP3 ADD MSTORE PUSH1 0x1C PUSH1 0x24 DUP3 ADD MSTORE PUSH32 0x596F752068617665206E6F207265776172647320746F20636C61696D00000000 PUSH1 0x44 DUP3 ADD MSTORE PUSH1 0x64 ADD PUSH2 0xE7F JUMP JUMPDEST PUSH2 0x132 SLOAD PUSH1 0x1 PUSH1 0xA8 SHL SWAP1 DIV PUSH1 0xFF AND ISZERO PUSH2 0x124A JUMPI PUSH1 0x0 DUP3 DUP2 MSTORE PUSH2 0x148 PUSH1 0x20 MSTORE PUSH1 0x40 DUP2 KECCAK256 PUSH1 0x7 ADD SLOAD PUSH2 0x115F DUP5 PUSH2 0x3265 JUMP JUMPDEST PUSH2 0x1169 SWAP2 SWAP1 PUSH2 0x4626 JUMP JUMPDEST SWAP1 POP PUSH1 0x0 DUP2 GT PUSH2 0x11BB JUMPI PUSH1 0x40 MLOAD PUSH3 0x461BCD PUSH1 0xE5 SHL DUP2 MSTORE PUSH1 0x20 PUSH1 0x4 DUP3 ADD MSTORE PUSH1 0x1C PUSH1 0x24 DUP3 ADD MSTORE PUSH32 0x596F752068617665206E6F207265776172647320746F20636C61696D00000000 PUSH1 0x44 DUP3 ADD MSTORE PUSH1 0x64 ADD PUSH2 0xE7F JUMP JUMPDEST PUSH1 0x0 DUP4 DUP2 MSTORE PUSH2 0x148 PUSH1 0x20 MSTORE PUSH1 0x40 DUP1 DUP3 KECCAK256 PUSH1 0x7 ADD SWAP2 SWAP1 SWAP2 SSTORE PUSH2 0x130 SLOAD SWAP1 MLOAD PUSH4 0xA9059CBB PUSH1 0xE0 SHL DUP2 MSTORE CALLER PUSH1 0x4 DUP3 ADD MSTORE PUSH1 0x24 DUP2 ADD DUP4 SWAP1 MSTORE PUSH1 0x1 PUSH1 0x1 PUSH1 0xA0 SHL SUB SWAP1 SWAP2 AND SWAP1 PUSH4 0xA9059CBB SWAP1 PUSH1 0x44 ADD PUSH1 0x20 PUSH1 0x40 MLOAD DUP1 DUP4 SUB DUP2 PUSH1 0x0 DUP8 GAS CALL ISZERO DUP1 ISZERO PUSH2 0x1223 JUMPI RETURNDATASIZE PUSH1 0x0 DUP1 RETURNDATACOPY RETURNDATASIZE PUSH1 0x0 REVERT JUMPDEST POP POP POP POP PUSH1 0x40 MLOAD RETURNDATASIZE PUSH1 0x1F NOT PUSH1 0x1F DUP3 ADD AND DUP3 ADD DUP1 PUSH1 0x40 MSTORE POP DUP2 ADD SWAP1 PUSH2 0x1247 SWAP2 SWAP1 PUSH2 0x463E JUMP JUMPDEST POP POP JUMPDEST PUSH1 0x0 DUP3 DUP2 MSTORE PUSH2 0x148 PUSH1 0x20 MSTORE PUSH1 0x40 DUP1 DUP3 KECCAK256 TIMESTAMP PUSH1 0x5 DUP3 ADD SSTORE PUSH1 0x6 ADD SWAP2 SWAP1 SWAP2 SSTORE PUSH2 0x12F SLOAD SWAP1 MLOAD PUSH4 0xA9059CBB PUSH1 0xE0 SHL DUP2 MSTORE CALLER PUSH1 0x4 DUP3 ADD MSTORE PUSH1 0x24 DUP2 ADD DUP4 SWAP1 MSTORE PUSH1 0x1 PUSH1 0x1 PUSH1 0xA0 SHL SUB SWAP1 SWAP2 AND SWAP1 PUSH4 0xA9059CBB SWAP1 PUSH1 0x44 ADD PUSH1 0x20 PUSH1 0x40 MLOAD DUP1 DUP4 SUB DUP2 PUSH1 0x0 DUP8 GAS CALL ISZERO DUP1 ISZERO PUSH2 0x12B8 JUMPI RETURNDATASIZE PUSH1 0x0 DUP1 RETURNDATACOPY RETURNDATASIZE PUSH1 0x0 REVERT JUMPDEST POP POP POP POP PUSH1 0x40 MLOAD RETURNDATASIZE PUSH1 0x1F NOT PUSH1 0x1F DUP3 ADD AND DUP3 ADD DUP1 PUSH1 0x40 MSTORE POP DUP2 ADD SWAP1 PUSH2 0x12DC SWAP2 SWAP1 PUSH2 0x463E JUMP JUMPDEST POP POP PUSH1 0x1 PUSH1 0xFB SSTORE POP JUMP JUMPDEST PUSH2 0x12D SLOAD PUSH1 0x40 MLOAD PUSH4 0x852CD8D PUSH1 0xE3 SHL DUP2 MSTORE PUSH1 0x4 DUP2 ADD DUP4 SWAP1 MSTORE PUSH1 0x1 PUSH1 0x1 PUSH1 0xA0 SHL SUB SWAP1 SWAP2 AND SWAP1 PUSH4 0x42966C68 SWAP1 PUSH1 0x24 ADD PUSH1 0x0 PUSH1 0x40 MLOAD DUP1 DUP4 SUB DUP2 PUSH1 0x0 DUP8 DUP1 EXTCODESIZE ISZERO DUP1 ISZERO PUSH2 0x132D JUMPI PUSH1 0x0 DUP1 REVERT JUMPDEST POP GAS CALL ISZERO DUP1 ISZERO PUSH2 0x1341 JUMPI RETURNDATASIZE PUSH1 0x0 DUP1 RETURNDATACOPY RETURNDATASIZE PUSH1 0x0 REVERT JUMPDEST POP POP POP POP PUSH2 0x135B CALLER DUP3 PUSH1 0x1 PUSH2 0x1356 SWAP2 SWAP1 PUSH2 0x4626 JUMP JUMPDEST PUSH2 0x32C2 JUMP JUMPDEST POP JUMP JUMPDEST PUSH1 0x97 SLOAD PUSH1 0x1 PUSH1 0x1 PUSH1 0xA0 SHL SUB AND CALLER EQ DUP1 PUSH2 0x1382 JUMPI POP PUSH2 0x132 SLOAD PUSH1 0x1 PUSH1 0x1 PUSH1 0xA0 SHL SUB AND CALLER EQ JUMPDEST PUSH2 0x138B JUMPI PUSH1 0x0 DUP1 REVERT JUMPDEST PUSH2 0x132 DUP1 SLOAD SWAP2 ISZERO ISZERO PUSH1 0x1 PUSH1 0xA0 SHL MUL PUSH1 0xFF PUSH1 0xA0 SHL NOT SWAP1 SWAP3 AND SWAP2 SWAP1 SWAP2 OR SWAP1 SSTORE JUMP JUMPDEST PUSH2 0x13B4 CALLER DUP3 PUSH2 0x32DC JUMP JUMPDEST PUSH2 0x13D0 JUMPI PUSH1 0x40 MLOAD PUSH3 0x461BCD PUSH1 0xE5 SHL DUP2 MSTORE PUSH1 0x4 ADD PUSH2 0xE7F SWAP1 PUSH2 0x465B JUMP JUMPDEST PUSH2 0x1022 DUP4 DUP4 DUP4 PUSH2 0x33D3 JUMP JUMPDEST PUSH1 0x0 PUSH2 0x13E6 DUP4 PUSH2 0x1CF7 JUMP JUMPDEST DUP3 LT PUSH2 0x1448 JUMPI PUSH1 0x40 MLOAD PUSH3 0x461BCD PUSH1 0xE5 SHL DUP2 MSTORE PUSH1 0x20 PUSH1 0x4 DUP3 ADD MSTORE PUSH1 0x2B PUSH1 0x24 DUP3 ADD MSTORE PUSH32 0x455243373231456E756D657261626C653A206F776E657220696E646578206F75 PUSH1 0x44 DUP3 ADD MSTORE PUSH11 0x74206F6620626F756E6473 PUSH1 0xA8 SHL PUSH1 0x64 DUP3 ADD MSTORE PUSH1 0x84 ADD PUSH2 0xE7F JUMP JUMPDEST POP PUSH1 0x1 PUSH1 0x1 PUSH1 0xA0 SHL SUB SWAP2 SWAP1 SWAP2 AND PUSH1 0x0 SWAP1 DUP2 MSTORE PUSH1 0xC9 PUSH1 0x20 SWAP1 DUP2 MSTORE PUSH1 0x40 DUP1 DUP4 KECCAK256 SWAP4 DUP4 MSTORE SWAP3 SWAP1 MSTORE KECCAK256 SLOAD SWAP1 JUMP JUMPDEST PUSH1 0x2 PUSH1 0xFB SLOAD EQ ISZERO PUSH2 0x1494 JUMPI PUSH1 0x40 MLOAD PUSH3 0x461BCD PUSH1 0xE5 SHL DUP2 MSTORE PUSH1 0x4 ADD PUSH2 0xE7F SWAP1 PUSH2 0x45D9 JUMP JUMPDEST PUSH1 0x2 PUSH1 0xFB SSTORE CALLER PUSH2 0x14A3 DUP3 PUSH2 0x1BE3 JUMP JUMPDEST PUSH1 0x1 PUSH1 0x1 PUSH1 0xA0 SHL SUB AND EQ PUSH2 0x150E JUMPI PUSH1 0x40 MLOAD PUSH3 0x461BCD PUSH1 0xE5 SHL DUP2 MSTORE PUSH1 0x20 PUSH1 0x4 DUP3 ADD MSTORE PUSH1 0x2C PUSH1 0x24 DUP3 ADD MSTORE PUSH32 0x43616E27742075706772616465207469657220666F7220746F6B656E7320796F PUSH1 0x44 DUP3 ADD MSTORE PUSH12 0x7520646F6E2774206F776E21 PUSH1 0xA0 SHL PUSH1 0x64 DUP3 ADD MSTORE PUSH1 0x84 ADD PUSH2 0xE7F JUMP JUMPDEST PUSH1 0x0 DUP2 DUP2 MSTORE PUSH2 0x148 PUSH1 0x20 SWAP1 DUP2 MSTORE PUSH1 0x40 DUP1 DUP4 KECCAK256 DUP2 MLOAD PUSH2 0x100 DUP2 ADD DUP4 MSTORE DUP2 SLOAD PUSH1 0xFF AND ISZERO ISZERO DUP2 MSTORE PUSH1 0x1 DUP3 ADD SLOAD SWAP4 DUP2 ADD SWAP4 SWAP1 SWAP4 MSTORE PUSH1 0x2 DUP2 ADD SLOAD SWAP2 DUP4 ADD SWAP2 SWAP1 SWAP2 MSTORE PUSH1 0x3 DUP2 ADD SLOAD PUSH1 0x60 DUP4 ADD MSTORE PUSH1 0x4 DUP2 ADD SLOAD PUSH1 0x80 DUP4 ADD MSTORE PUSH1 0x5 DUP2 ADD SLOAD PUSH1 0xA0 DUP4 ADD MSTORE PUSH1 0x6 DUP2 ADD SLOAD PUSH1 0xC0 DUP4 ADD MSTORE PUSH1 0x7 ADD SLOAD PUSH1 0xE0 DUP3 ADD MSTORE SWAP1 PUSH2 0x1585 DUP4 PUSH2 0x357A JUMP JUMPDEST SWAP1 POP PUSH2 0x141 SLOAD DUP3 PUSH1 0x20 ADD MLOAD PUSH1 0x1 PUSH2 0x159C SWAP2 SWAP1 PUSH2 0x4626 JUMP JUMPDEST PUSH2 0x15A6 SWAP2 SWAP1 PUSH2 0x46AC JUMP JUMPDEST DUP2 LT ISZERO PUSH2 0x15F5 JUMPI PUSH1 0x40 MLOAD PUSH3 0x461BCD PUSH1 0xE5 SHL DUP2 MSTORE PUSH1 0x20 PUSH1 0x4 DUP3 ADD DUP2 SWAP1 MSTORE PUSH1 0x24 DUP3 ADD MSTORE PUSH32 0x4E6F74206869676820656E6F756768206C6576656C20746F2075706772616465 PUSH1 0x44 DUP3 ADD MSTORE PUSH1 0x64 ADD PUSH2 0xE7F JUMP JUMPDEST PUSH2 0x12F SLOAD PUSH1 0x20 DUP4 ADD MLOAD PUSH2 0x13B SLOAD PUSH1 0x1 PUSH1 0x1 PUSH1 0xA0 SHL SUB SWAP1 SWAP3 AND SWAP2 PUSH4 0x23B872DD SWAP2 CALLER SWAP2 ADDRESS SWAP2 PUSH2 0x1621 SWAP2 PUSH2 0x46AC JUMP JUMPDEST PUSH1 0x40 MLOAD PUSH1 0x1 PUSH1 0x1 PUSH1 0xE0 SHL SUB NOT PUSH1 0xE0 DUP7 SWAP1 SHL AND DUP2 MSTORE PUSH1 0x1 PUSH1 0x1 PUSH1 0xA0 SHL SUB SWAP4 DUP5 AND PUSH1 0x4 DUP3 ADD MSTORE SWAP3 SWAP1 SWAP2 AND PUSH1 0x24 DUP4 ADD MSTORE PUSH1 0x44 DUP3 ADD MSTORE PUSH1 0x64 ADD PUSH1 0x20 PUSH1 0x40 MLOAD DUP1 DUP4 SUB DUP2 PUSH1 0x0 DUP8 GAS CALL ISZERO DUP1 ISZERO PUSH2 0x1675 JUMPI RETURNDATASIZE PUSH1 0x0 DUP1 RETURNDATACOPY RETURNDATASIZE PUSH1 0x0 REVERT JUMPDEST POP POP POP POP PUSH1 0x40 MLOAD RETURNDATASIZE PUSH1 0x1F NOT PUSH1 0x1F DUP3 ADD AND DUP3 ADD DUP1 PUSH1 0x40 MSTORE POP DUP2 ADD SWAP1 PUSH2 0x1699 SWAP2 SWAP1 PUSH2 0x463E JUMP JUMPDEST POP PUSH2 0x16A3 DUP4 PUSH2 0x31E2 JUMP JUMPDEST DUP3 PUSH1 0xC0 ADD DUP2 DUP2 MLOAD PUSH2 0x16B4 SWAP2 SWAP1 PUSH2 0x4626 JUMP JUMPDEST SWAP1 MSTORE POP PUSH2 0x132 SLOAD PUSH1 0x1 PUSH1 0xA8 SHL SWAP1 DIV PUSH1 0xFF AND ISZERO PUSH2 0x178D JUMPI PUSH2 0x130 SLOAD PUSH1 0x20 DUP4 ADD MLOAD PUSH2 0x13C SLOAD PUSH1 0x1 PUSH1 0x1 PUSH1 0xA0 SHL SUB SWAP1 SWAP3 AND SWAP2 PUSH4 0x23B872DD SWAP2 CALLER SWAP2 ADDRESS SWAP2 PUSH2 0x16F6 SWAP2 PUSH2 0x46AC JUMP JUMPDEST PUSH1 0x40 MLOAD PUSH1 0x1 PUSH1 0x1 PUSH1 0xE0 SHL SUB NOT PUSH1 0xE0 DUP7 SWAP1 SHL AND DUP2 MSTORE PUSH1 0x1 PUSH1 0x1 PUSH1 0xA0 SHL SUB SWAP4 DUP5 AND PUSH1 0x4 DUP3 ADD MSTORE SWAP3 SWAP1 SWAP2 AND PUSH1 0x24 DUP4 ADD MSTORE PUSH1 0x44 DUP3 ADD MSTORE PUSH1 0x64 ADD PUSH1 0x20 PUSH1 0x40 MLOAD DUP1 DUP4 SUB DUP2 PUSH1 0x0 DUP8 GAS CALL ISZERO DUP1 ISZERO PUSH2 0x174A JUMPI RETURNDATASIZE PUSH1 0x0 DUP1 RETURNDATACOPY RETURNDATASIZE PUSH1 0x0 REVERT JUMPDEST POP POP POP POP PUSH1 0x40 MLOAD RETURNDATASIZE PUSH1 0x1F NOT PUSH1 0x1F DUP3 ADD AND DUP3 ADD DUP1 PUSH1 0x40 MSTORE POP DUP2 ADD SWAP1 PUSH2 0x176E SWAP2 SWAP1 PUSH2 0x463E JUMP JUMPDEST POP PUSH2 0x1778 DUP4 PUSH2 0x3265 JUMP JUMPDEST DUP3 PUSH1 0xE0 ADD DUP2 DUP2 MLOAD PUSH2 0x1789 SWAP2 SWAP1 PUSH2 0x4626 JUMP JUMPDEST SWAP1 MSTORE POP JUMPDEST TIMESTAMP PUSH1 0xA0 DUP4 ADD MSTORE PUSH1 0x20 DUP3 ADD DUP1 MLOAD PUSH1 0x1 SWAP2 SWAP1 PUSH2 0x17A8 SWAP1 DUP4 SWAP1 PUSH2 0x4626 JUMP JUMPDEST SWAP1 MSTORE POP POP PUSH1 0x0 SWAP2 DUP3 MSTORE PUSH2 0x148 PUSH1 0x20 SWAP1 DUP2 MSTORE PUSH1 0x40 SWAP3 DUP4 SWAP1 KECCAK256 DUP3 MLOAD DUP2 SLOAD PUSH1 0xFF NOT AND SWAP1 ISZERO ISZERO OR DUP2 SSTORE SWAP1 DUP3 ADD MLOAD PUSH1 0x1 DUP1 DUP4 ADD SWAP2 SWAP1 SWAP2 SSTORE SWAP3 DUP3 ADD MLOAD PUSH1 0x2 DUP3 ADD SSTORE PUSH1 0x60 DUP3 ADD MLOAD PUSH1 0x3 DUP3 ADD SSTORE PUSH1 0x80 DUP3 ADD MLOAD PUSH1 0x4 DUP3 ADD SSTORE PUSH1 0xA0 DUP3 ADD MLOAD PUSH1 0x5 DUP3 ADD SSTORE PUSH1 0xC0 DUP3 ADD MLOAD PUSH1 0x6 DUP3 ADD SSTORE PUSH1 0xE0 SWAP1 SWAP2 ADD MLOAD PUSH1 0x7 SWAP1 SWAP2 ADD SSTORE PUSH1 0xFB SSTORE JUMP JUMPDEST PUSH2 0x1022 DUP4 DUP4 DUP4 PUSH1 0x40 MLOAD DUP1 PUSH1 0x20 ADD PUSH1 0x40 MSTORE DUP1 PUSH1 0x0 DUP2 MSTORE POP PUSH2 0x2825 JUMP JUMPDEST PUSH1 0x97 SLOAD PUSH1 0x1 PUSH1 0x1 PUSH1 0xA0 SHL SUB AND CALLER EQ PUSH2 0x1861 JUMPI PUSH1 0x40 MLOAD PUSH3 0x461BCD PUSH1 0xE5 SHL DUP2 MSTORE PUSH1 0x4 ADD PUSH2 0xE7F SWAP1 PUSH2 0x46CB JUMP JUMPDEST PUSH2 0x12F SLOAD PUSH1 0x40 MLOAD PUSH4 0x70A08231 PUSH1 0xE0 SHL DUP2 MSTORE ADDRESS PUSH1 0x4 DUP3 ADD MSTORE PUSH1 0x0 SWAP2 PUSH1 0x1 PUSH1 0x1 PUSH1 0xA0 SHL SUB AND SWAP1 PUSH4 0x70A08231 SWAP1 PUSH1 0x24 ADD PUSH1 0x20 PUSH1 0x40 MLOAD DUP1 DUP4 SUB DUP2 DUP7 GAS STATICCALL ISZERO DUP1 ISZERO PUSH2 0x18AB JUMPI RETURNDATASIZE PUSH1 0x0 DUP1 RETURNDATACOPY RETURNDATASIZE PUSH1 0x0 REVERT JUMPDEST POP POP POP POP PUSH1 0x40 MLOAD RETURNDATASIZE PUSH1 0x1F NOT PUSH1 0x1F DUP3 ADD AND DUP3 ADD DUP1 PUSH1 0x40 MSTORE POP DUP2 ADD SWAP1 PUSH2 0x18CF SWAP2 SWAP1 PUSH2 0x4700 JUMP JUMPDEST SWAP1 POP DUP1 DUP4 GT ISZERO PUSH2 0x18DE JUMPI PUSH1 0x0 DUP1 REVERT JUMPDEST PUSH2 0x12F SLOAD PUSH1 0x40 MLOAD PUSH4 0xA9059CBB PUSH1 0xE0 SHL DUP2 MSTORE CALLER PUSH1 0x4 DUP3 ADD MSTORE PUSH1 0x24 DUP2 ADD DUP6 SWAP1 MSTORE PUSH1 0x1 PUSH1 0x1 PUSH1 0xA0 SHL SUB SWAP1 SWAP2 AND SWAP1 PUSH4 0xA9059CBB SWAP1 PUSH1 0x44 ADD PUSH1 0x20 PUSH1 0x40 MLOAD DUP1 DUP4 SUB DUP2 PUSH1 0x0 DUP8 GAS CALL ISZERO DUP1 ISZERO PUSH2 0x1930 JUMPI RETURNDATASIZE PUSH1 0x0 DUP1 RETURNDATACOPY RETURNDATASIZE PUSH1 0x0 REVERT JUMPDEST POP POP POP POP PUSH1 0x40 MLOAD RETURNDATASIZE PUSH1 0x1F NOT PUSH1 0x1F DUP3 ADD AND DUP3 ADD DUP1 PUSH1 0x40 MSTORE POP DUP2 ADD SWAP1 PUSH2 0x1954 SWAP2 SWAP1 PUSH2 0x463E JUMP JUMPDEST POP PUSH2 0x132 SLOAD PUSH1 0x1 PUSH1 0xA8 SHL SWAP1 DIV PUSH1 0xFF AND ISZERO PUSH2 0x1022 JUMPI PUSH2 0x130 SLOAD PUSH1 0x40 MLOAD PUSH4 0x70A08231 PUSH1 0xE0 SHL DUP2 MSTORE ADDRESS PUSH1 0x4 DUP3 ADD MSTORE PUSH1 0x0 SWAP2 PUSH1 0x1 PUSH1 0x1 PUSH1 0xA0 SHL SUB AND SWAP1 PUSH4 0x70A08231 SWAP1 PUSH1 0x24 ADD PUSH1 0x20 PUSH1 0x40 MLOAD DUP1 DUP4 SUB DUP2 DUP7 GAS STATICCALL ISZERO DUP1 ISZERO PUSH2 0x19B2 JUMPI RETURNDATASIZE PUSH1 0x0 DUP1 RETURNDATACOPY RETURNDATASIZE PUSH1 0x0 REVERT JUMPDEST POP POP POP POP PUSH1 0x40 MLOAD RETURNDATASIZE PUSH1 0x1F NOT PUSH1 0x1F DUP3 ADD AND DUP3 ADD DUP1 PUSH1 0x40 MSTORE POP DUP2 ADD SWAP1 PUSH2 0x19D6 SWAP2 SWAP1 PUSH2 0x4700 JUMP JUMPDEST SWAP1 POP DUP1 DUP4 GT ISZERO PUSH2 0x19E5 JUMPI PUSH1 0x0 DUP1 REVERT JUMPDEST PUSH2 0x130 SLOAD PUSH1 0x40 MLOAD PUSH4 0xA9059CBB PUSH1 0xE0 SHL DUP2 MSTORE CALLER PUSH1 0x4 DUP3 ADD MSTORE PUSH1 0x24 DUP2 ADD DUP6 SWAP1 MSTORE PUSH1 0x1 PUSH1 0x1 PUSH1 0xA0 SHL SUB SWAP1 SWAP2 AND SWAP1 PUSH4 0xA9059CBB SWAP1 PUSH1 0x44 ADD PUSH1 0x20 PUSH1 0x40 MLOAD DUP1 DUP4 SUB DUP2 PUSH1 0x0 DUP8 GAS CALL ISZERO DUP1 ISZERO PUSH2 0x1A37 JUMPI RETURNDATASIZE PUSH1 0x0 DUP1 RETURNDATACOPY RETURNDATASIZE PUSH1 0x0 REVERT JUMPDEST POP POP POP POP PUSH1 0x40 MLOAD RETURNDATASIZE PUSH1 0x1F NOT PUSH1 0x1F DUP3 ADD AND DUP3 ADD DUP1 PUSH1 0x40 MSTORE POP DUP2 ADD SWAP1 PUSH2 0x1A5B SWAP2 SWAP1 PUSH2 0x463E JUMP JUMPDEST POP POP POP POP POP JUMP JUMPDEST PUSH1 0x0 PUSH2 0x1A6D PUSH1 0xCB SLOAD SWAP1 JUMP JUMPDEST DUP3 LT PUSH2 0x1AD0 JUMPI PUSH1 0x40 MLOAD PUSH3 0x461BCD PUSH1 0xE5 SHL DUP2 MSTORE PUSH1 0x20 PUSH1 0x4 DUP3 ADD MSTORE PUSH1 0x2C PUSH1 0x24 DUP3 ADD MSTORE PUSH32 0x455243373231456E756D657261626C653A20676C6F62616C20696E646578206F PUSH1 0x44 DUP3 ADD MSTORE PUSH12 0x7574206F6620626F756E6473 PUSH1 0xA0 SHL PUSH1 0x64 DUP3 ADD MSTORE PUSH1 0x84 ADD PUSH2 0xE7F JUMP JUMPDEST PUSH1 0xCB DUP3 DUP2 SLOAD DUP2 LT PUSH2 0x1AE3 JUMPI PUSH2 0x1AE3 PUSH2 0x4719 JUMP JUMPDEST SWAP1 PUSH1 0x0 MSTORE PUSH1 0x20 PUSH1 0x0 KECCAK256 ADD SLOAD SWAP1 POP SWAP2 SWAP1 POP JUMP JUMPDEST PUSH1 0x97 SLOAD PUSH1 0x1 PUSH1 0x1 PUSH1 0xA0 SHL SUB AND CALLER EQ DUP1 PUSH2 0x1B19 JUMPI POP PUSH2 0x132 SLOAD PUSH1 0x1 PUSH1 0x1 PUSH1 0xA0 SHL SUB AND CALLER EQ JUMPDEST PUSH2 0x1B22 JUMPI PUSH1 0x0 DUP1 REVERT JUMPDEST PUSH2 0x12D DUP1 SLOAD PUSH1 0x1 PUSH1 0x1 PUSH1 0xA0 SHL SUB SWAP5 DUP6 AND PUSH1 0x1 PUSH1 0x1 PUSH1 0xA0 SHL SUB NOT SWAP2 DUP3 AND OR SWAP1 SWAP2 SSTORE PUSH2 0x12E DUP1 SLOAD SWAP4 DUP6 AND SWAP4 DUP3 AND SWAP4 SWAP1 SWAP4 OR SWAP1 SWAP3 SSTORE PUSH2 0x12F DUP1 SLOAD SWAP2 SWAP1 SWAP4 AND SWAP2 AND OR SWAP1 SSTORE JUMP JUMPDEST PUSH1 0x0 DUP1 PUSH1 0x0 PUSH2 0x1B72 DUP5 PUSH2 0x31E2 JUMP JUMPDEST PUSH1 0x0 DUP6 DUP2 MSTORE PUSH2 0x148 PUSH1 0x20 MSTORE PUSH1 0x40 SWAP1 KECCAK256 PUSH1 0x6 ADD SLOAD PUSH2 0x1B8F SWAP2 SWAP1 PUSH2 0x4626 JUMP JUMPDEST PUSH2 0x132 SLOAD SWAP1 SWAP2 POP PUSH1 0x0 SWAP1 PUSH1 0x1 PUSH1 0xA8 SHL SWAP1 DIV PUSH1 0xFF AND ISZERO PUSH2 0x1BD5 JUMPI PUSH2 0x1BB1 DUP6 PUSH2 0x3265 JUMP JUMPDEST PUSH1 0x0 DUP7 DUP2 MSTORE PUSH2 0x148 PUSH1 0x20 MSTORE PUSH1 0x40 SWAP1 KECCAK256 PUSH1 0x7 ADD SLOAD PUSH2 0x1BCE SWAP2 SWAP1 PUSH2 0x4626 JUMP JUMPDEST SWAP1 POP PUSH2 0x1BD9 JUMP JUMPDEST POP PUSH1 0x0 JUMPDEST SWAP1 SWAP5 SWAP1 SWAP4 POP SWAP2 POP POP JUMP JUMPDEST PUSH1 0x0 DUP2 DUP2 MSTORE PUSH1 0x67 PUSH1 0x20 MSTORE PUSH1 0x40 DUP2 KECCAK256 SLOAD PUSH1 0x1 PUSH1 0x1 PUSH1 0xA0 SHL SUB AND DUP1 PUSH2 0xD72 JUMPI PUSH1 0x40 MLOAD PUSH3 0x461BCD PUSH1 0xE5 SHL DUP2 MSTORE PUSH1 0x20 PUSH1 0x4 DUP3 ADD MSTORE PUSH1 0x29 PUSH1 0x24 DUP3 ADD MSTORE PUSH32 0x4552433732313A206F776E657220717565727920666F72206E6F6E6578697374 PUSH1 0x44 DUP3 ADD MSTORE PUSH9 0x32B73A103A37B5B2B7 PUSH1 0xB9 SHL PUSH1 0x64 DUP3 ADD MSTORE PUSH1 0x84 ADD PUSH2 0xE7F JUMP JUMPDEST PUSH1 0x97 SLOAD PUSH1 0x1 PUSH1 0x1 PUSH1 0xA0 SHL SUB AND CALLER EQ DUP1 PUSH2 0x1C7E JUMPI POP PUSH2 0x132 SLOAD PUSH1 0x1 PUSH1 0x1 PUSH1 0xA0 SHL SUB AND CALLER EQ JUMPDEST PUSH2 0x1C87 JUMPI PUSH1 0x0 DUP1 REVERT JUMPDEST PUSH2 0x130 DUP1 SLOAD PUSH1 0x1 PUSH1 0x1 PUSH1 0xA0 SHL SUB NOT AND PUSH1 0x1 PUSH1 0x1 PUSH1 0xA0 SHL SUB SWAP3 SWAP1 SWAP3 AND SWAP2 SWAP1 SWAP2 OR SWAP1 SSTORE JUMP JUMPDEST PUSH1 0x97 SLOAD PUSH1 0x1 PUSH1 0x1 PUSH1 0xA0 SHL SUB AND CALLER EQ PUSH2 0x1CD4 JUMPI PUSH1 0x40 MLOAD PUSH3 0x461BCD PUSH1 0xE5 SHL DUP2 MSTORE PUSH1 0x4 ADD PUSH2 0xE7F SWAP1 PUSH2 0x46CB JUMP JUMPDEST PUSH2 0x132 DUP1 SLOAD PUSH1 0x1 PUSH1 0x1 PUSH1 0xA0 SHL SUB NOT AND PUSH1 0x1 PUSH1 0x1 PUSH1 0xA0 SHL SUB SWAP3 SWAP1 SWAP3 AND SWAP2 SWAP1 SWAP2 OR SWAP1 SSTORE JUMP JUMPDEST PUSH1 0x0 PUSH1 0x1 PUSH1 0x1 PUSH1 0xA0 SHL SUB DUP3 AND PUSH2 0x1D62 JUMPI PUSH1 0x40 MLOAD PUSH3 0x461BCD PUSH1 0xE5 SHL DUP2 MSTORE PUSH1 0x20 PUSH1 0x4 DUP3 ADD MSTORE PUSH1 0x2A PUSH1 0x24 DUP3 ADD MSTORE PUSH32 0x4552433732313A2062616C616E636520717565727920666F7220746865207A65 PUSH1 0x44 DUP3 ADD MSTORE PUSH10 0x726F2061646472657373 PUSH1 0xB0 SHL PUSH1 0x64 DUP3 ADD MSTORE PUSH1 0x84 ADD PUSH2 0xE7F JUMP JUMPDEST POP PUSH1 0x1 PUSH1 0x1 PUSH1 0xA0 SHL SUB AND PUSH1 0x0 SWAP1 DUP2 MSTORE PUSH1 0x68 PUSH1 0x20 MSTORE PUSH1 0x40 SWAP1 KECCAK256 SLOAD SWAP1 JUMP JUMPDEST PUSH1 0x97 SLOAD PUSH1 0x1 PUSH1 0x1 PUSH1 0xA0 SHL SUB AND CALLER EQ PUSH2 0x1DA8 JUMPI PUSH1 0x40 MLOAD PUSH3 0x461BCD PUSH1 0xE5 SHL DUP2 MSTORE PUSH1 0x4 ADD PUSH2 0xE7F SWAP1 PUSH2 0x46CB JUMP JUMPDEST PUSH2 0x1DB2 PUSH1 0x0 PUSH2 0x35E7 JUMP JUMPDEST JUMP JUMPDEST PUSH1 0x0 SLOAD PUSH2 0x100 SWAP1 DIV PUSH1 0xFF AND PUSH2 0x1DCF JUMPI PUSH1 0x0 SLOAD PUSH1 0xFF AND ISZERO PUSH2 0x1DD3 JUMP JUMPDEST ADDRESS EXTCODESIZE ISZERO JUMPDEST PUSH2 0x1E36 JUMPI PUSH1 0x40 MLOAD PUSH3 0x461BCD PUSH1 0xE5 SHL DUP2 MSTORE PUSH1 0x20 PUSH1 0x4 DUP3 ADD MSTORE PUSH1 0x2E PUSH1 0x24 DUP3 ADD MSTORE PUSH32 0x496E697469616C697A61626C653A20636F6E747261637420697320616C726561 PUSH1 0x44 DUP3 ADD MSTORE PUSH14 0x191E481A5B9A5D1A585B1A5E9959 PUSH1 0x92 SHL PUSH1 0x64 DUP3 ADD MSTORE PUSH1 0x84 ADD PUSH2 0xE7F JUMP JUMPDEST PUSH1 0x0 SLOAD PUSH2 0x100 SWAP1 DIV PUSH1 0xFF AND ISZERO DUP1 ISZERO PUSH2 0x1E58 JUMPI PUSH1 0x0 DUP1 SLOAD PUSH2 0xFFFF NOT AND PUSH2 0x101 OR SWAP1 SSTORE JUMPDEST PUSH2 0x1EA0 PUSH1 0x40 MLOAD DUP1 PUSH1 0x40 ADD PUSH1 0x40 MSTORE DUP1 PUSH1 0xA DUP2 MSTORE PUSH1 0x20 ADD PUSH10 0x4D6574614172656E6173 PUSH1 0xB0 SHL DUP2 MSTORE POP PUSH1 0x40 MLOAD DUP1 PUSH1 0x40 ADD PUSH1 0x40 MSTORE DUP1 PUSH1 0x4 DUP2 MSTORE PUSH1 0x20 ADD PUSH4 0x4D415245 PUSH1 0xE0 SHL DUP2 MSTORE POP PUSH2 0x3639 JUMP JUMPDEST PUSH2 0x1EA8 PUSH2 0x366A JUMP JUMPDEST PUSH2 0x1EB0 PUSH2 0x3699 JUMP JUMPDEST PUSH8 0x8AC7230489E80000 PUSH2 0x134 SSTORE PUSH8 0xD02AB486CEDC0000 PUSH2 0x135 SSTORE PUSH9 0x1158E460913D00000 PUSH2 0x136 SSTORE PUSH9 0x56BC75E2D63100000 PUSH2 0x13B SSTORE PUSH9 0xAD78EBC5AC6200000 PUSH2 0x13C SSTORE PUSH1 0x3 PUSH2 0x13D SSTORE PUSH2 0x3E8 PUSH2 0x13E SSTORE PUSH1 0x40 DUP1 MLOAD DUP1 DUP3 ADD SWAP1 SWAP2 MSTORE PUSH1 0x5 DUP1 DUP3 MSTORE PUSH5 0x173539B7B7 PUSH1 0xD9 SHL PUSH1 0x20 SWAP1 SWAP3 ADD SWAP2 DUP3 MSTORE PUSH2 0x1F2E SWAP2 PUSH2 0x140 SWAP2 PUSH2 0x3F63 JUMP JUMPDEST POP PUSH1 0xA PUSH2 0x141 SSTORE PUSH3 0x3F480 PUSH2 0x142 SSTORE PUSH3 0x186A0 PUSH2 0x143 SSTORE PUSH2 0xC350 PUSH2 0x144 SSTORE PUSH1 0x2 PUSH2 0x145 SSTORE PUSH2 0x3E8 PUSH2 0x133 SSTORE PUSH2 0x132 DUP1 SLOAD PUSH1 0xFF PUSH1 0xA0 SHL NOT AND PUSH1 0x1 PUSH1 0xA0 SHL OR SWAP1 SSTORE PUSH2 0x1F78 CALLER PUSH1 0x76 PUSH2 0x32C2 JUMP JUMPDEST PUSH2 0x1F83 CALLER PUSH1 0xBC PUSH2 0x32C2 JUMP JUMPDEST PUSH2 0x1F8E CALLER PUSH1 0xD8 PUSH2 0x32C2 JUMP JUMPDEST DUP1 ISZERO PUSH2 0x135B JUMPI PUSH1 0x0 DUP1 SLOAD PUSH2 0xFF00 NOT AND SWAP1 SSTORE POP JUMP JUMPDEST PUSH1 0x60 PUSH1 0x0 PUSH2 0x1FAF DUP4 PUSH2 0x1CF7 JUMP JUMPDEST SWAP1 POP PUSH1 0x0 DUP2 PUSH8 0xFFFFFFFFFFFFFFFF DUP2 GT ISZERO PUSH2 0x1FCC JUMPI PUSH2 0x1FCC PUSH2 0x4268 JUMP JUMPDEST PUSH1 0x40 MLOAD SWAP1 DUP1 DUP3 MSTORE DUP1 PUSH1 0x20 MUL PUSH1 0x20 ADD DUP3 ADD PUSH1 0x40 MSTORE DUP1 ISZERO PUSH2 0x1FF5 JUMPI DUP2 PUSH1 0x20 ADD PUSH1 0x20 DUP3 MUL DUP1 CALLDATASIZE DUP4 CALLDATACOPY ADD SWAP1 POP JUMPDEST POP SWAP1 POP PUSH1 0x0 JUMPDEST DUP3 DUP2 LT ISZERO PUSH2 0x203A JUMPI PUSH2 0x200D DUP6 DUP3 PUSH2 0x13DB JUMP JUMPDEST DUP3 DUP3 DUP2 MLOAD DUP2 LT PUSH2 0x201F JUMPI PUSH2 0x201F PUSH2 0x4719 JUMP JUMPDEST PUSH1 0x20 SWAP1 DUP2 MUL SWAP2 SWAP1 SWAP2 ADD ADD MSTORE PUSH2 0x2033 DUP2 PUSH2 0x472F JUMP JUMPDEST SWAP1 POP PUSH2 0x1FFB JUMP JUMPDEST POP SWAP4 SWAP3 POP POP POP JUMP JUMPDEST PUSH1 0x60 PUSH1 0x66 DUP1 SLOAD PUSH2 0xD87 SWAP1 PUSH2 0x459E JUMP JUMPDEST PUSH1 0x97 SLOAD PUSH1 0x1 PUSH1 0x1 PUSH1 0xA0 SHL SUB AND CALLER EQ DUP1 PUSH2 0x2075 JUMPI POP PUSH2 0x132 SLOAD PUSH1 0x1 PUSH1 0x1 PUSH1 0xA0 SHL SUB AND CALLER EQ JUMPDEST PUSH2 0x207E JUMPI PUSH1 0x0 DUP1 REVERT JUMPDEST PUSH2 0x132 DUP1 SLOAD SWAP2 ISZERO ISZERO PUSH1 0x1 PUSH1 0xA8 SHL MUL PUSH1 0xFF PUSH1 0xA8 SHL NOT SWAP1 SWAP3 AND SWAP2 SWAP1 SWAP2 OR SWAP1 SSTORE JUMP JUMPDEST PUSH2 0x131 SLOAD PUSH1 0x1 PUSH1 0x1 PUSH1 0xA0 SHL SUB AND CALLER EQ PUSH2 0x210E JUMPI PUSH1 0x40 MLOAD PUSH3 0x461BCD PUSH1 0xE5 SHL DUP2 MSTORE PUSH1 0x20 PUSH1 0x4 DUP3 ADD MSTORE PUSH1 0x2D PUSH1 0x24 DUP3 ADD MSTORE PUSH32 0x596F7520617265206E6F7420617574686F726973656420746F2063616C6C2074 PUSH1 0x44 DUP3 ADD MSTORE PUSH13 0x6869732066756E6374696F6E21 PUSH1 0x98 SHL PUSH1 0x64 DUP3 ADD MSTORE PUSH1 0x84 ADD PUSH2 0xE7F JUMP JUMPDEST PUSH1 0x0 DUP3 DUP2 MSTORE PUSH2 0x148 PUSH1 0x20 MSTORE PUSH1 0x40 DUP2 KECCAK256 PUSH1 0x2 ADD DUP1 SLOAD DUP4 SWAP3 SWAP1 PUSH2 0x2130 SWAP1 DUP5 SWAP1 PUSH2 0x4626 JUMP JUMPDEST SWAP1 SWAP2 SSTORE POP POP POP POP JUMP JUMPDEST PUSH1 0x97 SLOAD PUSH1 0x1 PUSH1 0x1 PUSH1 0xA0 SHL SUB AND CALLER EQ DUP1 PUSH2 0x215D JUMPI POP PUSH2 0x132 SLOAD PUSH1 0x1 PUSH1 0x1 PUSH1 0xA0 SHL SUB AND CALLER EQ JUMPDEST PUSH2 0x2166 JUMPI PUSH1 0x0 DUP1 REVERT JUMPDEST DUP1 MLOAD PUSH2 0x217A SWAP1 PUSH2 0x13F SWAP1 PUSH1 0x20 DUP5 ADD SWAP1 PUSH2 0x3F63 JUMP JUMPDEST POP POP JUMP JUMPDEST PUSH1 0x2 PUSH1 0xFB SLOAD EQ ISZERO PUSH2 0x21A1 JUMPI PUSH1 0x40 MLOAD PUSH3 0x461BCD PUSH1 0xE5 SHL DUP2 MSTORE PUSH1 0x4 ADD PUSH2 0xE7F SWAP1 PUSH2 0x45D9 JUMP JUMPDEST PUSH1 0x2 PUSH1 0xFB SSTORE PUSH2 0x21AF DUP2 PUSH2 0x1BE3 JUMP JUMPDEST PUSH1 0x1 PUSH1 0x1 PUSH1 0xA0 SHL SUB AND CALLER PUSH1 0x1 PUSH1 0x1 PUSH1 0xA0 SHL SUB AND EQ PUSH2 0x221A JUMPI PUSH1 0x40 MLOAD PUSH3 0x461BCD PUSH1 0xE5 SHL DUP2 MSTORE PUSH1 0x20 PUSH1 0x4 DUP3 ADD MSTORE PUSH1 0x22 PUSH1 0x24 DUP3 ADD MSTORE PUSH32 0x43616E2774207374616B652061206172656E6120796F7520646F6E2774206F77 PUSH1 0x44 DUP3 ADD MSTORE PUSH2 0x6E21 PUSH1 0xF0 SHL PUSH1 0x64 DUP3 ADD MSTORE PUSH1 0x84 ADD PUSH2 0xE7F JUMP JUMPDEST PUSH1 0x0 DUP2 DUP2 MSTORE PUSH2 0x148 PUSH1 0x20 SWAP1 DUP2 MSTORE PUSH1 0x40 SWAP2 DUP3 SWAP1 KECCAK256 DUP3 MLOAD PUSH2 0x100 DUP2 ADD DUP5 MSTORE DUP2 SLOAD PUSH1 0xFF AND ISZERO DUP1 ISZERO DUP3 MSTORE PUSH1 0x1 DUP4 ADD SLOAD SWAP4 DUP3 ADD SWAP4 SWAP1 SWAP4 MSTORE PUSH1 0x2 DUP3 ADD SLOAD SWAP4 DUP2 ADD SWAP4 SWAP1 SWAP4 MSTORE PUSH1 0x3 DUP2 ADD SLOAD PUSH1 0x60 DUP5 ADD MSTORE PUSH1 0x4 DUP2 ADD SLOAD PUSH1 0x80 DUP5 ADD MSTORE PUSH1 0x5 DUP2 ADD SLOAD PUSH1 0xA0 DUP5 ADD MSTORE PUSH1 0x6 DUP2 ADD SLOAD PUSH1 0xC0 DUP5 ADD MSTORE PUSH1 0x7 ADD SLOAD PUSH1 0xE0 DUP4 ADD MSTORE PUSH2 0x22CD JUMPI PUSH1 0x40 MLOAD PUSH3 0x461BCD PUSH1 0xE5 SHL DUP2 MSTORE PUSH1 0x20 PUSH1 0x4 DUP3 ADD MSTORE PUSH1 0x15 PUSH1 0x24 DUP3 ADD MSTORE PUSH21 0x4172656E6120616C7265616479207374616B656421 PUSH1 0x58 SHL PUSH1 0x44 DUP3 ADD MSTORE PUSH1 0x64 ADD PUSH2 0xE7F JUMP JUMPDEST TIMESTAMP PUSH1 0x80 DUP3 ADD DUP2 DUP2 MSTORE PUSH1 0x1 DUP1 DUP5 MSTORE PUSH1 0xA0 DUP5 ADD SWAP3 DUP4 MSTORE PUSH1 0x0 DUP6 DUP2 MSTORE PUSH2 0x148 PUSH1 0x20 SWAP1 DUP2 MSTORE PUSH1 0x40 DUP1 DUP4 KECCAK256 DUP8 MLOAD DUP2 SLOAD PUSH1 0xFF NOT AND SWAP1 ISZERO ISZERO OR DUP2 SSTORE DUP3 DUP9 ADD MLOAD DUP2 DUP7 ADD SSTORE DUP2 DUP9 ADD MLOAD PUSH1 0x2 DUP3 ADD SSTORE PUSH1 0x60 DUP9 ADD MLOAD PUSH1 0x3 DUP3 ADD SSTORE SWAP5 MLOAD PUSH1 0x4 DUP7 ADD SSTORE SWAP5 MLOAD PUSH1 0x5 DUP6 ADD SSTORE PUSH1 0xC0 DUP7 ADD MLOAD PUSH1 0x6 DUP6 ADD SSTORE PUSH1 0xE0 SWAP1 SWAP6 ADD MLOAD PUSH1 0x7 SWAP1 SWAP4 ADD SWAP3 SWAP1 SWAP3 SSTORE CALLER DUP3 MSTORE PUSH2 0x146 DUP5 MSTORE SWAP2 DUP2 KECCAK256 DUP1 SLOAD DUP1 DUP5 ADD DUP3 SSTORE SWAP1 DUP3 MSTORE SWAP3 SWAP1 KECCAK256 SWAP1 SWAP2 ADD SWAP2 SWAP1 SWAP2 SSTORE PUSH1 0xFB SSTORE JUMP JUMPDEST DUP1 PUSH2 0x13D SLOAD DUP2 GT ISZERO PUSH2 0x238B JUMPI PUSH1 0x40 MLOAD PUSH3 0x461BCD PUSH1 0xE5 SHL DUP2 MSTORE PUSH1 0x4 ADD PUSH2 0xE7F SWAP1 PUSH2 0x474A JUMP JUMPDEST PUSH2 0x13E SLOAD DUP2 PUSH2 0x133 SLOAD PUSH2 0x239E SWAP2 SWAP1 PUSH2 0x4626 JUMP JUMPDEST GT ISZERO PUSH2 0x23E3 JUMPI PUSH1 0x40 MLOAD PUSH3 0x461BCD PUSH1 0xE5 SHL DUP2 MSTORE PUSH1 0x20 PUSH1 0x4 DUP3 ADD MSTORE PUSH1 0x14 PUSH1 0x24 DUP3 ADD MSTORE PUSH20 0x4D617820737570706C7920657863656564656421 PUSH1 0x60 SHL PUSH1 0x44 DUP3 ADD MSTORE PUSH1 0x64 ADD PUSH2 0xE7F JUMP JUMPDEST PUSH2 0x132 SLOAD PUSH1 0x1 PUSH1 0xA0 SHL SWAP1 DIV PUSH1 0xFF AND ISZERO PUSH2 0x2433 JUMPI PUSH1 0x40 MLOAD PUSH3 0x461BCD PUSH1 0xE5 SHL DUP2 MSTORE PUSH1 0x20 PUSH1 0x4 DUP3 ADD MSTORE PUSH1 0x12 PUSH1 0x24 DUP3 ADD MSTORE PUSH18 0x4D696E74696E672069732070617573656421 PUSH1 0x70 SHL PUSH1 0x44 DUP3 ADD MSTORE PUSH1 0x64 ADD PUSH2 0xE7F JUMP JUMPDEST PUSH2 0x137 SLOAD TIMESTAMP LT ISZERO DUP1 ISZERO PUSH2 0x2449 JUMPI POP PUSH2 0x138 SLOAD TIMESTAMP GT ISZERO JUMPDEST ISZERO PUSH2 0x25B5 JUMPI PUSH2 0x12E SLOAD PUSH1 0x40 MLOAD PUSH3 0x7EEAC7 PUSH1 0xE1 SHL DUP2 MSTORE CALLER PUSH1 0x4 DUP3 ADD MSTORE PUSH1 0x0 PUSH1 0x24 DUP3 ADD DUP2 SWAP1 MSTORE SWAP2 PUSH1 0x1 PUSH1 0x1 PUSH1 0xA0 SHL SUB AND SWAP1 PUSH3 0xFDD58E SWAP1 PUSH1 0x44 ADD PUSH1 0x20 PUSH1 0x40 MLOAD DUP1 DUP4 SUB DUP2 DUP7 GAS STATICCALL ISZERO DUP1 ISZERO PUSH2 0x249D JUMPI RETURNDATASIZE PUSH1 0x0 DUP1 RETURNDATACOPY RETURNDATASIZE PUSH1 0x0 REVERT JUMPDEST POP POP POP POP PUSH1 0x40 MLOAD RETURNDATASIZE PUSH1 0x1F NOT PUSH1 0x1F DUP3 ADD AND DUP3 ADD DUP1 PUSH1 0x40 MSTORE POP DUP2 ADD SWAP1 PUSH2 0x24C1 SWAP2 SWAP1 PUSH2 0x4700 JUMP JUMPDEST GT PUSH2 0x250E JUMPI PUSH1 0x40 MLOAD PUSH3 0x461BCD PUSH1 0xE5 SHL DUP2 MSTORE PUSH1 0x20 PUSH1 0x4 DUP3 ADD MSTORE PUSH1 0x1D PUSH1 0x24 DUP3 ADD MSTORE PUSH32 0x596F7520646F6E2774206F776E20436172626F6E204D65746150617373000000 PUSH1 0x44 DUP3 ADD MSTORE PUSH1 0x64 ADD PUSH2 0xE7F JUMP JUMPDEST PUSH2 0x12F SLOAD PUSH2 0x134 SLOAD PUSH1 0x1 PUSH1 0x1 PUSH1 0xA0 SHL SUB SWAP1 SWAP2 AND SWAP1 PUSH4 0x23B872DD SWAP1 CALLER SWAP1 ADDRESS SWAP1 PUSH2 0x2537 SWAP1 DUP8 SWAP1 PUSH2 0x46AC JUMP JUMPDEST PUSH1 0x40 MLOAD PUSH1 0x1 PUSH1 0x1 PUSH1 0xE0 SHL SUB NOT PUSH1 0xE0 DUP7 SWAP1 SHL AND DUP2 MSTORE PUSH1 0x1 PUSH1 0x1 PUSH1 0xA0 SHL SUB SWAP4 DUP5 AND PUSH1 0x4 DUP3 ADD MSTORE SWAP3 SWAP1 SWAP2 AND PUSH1 0x24 DUP4 ADD MSTORE PUSH1 0x44 DUP3 ADD MSTORE PUSH1 0x64 ADD PUSH1 0x20 PUSH1 0x40 MLOAD DUP1 DUP4 SUB DUP2 PUSH1 0x0 DUP8 GAS CALL ISZERO DUP1 ISZERO PUSH2 0x258B JUMPI RETURNDATASIZE PUSH1 0x0 DUP1 RETURNDATACOPY RETURNDATASIZE PUSH1 0x0 REVERT JUMPDEST POP POP POP POP PUSH1 0x40 MLOAD RETURNDATASIZE PUSH1 0x1F NOT PUSH1 0x1F DUP3 ADD AND DUP3 ADD DUP1 PUSH1 0x40 MSTORE POP DUP2 ADD SWAP1 PUSH2 0x25AF SWAP2 SWAP1 PUSH2 0x463E JUMP JUMPDEST POP PUSH2 0x279F JUMP JUMPDEST PUSH2 0x139 SLOAD TIMESTAMP GT PUSH2 0x2731 JUMPI PUSH2 0x12E SLOAD PUSH1 0x40 MLOAD PUSH3 0x7EEAC7 PUSH1 0xE1 SHL DUP2 MSTORE CALLER PUSH1 0x4 DUP3 ADD MSTORE PUSH1 0x1 PUSH1 0x24 DUP3 ADD MSTORE PUSH1 0x0 SWAP2 PUSH1 0x1 PUSH1 0x1 PUSH1 0xA0 SHL SUB AND SWAP1 PUSH3 0xFDD58E SWAP1 PUSH1 0x44 ADD PUSH1 0x20 PUSH1 0x40 MLOAD DUP1 DUP4 SUB DUP2 DUP7 GAS STATICCALL ISZERO DUP1 ISZERO PUSH2 0x260E JUMPI RETURNDATASIZE PUSH1 0x0 DUP1 RETURNDATACOPY RETURNDATASIZE PUSH1 0x0 REVERT JUMPDEST POP POP POP POP PUSH1 0x40 MLOAD RETURNDATASIZE PUSH1 0x1F NOT PUSH1 0x1F DUP3 ADD AND DUP3 ADD DUP1 PUSH1 0x40 MSTORE POP DUP2 ADD SWAP1 PUSH2 0x2632 SWAP2 SWAP1 PUSH2 0x4700 JUMP JUMPDEST GT DUP1 PUSH2 0x26AE JUMPI POP PUSH2 0x12E SLOAD PUSH1 0x40 MLOAD PUSH3 0x7EEAC7 PUSH1 0xE1 SHL DUP2 MSTORE CALLER PUSH1 0x4 DUP3 ADD MSTORE PUSH1 0x0 PUSH1 0x24 DUP3 ADD DUP2 SWAP1 MSTORE SWAP2 PUSH1 0x1 PUSH1 0x1 PUSH1 0xA0 SHL SUB AND SWAP1 PUSH3 0xFDD58E SWAP1 PUSH1 0x44 ADD PUSH1 0x20 PUSH1 0x40 MLOAD DUP1 DUP4 SUB DUP2 DUP7 GAS STATICCALL ISZERO DUP1 ISZERO PUSH2 0x2688 JUMPI RETURNDATASIZE PUSH1 0x0 DUP1 RETURNDATACOPY RETURNDATASIZE PUSH1 0x0 REVERT JUMPDEST POP POP POP POP PUSH1 0x40 MLOAD RETURNDATASIZE PUSH1 0x1F NOT PUSH1 0x1F DUP3 ADD AND DUP3 ADD DUP1 PUSH1 0x40 MSTORE POP DUP2 ADD SWAP1 PUSH2 0x26AC SWAP2 SWAP1 PUSH2 0x4700 JUMP JUMPDEST GT JUMPDEST PUSH2 0x2708 JUMPI PUSH1 0x40 MLOAD PUSH3 0x461BCD PUSH1 0xE5 SHL DUP2 MSTORE PUSH1 0x20 PUSH1 0x4 DUP3 ADD MSTORE PUSH1 0x25 PUSH1 0x24 DUP3 ADD MSTORE PUSH32 0x596F7520646F6E2774206F776E20436172626F6E206F7220476F6C64204D6574 PUSH1 0x44 DUP3 ADD MSTORE PUSH5 0x6150617373 PUSH1 0xD8 SHL PUSH1 0x64 DUP3 ADD MSTORE PUSH1 0x84 ADD PUSH2 0xE7F JUMP JUMPDEST PUSH2 0x12F SLOAD PUSH2 0x135 SLOAD PUSH1 0x1 PUSH1 0x1 PUSH1 0xA0 SHL SUB SWAP1 SWAP2 AND SWAP1 PUSH4 0x23B872DD SWAP1 CALLER SWAP1 ADDRESS SWAP1 PUSH2 0x2537 SWAP1 DUP8 SWAP1 PUSH2 0x46AC JUMP JUMPDEST PUSH2 0x13A SLOAD TIMESTAMP GT PUSH2 0x2764 JUMPI PUSH2 0x12F SLOAD PUSH2 0x136 SLOAD PUSH1 0x1 PUSH1 0x1 PUSH1 0xA0 SHL SUB SWAP1 SWAP2 AND SWAP1 PUSH4 0x23B872DD SWAP1 CALLER SWAP1 ADDRESS SWAP1 PUSH2 0x2537 SWAP1 DUP8 SWAP1 PUSH2 0x46AC JUMP JUMPDEST PUSH1 0x40 MLOAD PUSH3 0x461BCD PUSH1 0xE5 SHL DUP2 MSTORE PUSH1 0x20 PUSH1 0x4 DUP3 ADD MSTORE PUSH1 0x10 PUSH1 0x24 DUP3 ADD MSTORE PUSH16 0x4D696E74696E67206E6F74206C697665 PUSH1 0x80 SHL PUSH1 0x44 DUP3 ADD MSTORE PUSH1 0x64 ADD PUSH2 0xE7F JUMP JUMPDEST PUSH2 0x217A CALLER DUP4 PUSH2 0x36C8 JUMP JUMPDEST PUSH2 0x217A CALLER DUP4 DUP4 PUSH2 0x3708 JUMP JUMPDEST PUSH1 0x97 SLOAD PUSH1 0x1 PUSH1 0x1 PUSH1 0xA0 SHL SUB AND CALLER EQ DUP1 PUSH2 0x27D8 JUMPI POP PUSH2 0x132 SLOAD PUSH1 0x1 PUSH1 0x1 PUSH1 0xA0 SHL SUB AND CALLER EQ JUMPDEST PUSH2 0x27E1 JUMPI PUSH1 0x0 DUP1 REVERT JUMPDEST PUSH2 0x134 SWAP3 SWAP1 SWAP3 SSTORE PUSH2 0x135 SSTORE PUSH2 0x136 SSTORE JUMP JUMPDEST PUSH1 0x97 SLOAD PUSH1 0x1 PUSH1 0x1 PUSH1 0xA0 SHL SUB AND CALLER EQ DUP1 PUSH2 0x2816 JUMPI POP PUSH2 0x132 SLOAD PUSH1 0x1 PUSH1 0x1 PUSH1 0xA0 SHL SUB AND CALLER EQ JUMPDEST PUSH2 0x281F JUMPI PUSH1 0x0 DUP1 REVERT JUMPDEST PUSH2 0x13D SSTORE JUMP JUMPDEST PUSH2 0x282F CALLER DUP4 PUSH2 0x32DC JUMP JUMPDEST PUSH2 0x284B JUMPI PUSH1 0x40 MLOAD PUSH3 0x461BCD PUSH1 0xE5 SHL DUP2 MSTORE PUSH1 0x4 ADD PUSH2 0xE7F SWAP1 PUSH2 0x465B JUMP JUMPDEST PUSH2 0x2857 DUP5 DUP5 DUP5 DUP5 PUSH2 0x37D7 JUMP JUMPDEST POP POP POP POP JUMP JUMPDEST PUSH1 0x0 DUP2 DUP2 MSTORE PUSH2 0x148 PUSH1 0x20 MSTORE PUSH1 0x40 DUP2 KECCAK256 PUSH1 0x1 SWAP1 DUP2 ADD SLOAD PUSH2 0x141 SLOAD DUP4 SWAP3 DUP4 SWAP3 DUP4 SWAP3 DUP4 SWAP3 DUP4 SWAP2 SWAP1 PUSH2 0x288C SWAP1 DUP5 SWAP1 PUSH2 0x4626 JUMP JUMPDEST PUSH2 0x2896 SWAP2 SWAP1 PUSH2 0x46AC JUMP JUMPDEST PUSH1 0x0 DUP10 DUP2 MSTORE PUSH2 0x148 PUSH1 0x20 MSTORE PUSH1 0x40 DUP2 KECCAK256 PUSH1 0x2 ADD SLOAD SWAP2 SWAP1 SWAP2 LT ISZERO SWAP2 POP PUSH2 0x28B9 DUP10 PUSH2 0x357A JUMP JUMPDEST PUSH1 0x0 DUP11 DUP2 MSTORE PUSH2 0x148 PUSH1 0x20 MSTORE PUSH1 0x40 DUP2 KECCAK256 SLOAD SWAP2 SWAP3 POP SWAP1 PUSH1 0xFF AND ISZERO PUSH2 0x291C JUMPI PUSH1 0x0 DUP11 DUP2 MSTORE PUSH2 0x148 PUSH1 0x20 MSTORE PUSH1 0x40 SWAP1 KECCAK256 PUSH1 0x4 ADD SLOAD PUSH2 0x28F2 SWAP1 TIMESTAMP PUSH2 0x4790 JUMP JUMPDEST PUSH2 0x28FD DUP4 PUSH1 0x1 PUSH2 0x4626 JUMP JUMPDEST PUSH2 0x142 SLOAD PUSH2 0x290B SWAP2 SWAP1 PUSH2 0x46AC JUMP JUMPDEST PUSH2 0x2915 SWAP2 SWAP1 PUSH2 0x4790 JUMP JUMPDEST SWAP1 POP PUSH2 0x2922 JUMP JUMPDEST POP PUSH2 0x142 SLOAD JUMPDEST PUSH1 0x0 SWAP10 DUP11 MSTORE PUSH2 0x148 PUSH1 0x20 MSTORE PUSH1 0x40 SWAP1 SWAP10 KECCAK256 SLOAD SWAP3 SWAP10 SWAP1 SWAP9 SWAP8 POP PUSH1 0xFF SWAP1 SWAP3 AND SWAP6 POP SWAP4 POP SWAP2 POP POP JUMP JUMPDEST PUSH1 0x97 SLOAD PUSH1 0x1 PUSH1 0x1 PUSH1 0xA0 SHL SUB AND CALLER EQ PUSH2 0x2971 JUMPI PUSH1 0x40 MLOAD PUSH3 0x461BCD PUSH1 0xE5 SHL DUP2 MSTORE PUSH1 0x4 ADD PUSH2 0xE7F SWAP1 PUSH2 0x46CB JUMP JUMPDEST PUSH2 0x143 SWAP2 SWAP1 SWAP2 SSTORE PUSH2 0x144 SSTORE JUMP JUMPDEST PUSH1 0x97 SLOAD PUSH1 0x1 PUSH1 0x1 PUSH1 0xA0 SHL SUB AND CALLER EQ DUP1 PUSH2 0x29A2 JUMPI POP PUSH2 0x132 SLOAD PUSH1 0x1 PUSH1 0x1 PUSH1 0xA0 SHL SUB AND CALLER EQ JUMPDEST PUSH2 0x29AB JUMPI PUSH1 0x0 DUP1 REVERT JUMPDEST PUSH2 0x137 SWAP4 SWAP1 SWAP4 SSTORE PUSH2 0x138 SWAP2 SWAP1 SWAP2 SSTORE PUSH2 0x139 SSTORE PUSH2 0x13A SSTORE JUMP JUMPDEST PUSH1 0x0 DUP2 DUP2 MSTORE PUSH1 0x67 PUSH1 0x20 MSTORE PUSH1 0x40 SWAP1 KECCAK256 SLOAD PUSH1 0x60 SWAP1 PUSH1 0x1 PUSH1 0x1 PUSH1 0xA0 SHL SUB AND PUSH2 0x2A42 JUMPI PUSH1 0x40 MLOAD PUSH3 0x461BCD PUSH1 0xE5 SHL DUP2 MSTORE PUSH1 0x20 PUSH1 0x4 DUP3 ADD MSTORE PUSH1 0x2F PUSH1 0x24 DUP3 ADD MSTORE PUSH32 0x4552433732314D657461646174613A2055524920717565727920666F72206E6F PUSH1 0x44 DUP3 ADD MSTORE PUSH15 0x3732BC34B9BA32B73A103A37B5B2B7 PUSH1 0x89 SHL PUSH1 0x64 DUP3 ADD MSTORE PUSH1 0x84 ADD PUSH2 0xE7F JUMP JUMPDEST PUSH1 0x0 PUSH2 0x2A4C PUSH2 0x380A JUMP JUMPDEST SWAP1 POP PUSH1 0x0 DUP2 MLOAD GT PUSH2 0x2A6C JUMPI PUSH1 0x40 MLOAD DUP1 PUSH1 0x20 ADD PUSH1 0x40 MSTORE DUP1 PUSH1 0x0 DUP2 MSTORE POP PUSH2 0x2A9B JUMP JUMPDEST DUP1 PUSH2 0x2A76 DUP5 PUSH2 0x381A JUMP JUMPDEST PUSH2 0x140 PUSH1 0x40 MLOAD PUSH1 0x20 ADD PUSH2 0x2A8B SWAP4 SWAP3 SWAP2 SWAP1 PUSH2 0x47A7 JUMP JUMPDEST PUSH1 0x40 MLOAD PUSH1 0x20 DUP2 DUP4 SUB SUB DUP2 MSTORE SWAP1 PUSH1 0x40 MSTORE JUMPDEST SWAP4 SWAP3 POP POP POP JUMP JUMPDEST PUSH1 0x97 SLOAD PUSH1 0x1 PUSH1 0x1 PUSH1 0xA0 SHL SUB AND CALLER EQ DUP1 PUSH2 0x2AC6 JUMPI POP PUSH2 0x132 SLOAD PUSH1 0x1 PUSH1 0x1 PUSH1 0xA0 SHL SUB AND CALLER EQ JUMPDEST PUSH2 0x2ACF JUMPI PUSH1 0x0 DUP1 REVERT JUMPDEST DUP1 MLOAD DUP3 MLOAD EQ PUSH2 0x2ADD JUMPI PUSH1 0x0 DUP1 REVERT JUMPDEST PUSH1 0x0 JUMPDEST DUP3 MLOAD DUP2 LT ISZERO PUSH2 0x1022 JUMPI PUSH1 0x5 DUP3 DUP3 DUP2 MLOAD DUP2 LT PUSH2 0x2AFD JUMPI PUSH2 0x2AFD PUSH2 0x4719 JUMP JUMPDEST PUSH1 0x20 MUL PUSH1 0x20 ADD ADD MLOAD LT PUSH2 0x2B0F JUMPI PUSH1 0x0 DUP1 REVERT JUMPDEST DUP2 DUP2 DUP2 MLOAD DUP2 LT PUSH2 0x2B21 JUMPI PUSH2 0x2B21 PUSH2 0x4719 JUMP JUMPDEST PUSH1 0x20 MUL PUSH1 0x20 ADD ADD MLOAD PUSH2 0x148 PUSH1 0x0 DUP6 DUP5 DUP2 MLOAD DUP2 LT PUSH2 0x2B40 JUMPI PUSH2 0x2B40 PUSH2 0x4719 JUMP JUMPDEST PUSH1 0x20 MUL PUSH1 0x20 ADD ADD MLOAD DUP2 MSTORE PUSH1 0x20 ADD SWAP1 DUP2 MSTORE PUSH1 0x20 ADD PUSH1 0x0 KECCAK256 PUSH1 0x3 ADD DUP2 SWAP1 SSTORE POP DUP1 PUSH2 0x2B67 SWAP1 PUSH2 0x472F JUMP JUMPDEST SWAP1 POP PUSH2 0x2AE0 JUMP JUMPDEST PUSH1 0x2 PUSH1 0xFB SLOAD EQ ISZERO PUSH2 0x2B91 JUMPI PUSH1 0x40 MLOAD PUSH3 0x461BCD PUSH1 0xE5 SHL DUP2 MSTORE PUSH1 0x4 ADD PUSH2 0xE7F SWAP1 PUSH2 0x45D9 JUMP JUMPDEST PUSH1 0x2 PUSH1 0xFB SSTORE PUSH2 0x2B9F DUP2 PUSH2 0x1BE3 JUMP JUMPDEST PUSH1 0x1 PUSH1 0x1 PUSH1 0xA0 SHL SUB AND CALLER PUSH1 0x1 PUSH1 0x1 PUSH1 0xA0 SHL SUB AND EQ PUSH2 0x2C0B JUMPI PUSH1 0x40 MLOAD PUSH3 0x461BCD PUSH1 0xE5 SHL DUP2 MSTORE PUSH1 0x20 PUSH1 0x4 DUP3 ADD MSTORE PUSH1 0x24 DUP1 DUP3 ADD MSTORE PUSH32 0x596F7520617265206E6F7420746865206F776E6572206F662074686973204172 PUSH1 0x44 DUP3 ADD MSTORE PUSH4 0x656E6121 PUSH1 0xE0 SHL PUSH1 0x64 DUP3 ADD MSTORE PUSH1 0x84 ADD PUSH2 0xE7F JUMP JUMPDEST PUSH1 0x0 DUP2 DUP2 MSTORE PUSH2 0x148 PUSH1 0x20 SWAP1 DUP2 MSTORE PUSH1 0x40 SWAP2 DUP3 SWAP1 KECCAK256 DUP3 MLOAD PUSH2 0x100 DUP2 ADD DUP5 MSTORE DUP2 SLOAD PUSH1 0xFF AND ISZERO ISZERO DUP1 DUP3 MSTORE PUSH1 0x1 DUP4 ADD SLOAD SWAP4 DUP3 ADD SWAP4 SWAP1 SWAP4 MSTORE PUSH1 0x2 DUP3 ADD SLOAD SWAP4 DUP2 ADD SWAP4 SWAP1 SWAP4 MSTORE PUSH1 0x3 DUP2 ADD SLOAD PUSH1 0x60 DUP5 ADD MSTORE PUSH1 0x4 DUP2 ADD SLOAD PUSH1 0x80 DUP5 ADD MSTORE PUSH1 0x5 DUP2 ADD SLOAD PUSH1 0xA0 DUP5 ADD MSTORE PUSH1 0x6 DUP2 ADD SLOAD PUSH1 0xC0 DUP5 ADD MSTORE PUSH1 0x7 ADD SLOAD PUSH1 0xE0 DUP4 ADD MSTORE PUSH2 0x2CBD JUMPI PUSH1 0x40 MLOAD PUSH3 0x461BCD PUSH1 0xE5 SHL DUP2 MSTORE PUSH1 0x20 PUSH1 0x4 DUP3 ADD MSTORE PUSH1 0x14 PUSH1 0x24 DUP3 ADD MSTORE PUSH20 0x4172656E61206973206E6F74207374616B656421 PUSH1 0x60 SHL PUSH1 0x44 DUP3 ADD MSTORE PUSH1 0x64 ADD PUSH2 0xE7F JUMP JUMPDEST PUSH1 0x0 PUSH2 0x2CC8 DUP4 PUSH2 0x31E2 JUMP JUMPDEST SWAP1 POP DUP1 DUP3 PUSH1 0xC0 ADD DUP2 DUP2 MLOAD PUSH2 0x2CDC SWAP2 SWAP1 PUSH2 0x4626 JUMP JUMPDEST SWAP1 MSTORE POP PUSH1 0x0 PUSH2 0x2CEA DUP5 PUSH2 0x3265 JUMP JUMPDEST SWAP1 POP DUP1 DUP4 PUSH1 0xE0 ADD DUP2 DUP2 MLOAD PUSH2 0x2CFE SWAP2 SWAP1 PUSH2 0x4626 JUMP JUMPDEST SWAP1 MSTORE POP PUSH1 0x0 DUP4 MSTORE PUSH2 0x2D0E DUP5 PUSH2 0x357A JUMP JUMPDEST PUSH1 0x40 DUP5 DUP2 ADD SWAP2 DUP3 MSTORE PUSH1 0x0 PUSH1 0x80 DUP7 ADD DUP2 DUP2 MSTORE TIMESTAMP PUSH1 0xA0 DUP9 ADD SWAP1 DUP2 MSTORE DUP9 DUP4 MSTORE PUSH2 0x148 PUSH1 0x20 SWAP1 DUP2 MSTORE DUP5 DUP5 KECCAK256 DUP10 MLOAD DUP2 SLOAD PUSH1 0xFF NOT AND SWAP1 ISZERO ISZERO OR DUP2 SSTORE DUP2 DUP11 ADD MLOAD PUSH1 0x1 DUP3 ADD SSTORE SWAP6 MLOAD PUSH1 0x2 DUP8 ADD SSTORE PUSH1 0x60 DUP10 ADD MLOAD PUSH1 0x3 DUP8 ADD SSTORE SWAP2 MLOAD PUSH1 0x4 DUP7 ADD SSTORE MLOAD PUSH1 0x5 DUP6 ADD SSTORE PUSH1 0xC0 DUP8 ADD MLOAD PUSH1 0x6 DUP6 ADD SSTORE PUSH1 0xE0 DUP8 ADD MLOAD PUSH1 0x7 SWAP1 SWAP5 ADD SWAP4 SWAP1 SWAP4 SSTORE CALLER DUP2 MSTORE PUSH2 0x146 DUP4 MSTORE DUP2 DUP2 KECCAK256 DUP1 SLOAD DUP4 MLOAD DUP2 DUP7 MUL DUP2 ADD DUP7 ADD SWAP1 SWAP5 MSTORE DUP1 DUP5 MSTORE SWAP2 SWAP4 SWAP1 SWAP2 SWAP1 DUP4 ADD DUP3 DUP3 DUP1 ISZERO PUSH2 0x2DD2 JUMPI PUSH1 0x20 MUL DUP3 ADD SWAP2 SWAP1 PUSH1 0x0 MSTORE PUSH1 0x20 PUSH1 0x0 KECCAK256 SWAP1 JUMPDEST DUP2 SLOAD DUP2 MSTORE PUSH1 0x20 ADD SWAP1 PUSH1 0x1 ADD SWAP1 DUP1 DUP4 GT PUSH2 0x2DBE JUMPI JUMPDEST POP POP POP POP POP SWAP1 POP PUSH1 0x0 JUMPDEST DUP2 MLOAD DUP2 LT ISZERO PUSH2 0x2E5C JUMPI DUP6 DUP3 DUP3 DUP2 MLOAD DUP2 LT PUSH2 0x2DF8 JUMPI PUSH2 0x2DF8 PUSH2 0x4719 JUMP JUMPDEST PUSH1 0x20 MUL PUSH1 0x20 ADD ADD MLOAD EQ ISZERO PUSH2 0x2E4C JUMPI DUP2 PUSH1 0x1 DUP4 MLOAD PUSH2 0x2E15 SWAP2 SWAP1 PUSH2 0x4790 JUMP JUMPDEST DUP2 MLOAD DUP2 LT PUSH2 0x2E25 JUMPI PUSH2 0x2E25 PUSH2 0x4719 JUMP JUMPDEST PUSH1 0x20 MUL PUSH1 0x20 ADD ADD MLOAD DUP3 DUP3 DUP2 MLOAD DUP2 LT PUSH2 0x2E3F JUMPI PUSH2 0x2E3F PUSH2 0x4719 JUMP JUMPDEST PUSH1 0x20 MUL PUSH1 0x20 ADD ADD DUP2 DUP2 MSTORE POP POP JUMPDEST PUSH2 0x2E55 DUP2 PUSH2 0x472F JUMP JUMPDEST SWAP1 POP PUSH2 0x2DDC JUMP JUMPDEST POP CALLER PUSH1 0x0 SWAP1 DUP2 MSTORE PUSH2 0x146 PUSH1 0x20 SWAP1 DUP2 MSTORE PUSH1 0x40 SWAP1 SWAP2 KECCAK256 DUP3 MLOAD PUSH2 0x2E7E SWAP3 DUP5 ADD SWAP1 PUSH2 0x3FE7 JUMP JUMPDEST POP CALLER PUSH1 0x0 SWAP1 DUP2 MSTORE PUSH2 0x146 PUSH1 0x20 MSTORE PUSH1 0x40 SWAP1 KECCAK256 DUP1 SLOAD DUP1 PUSH2 0x2E9E JUMPI PUSH2 0x2E9E PUSH2 0x486B JUMP JUMPDEST PUSH1 0x1 SWAP1 SUB DUP2 DUP2 SWAP1 PUSH1 0x0 MSTORE PUSH1 0x20 PUSH1 0x0 KECCAK256 ADD PUSH1 0x0 SWAP1 SSTORE SWAP1 SSTORE POP POP POP POP PUSH1 0x1 PUSH1 0xFB DUP2 SWAP1 SSTORE POP POP JUMP JUMPDEST DUP2 PUSH2 0x13D SLOAD DUP2 GT ISZERO PUSH2 0x2EE7 JUMPI PUSH1 0x40 MLOAD PUSH3 0x461BCD PUSH1 0xE5 SHL DUP2 MSTORE PUSH1 0x4 ADD PUSH2 0xE7F SWAP1 PUSH2 0x474A JUMP JUMPDEST PUSH2 0x13E SLOAD DUP2 PUSH2 0x133 SLOAD PUSH2 0x2EFA SWAP2 SWAP1 PUSH2 0x4626 JUMP JUMPDEST GT ISZERO PUSH2 0x2F3F JUMPI PUSH1 0x40 MLOAD PUSH3 0x461BCD PUSH1 0xE5 SHL DUP2 MSTORE PUSH1 0x20 PUSH1 0x4 DUP3 ADD MSTORE PUSH1 0x14 PUSH1 0x24 DUP3 ADD MSTORE PUSH20 0x4D617820737570706C7920657863656564656421 PUSH1 0x60 SHL PUSH1 0x44 DUP3 ADD MSTORE PUSH1 0x64 ADD PUSH2 0xE7F JUMP JUMPDEST PUSH2 0x132 SLOAD PUSH1 0x1 PUSH1 0xA0 SHL SWAP1 DIV PUSH1 0xFF AND ISZERO PUSH2 0x2F8F JUMPI PUSH1 0x40 MLOAD PUSH3 0x461BCD PUSH1 0xE5 SHL DUP2 MSTORE PUSH1 0x20 PUSH1 0x4 DUP3 ADD MSTORE PUSH1 0x12 PUSH1 0x24 DUP3 ADD MSTORE PUSH18 0x4D696E74696E672069732070617573656421 PUSH1 0x70 SHL PUSH1 0x44 DUP3 ADD MSTORE PUSH1 0x64 ADD PUSH2 0xE7F JUMP JUMPDEST PUSH1 0x97 SLOAD PUSH1 0x1 PUSH1 0x1 PUSH1 0xA0 SHL SUB AND CALLER EQ PUSH2 0x2FB9 JUMPI PUSH1 0x40 MLOAD PUSH3 0x461BCD PUSH1 0xE5 SHL DUP2 MSTORE PUSH1 0x4 ADD PUSH2 0xE7F SWAP1 PUSH2 0x46CB JUMP JUMPDEST PUSH2 0x1022 DUP3 DUP5 PUSH2 0x36C8 JUMP JUMPDEST PUSH1 0x97 SLOAD PUSH1 0x1 PUSH1 0x1 PUSH1 0xA0 SHL SUB AND CALLER EQ PUSH2 0x2FED JUMPI PUSH1 0x40 MLOAD PUSH3 0x461BCD PUSH1 0xE5 SHL DUP2 MSTORE PUSH1 0x4 ADD PUSH2 0xE7F SWAP1 PUSH2 0x46CB JUMP JUMPDEST PUSH1 0x1 PUSH1 0x1 PUSH1 0xA0 SHL SUB DUP2 AND PUSH2 0x3052 JUMPI PUSH1 0x40 MLOAD PUSH3 0x461BCD PUSH1 0xE5 SHL DUP2 MSTORE PUSH1 0x20 PUSH1 0x4 DUP3 ADD MSTORE PUSH1 0x26 PUSH1 0x24 DUP3 ADD MSTORE PUSH32 0x4F776E61626C653A206E6577206F776E657220697320746865207A65726F2061 PUSH1 0x44 DUP3 ADD MSTORE PUSH6 0x646472657373 PUSH1 0xD0 SHL PUSH1 0x64 DUP3 ADD MSTORE PUSH1 0x84 ADD PUSH2 0xE7F JUMP JUMPDEST PUSH2 0x135B DUP2 PUSH2 0x35E7 JUMP JUMPDEST PUSH1 0x97 SLOAD PUSH1 0x1 PUSH1 0x1 PUSH1 0xA0 SHL SUB AND CALLER EQ DUP1 PUSH2 0x307F JUMPI POP PUSH2 0x132 SLOAD PUSH1 0x1 PUSH1 0x1 PUSH1 0xA0 SHL SUB AND CALLER EQ JUMPDEST PUSH2 0x3088 JUMPI PUSH1 0x0 DUP1 REVERT JUMPDEST PUSH2 0x13B SWAP2 SWAP1 SWAP2 SSTORE PUSH2 0x13C SSTORE JUMP JUMPDEST PUSH1 0x97 SLOAD PUSH1 0x1 PUSH1 0x1 PUSH1 0xA0 SHL SUB AND CALLER EQ DUP1 PUSH2 0x30B9 JUMPI POP PUSH2 0x132 SLOAD PUSH1 0x1 PUSH1 0x1 PUSH1 0xA0 SHL SUB AND CALLER EQ JUMPDEST PUSH2 0x30C2 JUMPI PUSH1 0x0 DUP1 REVERT JUMPDEST PUSH2 0x131 DUP1 SLOAD PUSH1 0x1 PUSH1 0x1 PUSH1 0xA0 SHL SUB NOT AND PUSH1 0x1 PUSH1 0x1 PUSH1 0xA0 SHL SUB SWAP3 SWAP1 SWAP3 AND SWAP2 SWAP1 SWAP2 OR SWAP1 SSTORE JUMP JUMPDEST PUSH1 0x97 SLOAD PUSH1 0x1 PUSH1 0x1 PUSH1 0xA0 SHL SUB AND CALLER EQ DUP1 PUSH2 0x3109 JUMPI POP PUSH2 0x132 SLOAD PUSH1 0x1 PUSH1 0x1 PUSH1 0xA0 SHL SUB AND CALLER EQ JUMPDEST PUSH2 0x3112 JUMPI PUSH1 0x0 DUP1 REVERT JUMPDEST PUSH2 0xFA0 PUSH2 0x13E SLOAD GT ISZERO PUSH2 0x3124 JUMPI PUSH1 0x0 DUP1 REVERT JUMPDEST PUSH2 0x3E8 PUSH2 0x13E PUSH1 0x0 DUP3 DUP3 SLOAD PUSH2 0x3139 SWAP2 SWAP1 PUSH2 0x4626 JUMP JUMPDEST SWAP1 SWAP2 SSTORE POP POP JUMP JUMPDEST PUSH1 0x1 PUSH1 0x1 PUSH1 0xA0 SHL SUB AND EXTCODESIZE ISZERO ISZERO SWAP1 JUMP JUMPDEST PUSH1 0x0 PUSH1 0x1 PUSH1 0x1 PUSH1 0xE0 SHL SUB NOT DUP3 AND PUSH4 0x780E9D63 PUSH1 0xE0 SHL EQ DUP1 PUSH2 0xD72 JUMPI POP PUSH2 0xD72 DUP3 PUSH2 0x3918 JUMP JUMPDEST PUSH1 0x0 DUP2 DUP2 MSTORE PUSH1 0x69 PUSH1 0x20 MSTORE PUSH1 0x40 SWAP1 KECCAK256 DUP1 SLOAD PUSH1 0x1 PUSH1 0x1 PUSH1 0xA0 SHL SUB NOT AND PUSH1 0x1 PUSH1 0x1 PUSH1 0xA0 SHL SUB DUP5 AND SWAP1 DUP2 OR SWAP1 SWAP2 SSTORE DUP2 SWAP1 PUSH2 0x31A9 DUP3 PUSH2 0x1BE3 JUMP JUMPDEST PUSH1 0x1 PUSH1 0x1 PUSH1 0xA0 SHL SUB AND PUSH32 0x8C5BE1E5EBEC7D5BD14F71427D1E84F3DD0314C0F7B2291E5B200AC8C7C3B925 PUSH1 0x40 MLOAD PUSH1 0x40 MLOAD DUP1 SWAP2 SUB SWAP1 LOG4 POP POP JUMP JUMPDEST PUSH1 0x0 DUP2 DUP2 MSTORE PUSH2 0x148 PUSH1 0x20 MSTORE PUSH1 0x40 DUP2 KECCAK256 SLOAD PUSH1 0xFF AND ISZERO PUSH2 0x325D JUMPI PUSH2 0x145 SLOAD PUSH1 0x0 DUP4 DUP2 MSTORE PUSH2 0x148 PUSH1 0x20 MSTORE PUSH1 0x40 SWAP1 KECCAK256 PUSH1 0x1 ADD SLOAD PUSH2 0xE10 SWAP2 PUSH2 0x321E SWAP2 PUSH2 0x4626 JUMP JUMPDEST PUSH2 0x143 SLOAD PUSH1 0x0 DUP6 DUP2 MSTORE PUSH2 0x148 PUSH1 0x20 MSTORE PUSH1 0x40 SWAP1 KECCAK256 PUSH1 0x5 ADD SLOAD PUSH2 0x323F SWAP1 TIMESTAMP PUSH2 0x4790 JUMP JUMPDEST PUSH2 0x3249 SWAP2 SWAP1 PUSH2 0x46AC JUMP JUMPDEST PUSH2 0x3253 SWAP2 SWAP1 PUSH2 0x46AC JUMP JUMPDEST PUSH2 0xD72 SWAP2 SWAP1 PUSH2 0x4897 JUMP JUMPDEST POP PUSH1 0x0 SWAP2 SWAP1 POP JUMP JUMPDEST PUSH1 0x0 DUP2 DUP2 MSTORE PUSH2 0x148 PUSH1 0x20 MSTORE PUSH1 0x40 DUP2 KECCAK256 SLOAD PUSH1 0xFF AND ISZERO PUSH2 0x325D JUMPI PUSH2 0x145 SLOAD PUSH1 0x0 DUP4 DUP2 MSTORE PUSH2 0x148 PUSH1 0x20 MSTORE PUSH1 0x40 SWAP1 KECCAK256 PUSH1 0x1 ADD SLOAD PUSH2 0xE10 SWAP2 PUSH2 0x32A1 SWAP2 PUSH2 0x4626 JUMP JUMPDEST PUSH2 0x144 SLOAD PUSH1 0x0 DUP6 DUP2 MSTORE PUSH2 0x148 PUSH1 0x20 MSTORE PUSH1 0x40 SWAP1 KECCAK256 PUSH1 0x5 ADD SLOAD PUSH2 0x323F SWAP1 TIMESTAMP PUSH2 0x4790 JUMP JUMPDEST PUSH2 0x217A DUP3 DUP3 PUSH1 0x40 MLOAD DUP1 PUSH1 0x20 ADD PUSH1 0x40 MSTORE DUP1 PUSH1 0x0 DUP2 MSTORE POP PUSH2 0x3968 JUMP JUMPDEST PUSH1 0x0 DUP2 DUP2 MSTORE PUSH1 0x67 PUSH1 0x20 MSTORE PUSH1 0x40 DUP2 KECCAK256 SLOAD PUSH1 0x1 PUSH1 0x1 PUSH1 0xA0 SHL SUB AND PUSH2 0x3355 JUMPI PUSH1 0x40 MLOAD PUSH3 0x461BCD PUSH1 0xE5 SHL DUP2 MSTORE PUSH1 0x20 PUSH1 0x4 DUP3 ADD MSTORE PUSH1 0x2C PUSH1 0x24 DUP3 ADD MSTORE PUSH32 0x4552433732313A206F70657261746F7220717565727920666F72206E6F6E6578 PUSH1 0x44 DUP3 ADD MSTORE PUSH12 0x34B9BA32B73A103A37B5B2B7 PUSH1 0xA1 SHL PUSH1 0x64 DUP3 ADD MSTORE PUSH1 0x84 ADD PUSH2 0xE7F JUMP JUMPDEST PUSH1 0x0 PUSH2 0x3360 DUP4 PUSH2 0x1BE3 JUMP JUMPDEST SWAP1 POP DUP1 PUSH1 0x1 PUSH1 0x1 PUSH1 0xA0 SHL SUB AND DUP5 PUSH1 0x1 PUSH1 0x1 PUSH1 0xA0 SHL SUB AND EQ DUP1 PUSH2 0x339B JUMPI POP DUP4 PUSH1 0x1 PUSH1 0x1 PUSH1 0xA0 SHL SUB AND PUSH2 0x3390 DUP5 PUSH2 0xE0A JUMP JUMPDEST PUSH1 0x1 PUSH1 0x1 PUSH1 0xA0 SHL SUB AND EQ JUMPDEST DUP1 PUSH2 0x33CB JUMPI POP PUSH1 0x1 PUSH1 0x1 PUSH1 0xA0 SHL SUB DUP1 DUP3 AND PUSH1 0x0 SWAP1 DUP2 MSTORE PUSH1 0x6A PUSH1 0x20 SWAP1 DUP2 MSTORE PUSH1 0x40 DUP1 DUP4 KECCAK256 SWAP4 DUP9 AND DUP4 MSTORE SWAP3 SWAP1 MSTORE KECCAK256 SLOAD PUSH1 0xFF AND JUMPDEST SWAP5 SWAP4 POP POP POP POP JUMP JUMPDEST DUP3 PUSH1 0x1 PUSH1 0x1 PUSH1 0xA0 SHL SUB AND PUSH2 0x33E6 DUP3 PUSH2 0x1BE3 JUMP JUMPDEST PUSH1 0x1 PUSH1 0x1 PUSH1 0xA0 SHL SUB AND EQ PUSH2 0x344A JUMPI PUSH1 0x40 MLOAD PUSH3 0x461BCD PUSH1 0xE5 SHL DUP2 MSTORE PUSH1 0x20 PUSH1 0x4 DUP3 ADD MSTORE PUSH1 0x25 PUSH1 0x24 DUP3 ADD MSTORE PUSH32 0x4552433732313A207472616E736665722066726F6D20696E636F727265637420 PUSH1 0x44 DUP3 ADD MSTORE PUSH5 0x37BBB732B9 PUSH1 0xD9 SHL PUSH1 0x64 DUP3 ADD MSTORE PUSH1 0x84 ADD PUSH2 0xE7F JUMP JUMPDEST PUSH1 0x1 PUSH1 0x1 PUSH1 0xA0 SHL SUB DUP3 AND PUSH2 0x34AC JUMPI PUSH1 0x40 MLOAD PUSH3 0x461BCD PUSH1 0xE5 SHL DUP2 MSTORE PUSH1 0x20 PUSH1 0x4 DUP3 ADD MSTORE PUSH1 0x24 DUP1 DUP3 ADD MSTORE PUSH32 0x4552433732313A207472616E7366657220746F20746865207A65726F20616464 PUSH1 0x44 DUP3 ADD MSTORE PUSH4 0x72657373 PUSH1 0xE0 SHL PUSH1 0x64 DUP3 ADD MSTORE PUSH1 0x84 ADD PUSH2 0xE7F JUMP JUMPDEST PUSH2 0x34B7 DUP4 DUP4 DUP4 PUSH2 0x399B JUMP JUMPDEST PUSH2 0x34C2 PUSH1 0x0 DUP3 PUSH2 0x3174 JUMP JUMPDEST PUSH1 0x1 PUSH1 0x1 PUSH1 0xA0 SHL SUB DUP4 AND PUSH1 0x0 SWAP1 DUP2 MSTORE PUSH1 0x68 PUSH1 0x20 MSTORE PUSH1 0x40 DUP2 KECCAK256 DUP1 SLOAD PUSH1 0x1 SWAP3 SWAP1 PUSH2 0x34EB SWAP1 DUP5 SWAP1 PUSH2 0x4790 JUMP JUMPDEST SWAP1 SWAP2 SSTORE POP POP PUSH1 0x1 PUSH1 0x1 PUSH1 0xA0 SHL SUB DUP3 AND PUSH1 0x0 SWAP1 DUP2 MSTORE PUSH1 0x68 PUSH1 0x20 MSTORE PUSH1 0x40 DUP2 KECCAK256 DUP1 SLOAD PUSH1 0x1 SWAP3 SWAP1 PUSH2 0x3519 SWAP1 DUP5 SWAP1 PUSH2 0x4626 JUMP JUMPDEST SWAP1 SWAP2 SSTORE POP POP PUSH1 0x0 DUP2 DUP2 MSTORE PUSH1 0x67 PUSH1 0x20 MSTORE PUSH1 0x40 DUP1 DUP3 KECCAK256 DUP1 SLOAD PUSH1 0x1 PUSH1 0x1 PUSH1 0xA0 SHL SUB NOT AND PUSH1 0x1 PUSH1 0x1 PUSH1 0xA0 SHL SUB DUP7 DUP2 AND SWAP2 DUP3 OR SWAP1 SWAP3 SSTORE SWAP2 MLOAD DUP5 SWAP4 SWAP2 DUP8 AND SWAP2 PUSH32 0xDDF252AD1BE2C89B69C2B068FC378DAA952BA7F163C4A11628F55A4DF523B3EF SWAP2 LOG4 POP POP POP JUMP JUMPDEST PUSH1 0x0 DUP2 DUP2 MSTORE PUSH2 0x148 PUSH1 0x20 MSTORE PUSH1 0x40 DUP2 KECCAK256 PUSH1 0x4 ADD SLOAD PUSH2 0x35A8 JUMPI POP PUSH1 0x0 SWAP1 DUP2 MSTORE PUSH2 0x148 PUSH1 0x20 MSTORE PUSH1 0x40 SWAP1 KECCAK256 PUSH1 0x2 ADD SLOAD SWAP1 JUMP JUMPDEST PUSH1 0x0 DUP3 DUP2 MSTORE PUSH2 0x148 PUSH1 0x20 MSTORE PUSH1 0x40 SWAP1 KECCAK256 PUSH1 0x2 DUP2 ADD SLOAD PUSH2 0x142 SLOAD PUSH1 0x4 SWAP1 SWAP3 ADD SLOAD SWAP1 SWAP2 SWAP1 PUSH2 0x35D3 SWAP1 TIMESTAMP PUSH2 0x4790 JUMP JUMPDEST PUSH2 0x35DD SWAP2 SWAP1 PUSH2 0x4897 JUMP JUMPDEST PUSH2 0xD72 SWAP2 SWAP1 PUSH2 0x4626 JUMP JUMPDEST PUSH1 0x97 DUP1 SLOAD PUSH1 0x1 PUSH1 0x1 PUSH1 0xA0 SHL SUB DUP4 DUP2 AND PUSH1 0x1 PUSH1 0x1 PUSH1 0xA0 SHL SUB NOT DUP4 AND DUP2 OR SWAP1 SWAP4 SSTORE PUSH1 0x40 MLOAD SWAP2 AND SWAP2 SWAP1 DUP3 SWAP1 PUSH32 0x8BE0079C531659141344CD1FD0A4F28419497F9722A3DAAFE3B4186F6B6457E0 SWAP1 PUSH1 0x0 SWAP1 LOG3 POP POP JUMP JUMPDEST PUSH1 0x0 SLOAD PUSH2 0x100 SWAP1 DIV PUSH1 0xFF AND PUSH2 0x3660 JUMPI PUSH1 0x40 MLOAD PUSH3 0x461BCD PUSH1 0xE5 SHL DUP2 MSTORE PUSH1 0x4 ADD PUSH2 0xE7F SWAP1 PUSH2 0x48AB JUMP JUMPDEST PUSH2 0x217A DUP3 DUP3 PUSH2 0x3A23 JUMP JUMPDEST PUSH1 0x0 SLOAD PUSH2 0x100 SWAP1 DIV PUSH1 0xFF AND PUSH2 0x3691 JUMPI PUSH1 0x40 MLOAD PUSH3 0x461BCD PUSH1 0xE5 SHL DUP2 MSTORE PUSH1 0x4 ADD PUSH2 0xE7F SWAP1 PUSH2 0x48AB JUMP JUMPDEST PUSH2 0x1DB2 PUSH2 0x3A71 JUMP JUMPDEST PUSH1 0x0 SLOAD PUSH2 0x100 SWAP1 DIV PUSH1 0xFF AND PUSH2 0x36C0 JUMPI PUSH1 0x40 MLOAD PUSH3 0x461BCD PUSH1 0xE5 SHL DUP2 MSTORE PUSH1 0x4 ADD PUSH2 0xE7F SWAP1 PUSH2 0x48AB JUMP JUMPDEST PUSH2 0x1DB2 PUSH2 0x3AA1 JUMP JUMPDEST PUSH1 0x0 JUMPDEST DUP2 DUP2 LT ISZERO PUSH2 0x1022 JUMPI PUSH2 0x133 DUP1 SLOAD SWAP1 PUSH1 0x0 PUSH2 0x36E4 DUP4 PUSH2 0x472F JUMP JUMPDEST SWAP2 SWAP1 POP SSTORE POP PUSH2 0x36F6 DUP4 PUSH2 0x133 SLOAD PUSH2 0x32C2 JUMP JUMPDEST DUP1 PUSH2 0x3700 DUP2 PUSH2 0x472F JUMP JUMPDEST SWAP2 POP POP PUSH2 0x36CB JUMP JUMPDEST DUP2 PUSH1 0x1 PUSH1 0x1 PUSH1 0xA0 SHL SUB AND DUP4 PUSH1 0x1 PUSH1 0x1 PUSH1 0xA0 SHL SUB AND EQ ISZERO PUSH2 0x376A JUMPI PUSH1 0x40 MLOAD PUSH3 0x461BCD PUSH1 0xE5 SHL DUP2 MSTORE PUSH1 0x20 PUSH1 0x4 DUP3 ADD MSTORE PUSH1 0x19 PUSH1 0x24 DUP3 ADD MSTORE PUSH32 0x4552433732313A20617070726F766520746F2063616C6C657200000000000000 PUSH1 0x44 DUP3 ADD MSTORE PUSH1 0x64 ADD PUSH2 0xE7F JUMP JUMPDEST PUSH1 0x1 PUSH1 0x1 PUSH1 0xA0 SHL SUB DUP4 DUP2 AND PUSH1 0x0 DUP2 DUP2 MSTORE PUSH1 0x6A PUSH1 0x20 SWAP1 DUP2 MSTORE PUSH1 0x40 DUP1 DUP4 KECCAK256 SWAP5 DUP8 AND DUP1 DUP5 MSTORE SWAP5 DUP3 MSTORE SWAP2 DUP3 SWAP1 KECCAK256 DUP1 SLOAD PUSH1 0xFF NOT AND DUP7 ISZERO ISZERO SWAP1 DUP2 OR SWAP1 SWAP2 SSTORE SWAP2 MLOAD SWAP2 DUP3 MSTORE PUSH32 0x17307EAB39AB6107E8899845AD3D59BD9653F200F220920489CA2B5937696C31 SWAP2 ADD PUSH1 0x40 MLOAD DUP1 SWAP2 SUB SWAP1 LOG3 POP POP POP JUMP JUMPDEST PUSH2 0x37E2 DUP5 DUP5 DUP5 PUSH2 0x33D3 JUMP JUMPDEST PUSH2 0x37EE DUP5 DUP5 DUP5 DUP5 PUSH2 0x3ACF JUMP JUMPDEST PUSH2 0x2857 JUMPI PUSH1 0x40 MLOAD PUSH3 0x461BCD PUSH1 0xE5 SHL DUP2 MSTORE PUSH1 0x4 ADD PUSH2 0xE7F SWAP1 PUSH2 0x48F6 JUMP JUMPDEST PUSH1 0x60 PUSH2 0x13F DUP1 SLOAD PUSH2 0xD87 SWAP1 PUSH2 0x459E JUMP JUMPDEST PUSH1 0x60 DUP2 PUSH2 0x383E JUMPI POP POP PUSH1 0x40 DUP1 MLOAD DUP1 DUP3 ADD SWAP1 SWAP2 MSTORE PUSH1 0x1 DUP2 MSTORE PUSH1 0x3 PUSH1 0xFC SHL PUSH1 0x20 DUP3 ADD MSTORE SWAP1 JUMP JUMPDEST DUP2 PUSH1 0x0 JUMPDEST DUP2 ISZERO PUSH2 0x3868 JUMPI DUP1 PUSH2 0x3852 DUP2 PUSH2 0x472F JUMP JUMPDEST SWAP2 POP PUSH2 0x3861 SWAP1 POP PUSH1 0xA DUP4 PUSH2 0x4897 JUMP JUMPDEST SWAP2 POP PUSH2 0x3842 JUMP JUMPDEST PUSH1 0x0 DUP2 PUSH8 0xFFFFFFFFFFFFFFFF DUP2 GT ISZERO PUSH2 0x3883 JUMPI PUSH2 0x3883 PUSH2 0x4268 JUMP JUMPDEST PUSH1 0x40 MLOAD SWAP1 DUP1 DUP3 MSTORE DUP1 PUSH1 0x1F ADD PUSH1 0x1F NOT AND PUSH1 0x20 ADD DUP3 ADD PUSH1 0x40 MSTORE DUP1 ISZERO PUSH2 0x38AD JUMPI PUSH1 0x20 DUP3 ADD DUP2 DUP1 CALLDATASIZE DUP4 CALLDATACOPY ADD SWAP1 POP JUMPDEST POP SWAP1 POP JUMPDEST DUP5 ISZERO PUSH2 0x33CB JUMPI PUSH2 0x38C2 PUSH1 0x1 DUP4 PUSH2 0x4790 JUMP JUMPDEST SWAP2 POP PUSH2 0x38CF PUSH1 0xA DUP7 PUSH2 0x4948 JUMP JUMPDEST PUSH2 0x38DA SWAP1 PUSH1 0x30 PUSH2 0x4626 JUMP JUMPDEST PUSH1 0xF8 SHL DUP2 DUP4 DUP2 MLOAD DUP2 LT PUSH2 0x38EF JUMPI PUSH2 0x38EF PUSH2 0x4719 JUMP JUMPDEST PUSH1 0x20 ADD ADD SWAP1 PUSH1 0x1 PUSH1 0x1 PUSH1 0xF8 SHL SUB NOT AND SWAP1 DUP2 PUSH1 0x0 BYTE SWAP1 MSTORE8 POP PUSH2 0x3911 PUSH1 0xA DUP7 PUSH2 0x4897 JUMP JUMPDEST SWAP5 POP PUSH2 0x38B1 JUMP JUMPDEST PUSH1 0x0 PUSH1 0x1 PUSH1 0x1 PUSH1 0xE0 SHL SUB NOT DUP3 AND PUSH4 0x80AC58CD PUSH1 0xE0 SHL EQ DUP1 PUSH2 0x3949 JUMPI POP PUSH1 0x1 PUSH1 0x1 PUSH1 0xE0 SHL SUB NOT DUP3 AND PUSH4 0x5B5E139F PUSH1 0xE0 SHL EQ JUMPDEST DUP1 PUSH2 0xD72 JUMPI POP PUSH4 0x1FFC9A7 PUSH1 0xE0 SHL PUSH1 0x1 PUSH1 0x1 PUSH1 0xE0 SHL SUB NOT DUP4 AND EQ PUSH2 0xD72 JUMP JUMPDEST PUSH2 0x3972 DUP4 DUP4 PUSH2 0x3BCD JUMP JUMPDEST PUSH2 0x397F PUSH1 0x0 DUP5 DUP5 DUP5 PUSH2 0x3ACF JUMP JUMPDEST PUSH2 0x1022 JUMPI PUSH1 0x40 MLOAD PUSH3 0x461BCD PUSH1 0xE5 SHL DUP2 MSTORE PUSH1 0x4 ADD PUSH2 0xE7F SWAP1 PUSH2 0x48F6 JUMP JUMPDEST PUSH1 0x0 DUP2 DUP2 MSTORE PUSH2 0x148 PUSH1 0x20 MSTORE PUSH1 0x40 SWAP1 KECCAK256 SLOAD PUSH1 0xFF AND ISZERO PUSH2 0x3A05 JUMPI PUSH1 0x40 MLOAD PUSH3 0x461BCD PUSH1 0xE5 SHL DUP2 MSTORE PUSH1 0x20 PUSH1 0x4 DUP3 ADD MSTORE PUSH1 0x21 PUSH1 0x24 DUP3 ADD MSTORE PUSH32 0x596F752063616E2774207472616E73666572207374616B6564206172656E6173 PUSH1 0x44 DUP3 ADD MSTORE PUSH1 0x21 PUSH1 0xF8 SHL PUSH1 0x64 DUP3 ADD MSTORE PUSH1 0x84 ADD PUSH2 0xE7F JUMP JUMPDEST PUSH1 0x0 DUP2 DUP2 MSTORE PUSH2 0x148 PUSH1 0x20 MSTORE PUSH1 0x40 DUP2 KECCAK256 PUSH1 0x2 ADD SSTORE PUSH2 0x1022 DUP4 DUP4 DUP4 PUSH2 0x3D1B JUMP JUMPDEST PUSH1 0x0 SLOAD PUSH2 0x100 SWAP1 DIV PUSH1 0xFF AND PUSH2 0x3A4A JUMPI PUSH1 0x40 MLOAD PUSH3 0x461BCD PUSH1 0xE5 SHL DUP2 MSTORE PUSH1 0x4 ADD PUSH2 0xE7F SWAP1 PUSH2 0x48AB JUMP JUMPDEST DUP2 MLOAD PUSH2 0x3A5D SWAP1 PUSH1 0x65 SWAP1 PUSH1 0x20 DUP6 ADD SWAP1 PUSH2 0x3F63 JUMP JUMPDEST POP DUP1 MLOAD PUSH2 0x1022 SWAP1 PUSH1 0x66 SWAP1 PUSH1 0x20 DUP5 ADD SWAP1 PUSH2 0x3F63 JUMP JUMPDEST PUSH1 0x0 SLOAD PUSH2 0x100 SWAP1 DIV PUSH1 0xFF AND PUSH2 0x3A98 JUMPI PUSH1 0x40 MLOAD PUSH3 0x461BCD PUSH1 0xE5 SHL DUP2 MSTORE PUSH1 0x4 ADD PUSH2 0xE7F SWAP1 PUSH2 0x48AB JUMP JUMPDEST PUSH2 0x1DB2 CALLER PUSH2 0x35E7 JUMP JUMPDEST PUSH1 0x0 SLOAD PUSH2 0x100 SWAP1 DIV PUSH1 0xFF AND PUSH2 0x3AC8 JUMPI PUSH1 0x40 MLOAD PUSH3 0x461BCD PUSH1 0xE5 SHL DUP2 MSTORE PUSH1 0x4 ADD PUSH2 0xE7F SWAP1 PUSH2 0x48AB JUMP JUMPDEST PUSH1 0x1 PUSH1 0xFB SSTORE JUMP JUMPDEST PUSH1 0x0 PUSH1 0x1 PUSH1 0x1 PUSH1 0xA0 SHL SUB DUP5 AND EXTCODESIZE ISZERO PUSH2 0x3BC2 JUMPI PUSH1 0x40 MLOAD PUSH4 0xA85BD01 PUSH1 0xE1 SHL DUP2 MSTORE PUSH1 0x1 PUSH1 0x1 PUSH1 0xA0 SHL SUB DUP6 AND SWAP1 PUSH4 0x150B7A02 SWAP1 PUSH2 0x3B13 SWAP1 CALLER SWAP1 DUP10 SWAP1 DUP9 SWAP1 DUP9 SWAP1 PUSH1 0x4 ADD PUSH2 0x495C JUMP JUMPDEST PUSH1 0x20 PUSH1 0x40 MLOAD DUP1 DUP4 SUB DUP2 PUSH1 0x0 DUP8 GAS CALL SWAP3 POP POP POP DUP1 ISZERO PUSH2 0x3B4E JUMPI POP PUSH1 0x40 DUP1 MLOAD PUSH1 0x1F RETURNDATASIZE SWAP1 DUP2 ADD PUSH1 0x1F NOT AND DUP3 ADD SWAP1 SWAP3 MSTORE PUSH2 0x3B4B SWAP2 DUP2 ADD SWAP1 PUSH2 0x4999 JUMP JUMPDEST PUSH1 0x1 JUMPDEST PUSH2 0x3BA8 JUMPI RETURNDATASIZE DUP1 DUP1 ISZERO PUSH2 0x3B7C JUMPI PUSH1 0x40 MLOAD SWAP2 POP PUSH1 0x1F NOT PUSH1 0x3F RETURNDATASIZE ADD AND DUP3 ADD PUSH1 0x40 MSTORE RETURNDATASIZE DUP3 MSTORE RETURNDATASIZE PUSH1 0x0 PUSH1 0x20 DUP5 ADD RETURNDATACOPY PUSH2 0x3B81 JUMP JUMPDEST PUSH1 0x60 SWAP2 POP JUMPDEST POP DUP1 MLOAD PUSH2 0x3BA0 JUMPI PUSH1 0x40 MLOAD PUSH3 0x461BCD PUSH1 0xE5 SHL DUP2 MSTORE PUSH1 0x4 ADD PUSH2 0xE7F SWAP1 PUSH2 0x48F6 JUMP JUMPDEST DUP1 MLOAD DUP2 PUSH1 0x20 ADD REVERT JUMPDEST PUSH1 0x1 PUSH1 0x1 PUSH1 0xE0 SHL SUB NOT AND PUSH4 0xA85BD01 PUSH1 0xE1 SHL EQ SWAP1 POP PUSH2 0x33CB JUMP JUMPDEST POP PUSH1 0x1 SWAP5 SWAP4 POP POP POP POP JUMP JUMPDEST PUSH1 0x1 PUSH1 0x1 PUSH1 0xA0 SHL SUB DUP3 AND PUSH2 0x3C23 JUMPI PUSH1 0x40 MLOAD PUSH3 0x461BCD PUSH1 0xE5 SHL DUP2 MSTORE PUSH1 0x20 PUSH1 0x4 DUP3 ADD DUP2 SWAP1 MSTORE PUSH1 0x24 DUP3 ADD MSTORE PUSH32 0x4552433732313A206D696E7420746F20746865207A65726F2061646472657373 PUSH1 0x44 DUP3 ADD MSTORE PUSH1 0x64 ADD PUSH2 0xE7F JUMP JUMPDEST PUSH1 0x0 DUP2 DUP2 MSTORE PUSH1 0x67 PUSH1 0x20 MSTORE PUSH1 0x40 SWAP1 KECCAK256 SLOAD PUSH1 0x1 PUSH1 0x1 PUSH1 0xA0 SHL SUB AND ISZERO PUSH2 0x3C88 JUMPI PUSH1 0x40 MLOAD PUSH3 0x461BCD PUSH1 0xE5 SHL DUP2 MSTORE PUSH1 0x20 PUSH1 0x4 DUP3 ADD MSTORE PUSH1 0x1C PUSH1 0x24 DUP3 ADD MSTORE PUSH32 0x4552433732313A20746F6B656E20616C7265616479206D696E74656400000000 PUSH1 0x44 DUP3 ADD MSTORE PUSH1 0x64 ADD PUSH2 0xE7F JUMP JUMPDEST PUSH2 0x3C94 PUSH1 0x0 DUP4 DUP4 PUSH2 0x399B JUMP JUMPDEST PUSH1 0x1 PUSH1 0x1 PUSH1 0xA0 SHL SUB DUP3 AND PUSH1 0x0 SWAP1 DUP2 MSTORE PUSH1 0x68 PUSH1 0x20 MSTORE PUSH1 0x40 DUP2 KECCAK256 DUP1 SLOAD PUSH1 0x1 SWAP3 SWAP1 PUSH2 0x3CBD SWAP1 DUP5 SWAP1 PUSH2 0x4626 JUMP JUMPDEST SWAP1 SWAP2 SSTORE POP POP PUSH1 0x0 DUP2 DUP2 MSTORE PUSH1 0x67 PUSH1 0x20 MSTORE PUSH1 0x40 DUP1 DUP3 KECCAK256 DUP1 SLOAD PUSH1 0x1 PUSH1 0x1 PUSH1 0xA0 SHL SUB NOT AND PUSH1 0x1 PUSH1 0x1 PUSH1 0xA0 SHL SUB DUP7 AND SWAP1 DUP2 OR SWAP1 SWAP2 SSTORE SWAP1 MLOAD DUP4 SWAP3 SWAP1 PUSH32 0xDDF252AD1BE2C89B69C2B068FC378DAA952BA7F163C4A11628F55A4DF523B3EF SWAP1 DUP3 SWAP1 LOG4 POP POP JUMP JUMPDEST PUSH1 0x1 PUSH1 0x1 PUSH1 0xA0 SHL SUB DUP4 AND PUSH2 0x3D76 JUMPI PUSH2 0x3D71 DUP2 PUSH1 0xCB DUP1 SLOAD PUSH1 0x0 DUP4 DUP2 MSTORE PUSH1 0xCC PUSH1 0x20 MSTORE PUSH1 0x40 DUP2 KECCAK256 DUP3 SWAP1 SSTORE PUSH1 0x1 DUP3 ADD DUP4 SSTORE SWAP2 SWAP1 SWAP2 MSTORE PUSH32 0xA7CE836D032B2BF62B7E2097A8E0A6D8AEB35405AD15271E96D3B0188A1D06FB ADD SSTORE JUMP JUMPDEST PUSH2 0x3D99 JUMP JUMPDEST DUP2 PUSH1 0x1 PUSH1 0x1 PUSH1 0xA0 SHL SUB AND DUP4 PUSH1 0x1 PUSH1 0x1 PUSH1 0xA0 SHL SUB AND EQ PUSH2 0x3D99 JUMPI PUSH2 0x3D99 DUP4 DUP3 PUSH2 0x3DD3 JUMP JUMPDEST PUSH1 0x1 PUSH1 0x1 PUSH1 0xA0 SHL SUB DUP3 AND PUSH2 0x3DB0 JUMPI PUSH2 0x1022 DUP2 PUSH2 0x3E70 JUMP JUMPDEST DUP3 PUSH1 0x1 PUSH1 0x1 PUSH1 0xA0 SHL SUB AND DUP3 PUSH1 0x1 PUSH1 0x1 PUSH1 0xA0 SHL SUB AND EQ PUSH2 0x1022 JUMPI PUSH2 0x1022 DUP3 DUP3 PUSH2 0x3F1F JUMP JUMPDEST PUSH1 0x0 PUSH1 0x1 PUSH2 0x3DE0 DUP5 PUSH2 0x1CF7 JUMP JUMPDEST PUSH2 0x3DEA SWAP2 SWAP1 PUSH2 0x4790 JUMP JUMPDEST PUSH1 0x0 DUP4 DUP2 MSTORE PUSH1 0xCA PUSH1 0x20 MSTORE PUSH1 0x40 SWAP1 KECCAK256 SLOAD SWAP1 SWAP2 POP DUP1 DUP3 EQ PUSH2 0x3E3D JUMPI PUSH1 0x1 PUSH1 0x1 PUSH1 0xA0 SHL SUB DUP5 AND PUSH1 0x0 SWAP1 DUP2 MSTORE PUSH1 0xC9 PUSH1 0x20 SWAP1 DUP2 MSTORE PUSH1 0x40 DUP1 DUP4 KECCAK256 DUP6 DUP5 MSTORE DUP3 MSTORE DUP1 DUP4 KECCAK256 SLOAD DUP5 DUP5 MSTORE DUP2 DUP5 KECCAK256 DUP2 SWAP1 SSTORE DUP4 MSTORE PUSH1 0xCA SWAP1 SWAP2 MSTORE SWAP1 KECCAK256 DUP2 SWAP1 SSTORE JUMPDEST POP PUSH1 0x0 SWAP2 DUP3 MSTORE PUSH1 0xCA PUSH1 0x20 SWAP1 DUP2 MSTORE PUSH1 0x40 DUP1 DUP5 KECCAK256 DUP5 SWAP1 SSTORE PUSH1 0x1 PUSH1 0x1 PUSH1 0xA0 SHL SUB SWAP1 SWAP5 AND DUP4 MSTORE PUSH1 0xC9 DUP2 MSTORE DUP4 DUP4 KECCAK256 SWAP2 DUP4 MSTORE MSTORE SWAP1 DUP2 KECCAK256 SSTORE JUMP JUMPDEST PUSH1 0xCB SLOAD PUSH1 0x0 SWAP1 PUSH2 0x3E82 SWAP1 PUSH1 0x1 SWAP1 PUSH2 0x4790 JUMP JUMPDEST PUSH1 0x0 DUP4 DUP2 MSTORE PUSH1 0xCC PUSH1 0x20 MSTORE PUSH1 0x40 DUP2 KECCAK256 SLOAD PUSH1 0xCB DUP1 SLOAD SWAP4 SWAP5 POP SWAP1 SWAP3 DUP5 SWAP1 DUP2 LT PUSH2 0x3EAA JUMPI PUSH2 0x3EAA PUSH2 0x4719 JUMP JUMPDEST SWAP1 PUSH1 0x0 MSTORE PUSH1 0x20 PUSH1 0x0 KECCAK256 ADD SLOAD SWAP1 POP DUP1 PUSH1 0xCB DUP4 DUP2 SLOAD DUP2 LT PUSH2 0x3ECB JUMPI PUSH2 0x3ECB PUSH2 0x4719 JUMP JUMPDEST PUSH1 0x0 SWAP2 DUP3 MSTORE PUSH1 0x20 DUP1 DUP4 KECCAK256 SWAP1 SWAP2 ADD SWAP3 SWAP1 SWAP3 SSTORE DUP3 DUP2 MSTORE PUSH1 0xCC SWAP1 SWAP2 MSTORE PUSH1 0x40 DUP1 DUP3 KECCAK256 DUP5 SWAP1 SSTORE DUP6 DUP3 MSTORE DUP2 KECCAK256 SSTORE PUSH1 0xCB DUP1 SLOAD DUP1 PUSH2 0x3F03 JUMPI PUSH2 0x3F03 PUSH2 0x486B JUMP JUMPDEST PUSH1 0x1 SWAP1 SUB DUP2 DUP2 SWAP1 PUSH1 0x0 MSTORE PUSH1 0x20 PUSH1 0x0 KECCAK256 ADD PUSH1 0x0 SWAP1 SSTORE SWAP1 SSTORE POP POP POP POP JUMP JUMPDEST PUSH1 0x0 PUSH2 0x3F2A DUP4 PUSH2 0x1CF7 JUMP JUMPDEST PUSH1 0x1 PUSH1 0x1 PUSH1 0xA0 SHL SUB SWAP1 SWAP4 AND PUSH1 0x0 SWAP1 DUP2 MSTORE PUSH1 0xC9 PUSH1 0x20 SWAP1 DUP2 MSTORE PUSH1 0x40 DUP1 DUP4 KECCAK256 DUP7 DUP5 MSTORE DUP3 MSTORE DUP1 DUP4 KECCAK256 DUP6 SWAP1 SSTORE SWAP4 DUP3 MSTORE PUSH1 0xCA SWAP1 MSTORE SWAP2 SWAP1 SWAP2 KECCAK256 SWAP2 SWAP1 SWAP2 SSTORE POP JUMP JUMPDEST DUP3 DUP1 SLOAD PUSH2 0x3F6F SWAP1 PUSH2 0x459E JUMP JUMPDEST SWAP1 PUSH1 0x0 MSTORE PUSH1 0x20 PUSH1 0x0 KECCAK256 SWAP1 PUSH1 0x1F ADD PUSH1 0x20 SWAP1 DIV DUP2 ADD SWAP3 DUP3 PUSH2 0x3F91 JUMPI PUSH1 0x0 DUP6 SSTORE PUSH2 0x3FD7 JUMP JUMPDEST DUP3 PUSH1 0x1F LT PUSH2 0x3FAA JUMPI DUP1 MLOAD PUSH1 0xFF NOT AND DUP4 DUP1 ADD OR DUP6 SSTORE PUSH2 0x3FD7 JUMP JUMPDEST DUP3 DUP1 ADD PUSH1 0x1 ADD DUP6 SSTORE DUP3 ISZERO PUSH2 0x3FD7 JUMPI SWAP2 DUP3 ADD JUMPDEST DUP3 DUP2 GT ISZERO PUSH2 0x3FD7 JUMPI DUP3 MLOAD DUP3 SSTORE SWAP2 PUSH1 0x20 ADD SWAP2 SWAP1 PUSH1 0x1 ADD SWAP1 PUSH2 0x3FBC JUMP JUMPDEST POP PUSH2 0x3FE3 SWAP3 SWAP2 POP PUSH2 0x4021 JUMP JUMPDEST POP SWAP1 JUMP JUMPDEST DUP3 DUP1 SLOAD DUP3 DUP3 SSTORE SWAP1 PUSH1 0x0 MSTORE PUSH1 0x20 PUSH1 0x0 KECCAK256 SWAP1 DUP2 ADD SWAP3 DUP3 ISZERO PUSH2 0x3FD7 JUMPI SWAP2 PUSH1 0x20 MUL DUP3 ADD DUP3 DUP2 GT ISZERO PUSH2 0x3FD7 JUMPI DUP3 MLOAD DUP3 SSTORE SWAP2 PUSH1 0x20 ADD SWAP2 SWAP1 PUSH1 0x1 ADD SWAP1 PUSH2 0x3FBC JUMP JUMPDEST JUMPDEST DUP1 DUP3 GT ISZERO PUSH2 0x3FE3 JUMPI PUSH1 0x0 DUP2 SSTORE PUSH1 0x1 ADD PUSH2 0x4022 JUMP JUMPDEST PUSH1 0x1 PUSH1 0x1 PUSH1 0xE0 SHL SUB NOT DUP2 AND DUP2 EQ PUSH2 0x135B JUMPI PUSH1 0x0 DUP1 REVERT JUMPDEST PUSH1 0x0 PUSH1 0x20 DUP3 DUP5 SUB SLT ISZERO PUSH2 0x405E JUMPI PUSH1 0x0 DUP1 REVERT JUMPDEST DUP2 CALLDATALOAD PUSH2 0x2A9B DUP2 PUSH2 0x4036 JUMP JUMPDEST PUSH1 0x0 JUMPDEST DUP4 DUP2 LT ISZERO PUSH2 0x4084 JUMPI DUP2 DUP2 ADD MLOAD DUP4 DUP3 ADD MSTORE PUSH1 0x20 ADD PUSH2 0x406C JUMP JUMPDEST DUP4 DUP2 GT ISZERO PUSH2 0x2857 JUMPI POP POP PUSH1 0x0 SWAP2 ADD MSTORE JUMP JUMPDEST PUSH1 0x0 DUP2 MLOAD DUP1 DUP5 MSTORE PUSH2 0x40AD DUP2 PUSH1 0x20 DUP7 ADD PUSH1 0x20 DUP7 ADD PUSH2 0x4069 JUMP JUMPDEST PUSH1 0x1F ADD PUSH1 0x1F NOT AND SWAP3 SWAP1 SWAP3 ADD PUSH1 0x20 ADD SWAP3 SWAP2 POP POP JUMP JUMPDEST PUSH1 0x20 DUP2 MSTORE PUSH1 0x0 PUSH2 0x2A9B PUSH1 0x20 DUP4 ADD DUP5 PUSH2 0x4095 JUMP JUMPDEST PUSH1 0x0 PUSH1 0x20 DUP3 DUP5 SUB SLT ISZERO PUSH2 0x40E6 JUMPI PUSH1 0x0 DUP1 REVERT JUMPDEST POP CALLDATALOAD SWAP2 SWAP1 POP JUMP JUMPDEST PUSH1 0x1 PUSH1 0x1 PUSH1 0xA0 SHL SUB DUP2 AND DUP2 EQ PUSH2 0x135B JUMPI PUSH1 0x0 DUP1 REVERT JUMPDEST PUSH1 0x0 PUSH1 0x20 DUP3 DUP5 SUB SLT ISZERO PUSH2 0x4114 JUMPI PUSH1 0x0 DUP1 REVERT JUMPDEST DUP2 CALLDATALOAD PUSH2 0x2A9B DUP2 PUSH2 0x40ED JUMP JUMPDEST PUSH1 0x20 DUP1 DUP3 MSTORE DUP3 MLOAD DUP3 DUP3 ADD DUP2 SWAP1 MSTORE PUSH1 0x0 SWAP2 SWAP1 DUP5 DUP3 ADD SWAP1 PUSH1 0x40 DUP6 ADD SWAP1 DUP5 JUMPDEST DUP2 DUP2 LT ISZERO PUSH2 0x4157 JUMPI DUP4 MLOAD DUP4 MSTORE SWAP3 DUP5 ADD SWAP3 SWAP2 DUP5 ADD SWAP2 PUSH1 0x1 ADD PUSH2 0x413B JUMP JUMPDEST POP SWAP1 SWAP7 SWAP6 POP POP POP POP POP POP JUMP JUMPDEST PUSH1 0x0 DUP1 PUSH1 0x40 DUP4 DUP6 SUB SLT ISZERO PUSH2 0x4176 JUMPI PUSH1 0x0 DUP1 REVERT JUMPDEST DUP3 CALLDATALOAD PUSH2 0x4181 DUP2 PUSH2 0x40ED JUMP JUMPDEST SWAP5 PUSH1 0x20 SWAP4 SWAP1 SWAP4 ADD CALLDATALOAD SWAP4 POP POP POP JUMP JUMPDEST DUP1 ISZERO ISZERO DUP2 EQ PUSH2 0x135B JUMPI PUSH1 0x0 DUP1 REVERT JUMPDEST PUSH1 0x0 PUSH1 0x20 DUP3 DUP5 SUB SLT ISZERO PUSH2 0x41AF JUMPI PUSH1 0x0 DUP1 REVERT JUMPDEST DUP2 CALLDATALOAD PUSH2 0x2A9B DUP2 PUSH2 0x418F JUMP JUMPDEST PUSH1 0x0 DUP1 PUSH1 0x0 PUSH1 0x60 DUP5 DUP7 SUB SLT ISZERO PUSH2 0x41CF JUMPI PUSH1 0x0 DUP1 REVERT JUMPDEST DUP4 CALLDATALOAD PUSH2 0x41DA DUP2 PUSH2 0x40ED JUMP JUMPDEST SWAP3 POP PUSH1 0x20 DUP5 ADD CALLDATALOAD PUSH2 0x41EA DUP2 PUSH2 0x40ED JUMP JUMPDEST SWAP3 SWAP6 SWAP3 SWAP5 POP POP POP PUSH1 0x40 SWAP2 SWAP1 SWAP2 ADD CALLDATALOAD SWAP1 JUMP JUMPDEST PUSH1 0x0 DUP1 PUSH1 0x40 DUP4 DUP6 SUB SLT ISZERO PUSH2 0x420E JUMPI PUSH1 0x0 DUP1 REVERT JUMPDEST POP POP DUP1 CALLDATALOAD SWAP3 PUSH1 0x20 SWAP1 SWAP2 ADD CALLDATALOAD SWAP2 POP JUMP JUMPDEST PUSH1 0x0 DUP1 PUSH1 0x0 PUSH1 0x60 DUP5 DUP7 SUB SLT ISZERO PUSH2 0x4232 JUMPI PUSH1 0x0 DUP1 REVERT JUMPDEST DUP4 CALLDATALOAD PUSH2 0x423D DUP2 PUSH2 0x40ED JUMP JUMPDEST SWAP3 POP PUSH1 0x20 DUP5 ADD CALLDATALOAD PUSH2 0x424D DUP2 PUSH2 0x40ED JUMP JUMPDEST SWAP2 POP PUSH1 0x40 DUP5 ADD CALLDATALOAD PUSH2 0x425D DUP2 PUSH2 0x40ED JUMP JUMPDEST DUP1 SWAP2 POP POP SWAP3 POP SWAP3 POP SWAP3 JUMP JUMPDEST PUSH4 0x4E487B71 PUSH1 0xE0 SHL PUSH1 0x0 MSTORE PUSH1 0x41 PUSH1 0x4 MSTORE PUSH1 0x24 PUSH1 0x0 REVERT JUMPDEST PUSH1 0x40 MLOAD PUSH1 0x1F DUP3 ADD PUSH1 0x1F NOT AND DUP2 ADD PUSH8 0xFFFFFFFFFFFFFFFF DUP2 GT DUP3 DUP3 LT OR ISZERO PUSH2 0x42A7 JUMPI PUSH2 0x42A7 PUSH2 0x4268 JUMP JUMPDEST PUSH1 0x40 MSTORE SWAP2 SWAP1 POP JUMP JUMPDEST PUSH1 0x0 PUSH8 0xFFFFFFFFFFFFFFFF DUP4 GT ISZERO PUSH2 0x42C9 JUMPI PUSH2 0x42C9 PUSH2 0x4268 JUMP JUMPDEST PUSH2 0x42DC PUSH1 0x1F DUP5 ADD PUSH1 0x1F NOT AND PUSH1 0x20 ADD PUSH2 0x427E JUMP JUMPDEST SWAP1 POP DUP3 DUP2 MSTORE DUP4 DUP4 DUP4 ADD GT ISZERO PUSH2 0x42F0 JUMPI PUSH1 0x0 DUP1 REVERT JUMPDEST DUP3 DUP3 PUSH1 0x20 DUP4 ADD CALLDATACOPY PUSH1 0x0 PUSH1 0x20 DUP5 DUP4 ADD ADD MSTORE SWAP4 SWAP3 POP POP POP JUMP JUMPDEST PUSH1 0x0 PUSH1 0x20 DUP3 DUP5 SUB SLT ISZERO PUSH2 0x4319 JUMPI PUSH1 0x0 DUP1 REVERT JUMPDEST DUP2 CALLDATALOAD PUSH8 0xFFFFFFFFFFFFFFFF DUP2 GT ISZERO PUSH2 0x4330 JUMPI PUSH1 0x0 DUP1 REVERT JUMPDEST DUP3 ADD PUSH1 0x1F DUP2 ADD DUP5 SGT PUSH2 0x4341 JUMPI PUSH1 0x0 DUP1 REVERT JUMPDEST PUSH2 0x33CB DUP5 DUP3 CALLDATALOAD PUSH1 0x20 DUP5 ADD PUSH2 0x42AF JUMP JUMPDEST PUSH1 0x0 DUP1 PUSH1 0x40 DUP4 DUP6 SUB SLT ISZERO PUSH2 0x4363 JUMPI PUSH1 0x0 DUP1 REVERT JUMPDEST DUP3 CALLDATALOAD PUSH2 0x436E DUP2 PUSH2 0x40ED JUMP JUMPDEST SWAP2 POP PUSH1 0x20 DUP4 ADD CALLDATALOAD PUSH2 0x437E DUP2 PUSH2 0x418F JUMP JUMPDEST DUP1 SWAP2 POP POP SWAP3 POP SWAP3 SWAP1 POP JUMP JUMPDEST PUSH1 0x0 DUP1 PUSH1 0x0 PUSH1 0x60 DUP5 DUP7 SUB SLT ISZERO PUSH2 0x439E JUMPI PUSH1 0x0 DUP1 REVERT JUMPDEST POP POP DUP2 CALLDATALOAD SWAP4 PUSH1 0x20 DUP4 ADD CALLDATALOAD SWAP4 POP PUSH1 0x40 SWAP1 SWAP3 ADD CALLDATALOAD SWAP2 SWAP1 POP JUMP JUMPDEST PUSH1 0x0 DUP1 PUSH1 0x0 DUP1 PUSH1 0x80 DUP6 DUP8 SUB SLT ISZERO PUSH2 0x43CB JUMPI PUSH1 0x0 DUP1 REVERT JUMPDEST DUP5 CALLDATALOAD PUSH2 0x43D6 DUP2 PUSH2 0x40ED JUMP JUMPDEST SWAP4 POP PUSH1 0x20 DUP6 ADD CALLDATALOAD PUSH2 0x43E6 DUP2 PUSH2 0x40ED JUMP JUMPDEST SWAP3 POP PUSH1 0x40 DUP6 ADD CALLDATALOAD SWAP2 POP PUSH1 0x60 DUP6 ADD CALLDATALOAD PUSH8 0xFFFFFFFFFFFFFFFF DUP2 GT ISZERO PUSH2 0x4409 JUMPI PUSH1 0x0 DUP1 REVERT JUMPDEST DUP6 ADD PUSH1 0x1F DUP2 ADD DUP8 SGT PUSH2 0x441A JUMPI PUSH1 0x0 DUP1 REVERT JUMPDEST PUSH2 0x4429 DUP8 DUP3 CALLDATALOAD PUSH1 0x20 DUP5 ADD PUSH2 0x42AF JUMP JUMPDEST SWAP2 POP POP SWAP3 SWAP6 SWAP2 SWAP5 POP SWAP3 POP JUMP JUMPDEST PUSH1 0x0 DUP1 PUSH1 0x0 DUP1 PUSH1 0x80 DUP6 DUP8 SUB SLT ISZERO PUSH2 0x444B JUMPI PUSH1 0x0 DUP1 REVERT JUMPDEST POP POP DUP3 CALLDATALOAD SWAP5 PUSH1 0x20 DUP5 ADD CALLDATALOAD SWAP5 POP PUSH1 0x40 DUP5 ADD CALLDATALOAD SWAP4 PUSH1 0x60 ADD CALLDATALOAD SWAP3 POP SWAP1 POP JUMP JUMPDEST PUSH1 0x0 DUP3 PUSH1 0x1F DUP4 ADD SLT PUSH2 0x4478 JUMPI PUSH1 0x0 DUP1 REVERT JUMPDEST DUP2 CALLDATALOAD PUSH1 0x20 PUSH8 0xFFFFFFFFFFFFFFFF DUP3 GT ISZERO PUSH2 0x4494 JUMPI PUSH2 0x4494 PUSH2 0x4268 JUMP JUMPDEST DUP2 PUSH1 0x5 SHL PUSH2 0x44A3 DUP3 DUP3 ADD PUSH2 0x427E JUMP JUMPDEST SWAP3 DUP4 MSTORE DUP5 DUP2 ADD DUP3 ADD SWAP3 DUP3 DUP2 ADD SWAP1 DUP8 DUP6 GT ISZERO PUSH2 0x44BD JUMPI PUSH1 0x0 DUP1 REVERT JUMPDEST DUP4 DUP8 ADD SWAP3 POP JUMPDEST DUP5 DUP4 LT ISZERO PUSH2 0x44DC JUMPI DUP3 CALLDATALOAD DUP3 MSTORE SWAP2 DUP4 ADD SWAP2 SWAP1 DUP4 ADD SWAP1 PUSH2 0x44C3 JUMP JUMPDEST SWAP8 SWAP7 POP POP POP POP POP POP POP JUMP JUMPDEST PUSH1 0x0 DUP1 PUSH1 0x40 DUP4 DUP6 SUB SLT ISZERO PUSH2 0x44FA JUMPI PUSH1 0x0 DUP1 REVERT JUMPDEST DUP3 CALLDATALOAD PUSH8 0xFFFFFFFFFFFFFFFF DUP1 DUP3 GT ISZERO PUSH2 0x4512 JUMPI PUSH1 0x0 DUP1 REVERT JUMPDEST PUSH2 0x451E DUP7 DUP4 DUP8 ADD PUSH2 0x4467 JUMP JUMPDEST SWAP4 POP PUSH1 0x20 DUP6 ADD CALLDATALOAD SWAP2 POP DUP1 DUP3 GT ISZERO PUSH2 0x4534 JUMPI PUSH1 0x0 DUP1 REVERT JUMPDEST POP PUSH2 0x4541 DUP6 DUP3 DUP7 ADD PUSH2 0x4467 JUMP JUMPDEST SWAP2 POP POP SWAP3 POP SWAP3 SWAP1 POP JUMP JUMPDEST PUSH1 0x0 DUP1 PUSH1 0x40 DUP4 DUP6 SUB SLT ISZERO PUSH2 0x455E JUMPI PUSH1 0x0 DUP1 REVERT JUMPDEST DUP3 CALLDATALOAD PUSH2 0x4569 DUP2 PUSH2 0x40ED JUMP JUMPDEST SWAP2 POP PUSH1 0x20 DUP4 ADD CALLDATALOAD PUSH2 0x437E DUP2 PUSH2 0x40ED JUMP JUMPDEST PUSH1 0x0 DUP1 PUSH1 0x40 DUP4 DUP6 SUB SLT ISZERO PUSH2 0x458C JUMPI PUSH1 0x0 DUP1 REVERT JUMPDEST DUP3 CALLDATALOAD SWAP2 POP PUSH1 0x20 DUP4 ADD CALLDATALOAD PUSH2 0x437E DUP2 PUSH2 0x40ED JUMP JUMPDEST PUSH1 0x1 DUP2 DUP2 SHR SWAP1 DUP3 AND DUP1 PUSH2 0x45B2 JUMPI PUSH1 0x7F DUP3 AND SWAP2 POP JUMPDEST PUSH1 0x20 DUP3 LT DUP2 EQ ISZERO PUSH2 0x45D3 JUMPI PUSH4 0x4E487B71 PUSH1 0xE0 SHL PUSH1 0x0 MSTORE PUSH1 0x22 PUSH1 0x4 MSTORE PUSH1 0x24 PUSH1 0x0 REVERT JUMPDEST POP SWAP2 SWAP1 POP JUMP JUMPDEST PUSH1 0x20 DUP1 DUP3 MSTORE PUSH1 0x1F SWAP1 DUP3 ADD MSTORE PUSH32 0x5265656E7472616E637947756172643A207265656E7472616E742063616C6C00 PUSH1 0x40 DUP3 ADD MSTORE PUSH1 0x60 ADD SWAP1 JUMP JUMPDEST PUSH4 0x4E487B71 PUSH1 0xE0 SHL PUSH1 0x0 MSTORE PUSH1 0x11 PUSH1 0x4 MSTORE PUSH1 0x24 PUSH1 0x0 REVERT JUMPDEST PUSH1 0x0 DUP3 NOT DUP3 GT ISZERO PUSH2 0x4639 JUMPI PUSH2 0x4639 PUSH2 0x4610 JUMP JUMPDEST POP ADD SWAP1 JUMP JUMPDEST PUSH1 0x0 PUSH1 0x20 DUP3 DUP5 SUB SLT ISZERO PUSH2 0x4650 JUMPI PUSH1 0x0 DUP1 REVERT JUMPDEST DUP2 MLOAD PUSH2 0x2A9B DUP2 PUSH2 0x418F JUMP JUMPDEST PUSH1 0x20 DUP1 DUP3 MSTORE PUSH1 0x31 SWAP1 DUP3 ADD MSTORE PUSH32 0x4552433732313A207472616E736665722063616C6C6572206973206E6F74206F PUSH1 0x40 DUP3 ADD MSTORE PUSH17 0x1DDB995C881B9BDC88185C1C1C9BDD9959 PUSH1 0x7A SHL PUSH1 0x60 DUP3 ADD MSTORE PUSH1 0x80 ADD SWAP1 JUMP JUMPDEST PUSH1 0x0 DUP2 PUSH1 0x0 NOT DIV DUP4 GT DUP3 ISZERO ISZERO AND ISZERO PUSH2 0x46C6 JUMPI PUSH2 0x46C6 PUSH2 0x4610 JUMP JUMPDEST POP MUL SWAP1 JUMP JUMPDEST PUSH1 0x20 DUP1 DUP3 MSTORE DUP2 DUP2 ADD MSTORE PUSH32 0x4F776E61626C653A2063616C6C6572206973206E6F7420746865206F776E6572 PUSH1 0x40 DUP3 ADD MSTORE PUSH1 0x60 ADD SWAP1 JUMP JUMPDEST PUSH1 0x0 PUSH1 0x20 DUP3 DUP5 SUB SLT ISZERO PUSH2 0x4712 JUMPI PUSH1 0x0 DUP1 REVERT JUMPDEST POP MLOAD SWAP2 SWAP1 POP JUMP JUMPDEST PUSH4 0x4E487B71 PUSH1 0xE0 SHL PUSH1 0x0 MSTORE PUSH1 0x32 PUSH1 0x4 MSTORE PUSH1 0x24 PUSH1 0x0 REVERT JUMPDEST PUSH1 0x0 PUSH1 0x0 NOT DUP3 EQ ISZERO PUSH2 0x4743 JUMPI PUSH2 0x4743 PUSH2 0x4610 JUMP JUMPDEST POP PUSH1 0x1 ADD SWAP1 JUMP JUMPDEST PUSH1 0x20 DUP1 DUP3 MSTORE PUSH1 0x26 SWAP1 DUP3 ADD MSTORE PUSH32 0x4D6178696D756D206D696E7420706572207472616E73616374696F6E20657863 PUSH1 0x40 DUP3 ADD MSTORE PUSH6 0x656564656421 PUSH1 0xD0 SHL PUSH1 0x60 DUP3 ADD MSTORE PUSH1 0x80 ADD SWAP1 JUMP JUMPDEST PUSH1 0x0 DUP3 DUP3 LT ISZERO PUSH2 0x47A2 JUMPI PUSH2 0x47A2 PUSH2 0x4610 JUMP JUMPDEST POP SUB SWAP1 JUMP JUMPDEST PUSH1 0x0 DUP5 MLOAD PUSH1 0x20 PUSH2 0x47BA DUP3 DUP6 DUP4 DUP11 ADD PUSH2 0x4069 JUMP JUMPDEST DUP6 MLOAD SWAP2 DUP5 ADD SWAP2 PUSH2 0x47CD DUP2 DUP5 DUP5 DUP11 ADD PUSH2 0x4069 JUMP JUMPDEST DUP6 SLOAD SWAP3 ADD SWAP2 PUSH1 0x0 SWAP1 PUSH1 0x1 DUP2 DUP2 SHR SWAP1 DUP1 DUP4 AND DUP1 PUSH2 0x47EA JUMPI PUSH1 0x7F DUP4 AND SWAP3 POP JUMPDEST DUP6 DUP4 LT DUP2 EQ ISZERO PUSH2 0x4808 JUMPI PUSH4 0x4E487B71 PUSH1 0xE0 SHL DUP6 MSTORE PUSH1 0x22 PUSH1 0x4 MSTORE PUSH1 0x24 DUP6 REVERT JUMPDEST DUP1 DUP1 ISZERO PUSH2 0x481C JUMPI PUSH1 0x1 DUP2 EQ PUSH2 0x482D JUMPI PUSH2 0x485A JUMP JUMPDEST PUSH1 0xFF NOT DUP6 AND DUP9 MSTORE DUP4 DUP9 ADD SWAP6 POP PUSH2 0x485A JUMP JUMPDEST PUSH1 0x0 DUP12 DUP2 MSTORE PUSH1 0x20 SWAP1 KECCAK256 PUSH1 0x0 JUMPDEST DUP6 DUP2 LT ISZERO PUSH2 0x4852 JUMPI DUP2 SLOAD DUP11 DUP3 ADD MSTORE SWAP1 DUP5 ADD SWAP1 DUP9 ADD PUSH2 0x4839 JUMP JUMPDEST POP POP DUP4 DUP9 ADD SWAP6 POP JUMPDEST POP SWAP4 SWAP12 SWAP11 POP POP POP POP POP POP POP POP POP POP POP JUMP JUMPDEST PUSH4 0x4E487B71 PUSH1 0xE0 SHL PUSH1 0x0 MSTORE PUSH1 0x31 PUSH1 0x4 MSTORE PUSH1 0x24 PUSH1 0x0 REVERT JUMPDEST PUSH4 0x4E487B71 PUSH1 0xE0 SHL PUSH1 0x0 MSTORE PUSH1 0x12 PUSH1 0x4 MSTORE PUSH1 0x24 PUSH1 0x0 REVERT JUMPDEST PUSH1 0x0 DUP3 PUSH2 0x48A6 JUMPI PUSH2 0x48A6 PUSH2 0x4881 JUMP JUMPDEST POP DIV SWAP1 JUMP JUMPDEST PUSH1 0x20 DUP1 DUP3 MSTORE PUSH1 0x2B SWAP1 DUP3 ADD MSTORE PUSH32 0x496E697469616C697A61626C653A20636F6E7472616374206973206E6F742069 PUSH1 0x40 DUP3 ADD MSTORE PUSH11 0x6E697469616C697A696E67 PUSH1 0xA8 SHL PUSH1 0x60 DUP3 ADD MSTORE PUSH1 0x80 ADD SWAP1 JUMP JUMPDEST PUSH1 0x20 DUP1 DUP3 MSTORE PUSH1 0x32 SWAP1 DUP3 ADD MSTORE PUSH32 0x4552433732313A207472616E7366657220746F206E6F6E204552433732315265 PUSH1 0x40 DUP3 ADD MSTORE PUSH18 0x31B2B4BB32B91034B6B83632B6B2B73A32B9 PUSH1 0x71 SHL PUSH1 0x60 DUP3 ADD MSTORE PUSH1 0x80 ADD SWAP1 JUMP JUMPDEST PUSH1 0x0 DUP3 PUSH2 0x4957 JUMPI PUSH2 0x4957 PUSH2 0x4881 JUMP JUMPDEST POP MOD SWAP1 JUMP JUMPDEST PUSH1 0x1 PUSH1 0x1 PUSH1 0xA0 SHL SUB DUP6 DUP2 AND DUP3 MSTORE DUP5 AND PUSH1 0x20 DUP3 ADD MSTORE PUSH1 0x40 DUP2 ADD DUP4 SWAP1 MSTORE PUSH1 0x80 PUSH1 0x60 DUP3 ADD DUP2 SWAP1 MSTORE PUSH1 0x0 SWAP1 PUSH2 0x498F SWAP1 DUP4 ADD DUP5 PUSH2 0x4095 JUMP JUMPDEST SWAP7 SWAP6 POP POP POP POP POP POP JUMP JUMPDEST PUSH1 0x0 PUSH1 0x20 DUP3 DUP5 SUB SLT ISZERO PUSH2 0x49AB JUMPI PUSH1 0x0 DUP1 REVERT JUMPDEST DUP2 MLOAD PUSH2 0x2A9B DUP2 PUSH2 0x4036 JUMP INVALID LOG2 PUSH5 0x6970667358 0x22 SLT KECCAK256 DUP13 0x4E POP SLT CALLCODE EXTCODECOPY SLT PUSH11 0x4A3716504DAC484EC6E383 JUMP 0xB1 SELFDESTRUCT PUSH9 0xD71E5B8F8B3B3D6A18 PUSH5 0x736F6C6343 STOP ADDMOD 0xC STOP CALLER ",
  "sha1": "b847279294ab6079d3a07843d9239240b945a180",
  "source": "// SPDX-License-Identifier: MIT\n// Creator: andreitoma8\npragma solidity ^0.8.4;\n\nimport \"@openzeppelin/contracts-upgradeable/contracts/token/ERC721/ERC721Upgradeable.sol\";\nimport \"@openzeppelin/contracts-upgradeable/contracts/token/ERC721/extensions/ERC721EnumerableUpgradeable.sol\";\nimport \"@openzeppelin/contracts-upgradeable/contracts/access/OwnableUpgradeable.sol\";\nimport \"@openzeppelin/contracts-upgradeable/contracts/proxy/utils/Initializable.sol\";\nimport \"@openzeppelin/contracts-upgradeable/contracts/security/ReentrancyGuardUpgradeable.sol\";\nimport \"@openzeppelin/contracts/token/ERC1155/IERC1155.sol\";\nimport \"@openzeppelin/contracts/token/ERC20/IERC20.sol\";\nimport \"../interfaces/IArenas.sol\";\n\ncontract MetaArenas is\n    Initializable,\n    ERC721Upgradeable,\n    OwnableUpgradeable,\n    ERC721EnumerableUpgradeable,\n    ReentrancyGuardUpgradeable\n{\n    using StringsUpgradeable for uint256;\n\n    // Interfaces\n    // Interface for old Arenas Collection\n    IArenas public oldArenas;\n    // Interface for MetaPass Collection\n    IERC1155 public passes;\n    // Interface for ESPORT Token\n    IERC20 public esportToken;\n    // Interface for BYTE token\n    IERC20 public byteToken;\n\n    // Address with role of boost for Level\n    address public levelBooster;\n\n    // Admin\n    address private admin;\n\n    // Minting state\n    bool public paused;\n\n    // Rewards in Byte state\n    bool public byteEndabled;\n\n    // Current supply\n    uint256 private supply;\n\n    // Mint price for Carbon Pass Holders\n    uint256 public priceForCarbon;\n    // Mint price for Gold Pass Holders\n    uint256 public priceForGold;\n    // Mint price for open sale\n    uint256 public priceForAll;\n\n    // Time of minting start for Gold(Unix Time)\n    uint256 public mintStart;\n    // Time of minting start for Carbon(Unix Time)\n    uint256 public mintCarbonEnd;\n    // Time of minting start for everyone(Unix Time)\n    uint256 public mintGoldEnd;\n    // Time of minting end for everyone(Unix Time)\n    uint256 public mintEnd;\n\n    // ESPORT price for first Tier upgrade\n    uint256 public esportPriceForUpgrade;\n\n    // BYTE price for first Tier upgrade\n    uint256 public bytePriceForUpgrade;\n\n    // The maximum amount that can be minted per tx\n    uint256 public maxAmountPerTx;\n\n    // The maximum supply. Can be enlarged by 1000\n    // when new districts are added, but can't go\n    // over 4000.\n    uint256 private maxSupply;\n\n    // Uri for metadata\n    string internal uri;\n\n    // The file time for metadata\n    string internal uriSuffix;\n\n    // Levels needed to upgrade form tier to tier\n    uint256 public levelsForUpgrade;\n\n    // The time a Arena has to be staked for it's Tier to be upgraded\n    uint256 private timeToLevelUp;\n\n    // Rewards of $ESPORT per hour per token deposited in wei\n    uint256 public rewardsPerHourEsport;\n\n    // Rewards of $BYTE per hour per token deposited in wei\n    uint256 public rewardsPerHourByte;\n\n    // Rewards multiplier per tier\n    uint256 public tierMultiplier;\n\n    // User arenas staked\n    mapping(address => uint256[]) userArenasStaked;\n\n    // Mapping of Token Id to staker. Made for the SC to remeber\n    // who to send back the ERC721 Token to.\n    mapping(uint256 => address) public stakerAddress;\n\n    // Arena info\n    struct Arena {\n        // Staked state\n        bool staked;\n        // Tier of the arena\n        uint256 tier;\n        // XP Level of the arena\n        uint256 level;\n        // Rarity of the Arena(0: Common, 1: Uncommon, 2: Rare, 3: Epic, 4: Legendary)\n        uint256 rarity;\n        // The time arena was staked at\n        uint256 timeOfStake;\n        // Last time of details update for this Arena\n        uint256 timeOfLastRewardUpdate;\n        // Calculated, but unclaimed rewards for the User. The rewards are\n        // calculated each time the user writes to the Smart Contract\n        uint256 unclaimedRewardsEsport;\n        uint256 unclaimedRewardsByte;\n    }\n\n    // Mapping of Arena Token ID to Arena info\n    mapping(uint256 => Arena) public arenas;\n\n    constructor() initializer {}\n\n    function initialize() public initializer {\n        __ERC721_init(\"MetaArenas\", \"MARE\");\n        __Ownable_init();\n        __ReentrancyGuard_init();\n        priceForCarbon = 10 * 10**18;\n        priceForGold = 15 * 10**18;\n        priceForAll = 20 * 10**18;\n        esportPriceForUpgrade = 100 * 10**18;\n        bytePriceForUpgrade = 200 * 10**18;\n        maxAmountPerTx = 3;\n        maxSupply = 1000;\n        uriSuffix = \".json\";\n        levelsForUpgrade = 10;\n        timeToLevelUp = 259200; //172800;\n        rewardsPerHourEsport = 100000;\n        rewardsPerHourByte = 50000;\n        tierMultiplier = 2;\n        supply = 1000;\n        paused = true;\n        // Mint Arenas 118, 188 and 216 to owner.(A mistake was made in the previous SC\n        // and we'll redistribute these Arenas back to the owners)\n        _safeMint(msg.sender, 118);\n        _safeMint(msg.sender, 188);\n        _safeMint(msg.sender, 216);\n    }\n\n    modifier onlyOwnerOrAdmin() {\n        require(msg.sender == owner() || msg.sender == admin);\n        _;\n    }\n\n    /////////////\n    // Minting //\n    /////////////\n\n    // Assures the mint per transaction amount and\n    // the max supply are respected\n    modifier mintCompliance(uint256 _amount) {\n        require(\n            _amount <= maxAmountPerTx,\n            \"Maximum mint per transaction exceeded!\"\n        );\n        require(supply + _amount <= maxSupply, \"Max supply exceeded!\");\n        require(!paused, \"Minting is paused!\");\n        _;\n    }\n\n    // Function for Arena NFT migration from the old collection\n    function migrateArena(uint256 _tokenId) external {\n        oldArenas.burn(_tokenId);\n        _safeMint(msg.sender, _tokenId + 1);\n    }\n\n    // Mint function\n    // Need to approve ESPORT token transfer before calling\n    function mint(uint256 _amount) external payable mintCompliance(_amount) {\n        if (block.timestamp >= mintStart && block.timestamp <= mintCarbonEnd) {\n            require(\n                passes.balanceOf(msg.sender, 0) > 0,\n                \"You don't own Carbon MetaPass\"\n            );\n            esportToken.transferFrom(\n                msg.sender,\n                address(this),\n                priceForCarbon * _amount\n            );\n        } else if (block.timestamp <= mintGoldEnd) {\n            require(\n                passes.balanceOf(msg.sender, 1) > 0 ||\n                    passes.balanceOf(msg.sender, 0) > 0,\n                \"You don't own Carbon or Gold MetaPass\"\n            );\n            esportToken.transferFrom(\n                msg.sender,\n                address(this),\n                priceForGold * _amount\n            );\n        } else if (block.timestamp <= mintEnd) {\n            esportToken.transferFrom(\n                msg.sender,\n                address(this),\n                priceForAll * _amount\n            );\n        } else {\n            revert(\"Minting not live\");\n        }\n        _mintLoop(msg.sender, _amount);\n    }\n\n    // Free mint function for Owner of the Smart Contract, used for Giveaways\n    function mintForAddress(uint256 _mintAmount, address _receiver)\n        public\n        mintCompliance(_mintAmount)\n        onlyOwner\n    {\n        _mintLoop(_receiver, _mintAmount);\n    }\n\n    /////////////\n    // Staking //\n    /////////////\n\n    // Function to stake arena\n    function stakeArena(uint256 _arenaTokenId) external nonReentrant {\n        require(\n            msg.sender == ownerOf(_arenaTokenId),\n            \"Can't stake a arena you don't own!\"\n        );\n        Arena memory _arena = arenas[_arenaTokenId];\n        require(!_arena.staked, \"Arena already staked!\");\n        _arena.timeOfStake = block.timestamp;\n        _arena.staked = true;\n        _arena.timeOfLastRewardUpdate = block.timestamp;\n        arenas[_arenaTokenId] = _arena;\n        userArenasStaked[msg.sender].push(_arenaTokenId);\n    }\n\n    // Function to unstake arena\n    function unstakeArena(uint256 _arenaTokenId) external nonReentrant {\n        require(\n            msg.sender == ownerOf(_arenaTokenId),\n            \"You are not the owner of this Arena!\"\n        );\n        Arena memory _arena = arenas[_arenaTokenId];\n        require(_arena.staked, \"Arena is not staked!\");\n        uint256 esportRewards = calculateRewardsEsport(_arenaTokenId);\n        _arena.unclaimedRewardsEsport += esportRewards;\n        uint256 byteRewards = calculateRewardsByte(_arenaTokenId);\n        _arena.unclaimedRewardsByte += byteRewards;\n        _arena.staked = false;\n        _arena.level = calculateArenaLevel(_arenaTokenId);\n        _arena.timeOfStake = 0;\n        _arena.timeOfLastRewardUpdate = block.timestamp;\n        arenas[_arenaTokenId] = _arena;\n        uint256[] memory _userArenasStaked = userArenasStaked[msg.sender];\n        for (uint256 i; i < _userArenasStaked.length; ++i) {\n            if (_userArenasStaked[i] == _arenaTokenId) {\n                _userArenasStaked[i] = _userArenasStaked[\n                    _userArenasStaked.length - 1\n                ];\n            }\n        }\n        userArenasStaked[msg.sender] = _userArenasStaked;\n        userArenasStaked[msg.sender].pop();\n    }\n\n    // Calculate rewards for the msg.sender, check if there are any rewards\n    // claim, set unclaimedRewards to 0 and transfer the ERC20 Reward token\n    // to the user.\n    function claimRewards(uint256 _arenaTokenId) external nonReentrant {\n        require(\n            msg.sender == ownerOf(_arenaTokenId),\n            \"You don't own this arena!\"\n        );\n        uint256 esportRewards = calculateRewardsEsport(_arenaTokenId) +\n            arenas[_arenaTokenId].unclaimedRewardsEsport;\n        require(esportRewards > 0, \"You have no rewards to claim\");\n        if (byteEndabled) {\n            uint256 byteRewards = calculateRewardsByte(_arenaTokenId) +\n                arenas[_arenaTokenId].unclaimedRewardsByte;\n            require(byteRewards > 0, \"You have no rewards to claim\");\n            arenas[_arenaTokenId].unclaimedRewardsByte = 0;\n            byteToken.transfer(msg.sender, byteRewards);\n        }\n        arenas[_arenaTokenId].timeOfLastRewardUpdate = block.timestamp;\n        arenas[_arenaTokenId].unclaimedRewardsEsport = 0;\n        esportToken.transfer(msg.sender, esportRewards);\n    }\n\n    ////////////////////\n    // Level and Tier //\n    ////////////////////\n\n    // Function called by level booster to increse arena level\n    function increaseLevel(uint256 _arenaTokenId, uint256 _levelsToIncrease)\n        external\n    {\n        require(\n            msg.sender == levelBooster,\n            \"You are not authorised to call this function!\"\n        );\n        arenas[_arenaTokenId].level += _levelsToIncrease;\n    }\n\n    // Upgrade the tier of your arena when you have the necesary level\n    function upgradeArenaTier(uint256 _arenaTokenId) external nonReentrant {\n        require(\n            ownerOf(_arenaTokenId) == msg.sender,\n            \"Can't upgrade tier for tokens you don't own!\"\n        );\n        Arena memory _arena = arenas[_arenaTokenId];\n        uint256 _level = calculateArenaLevel(_arenaTokenId);\n        require(\n            _level >= (_arena.tier + 1) * levelsForUpgrade,\n            \"Not high enough level to upgrade\"\n        );\n        esportToken.transferFrom(\n            msg.sender,\n            address(this),\n            esportPriceForUpgrade * _arena.tier\n        );\n        _arena.unclaimedRewardsEsport += calculateRewardsEsport(_arenaTokenId);\n        if (byteEndabled) {\n            byteToken.transferFrom(\n                msg.sender,\n                address(this),\n                bytePriceForUpgrade * _arena.tier\n            );\n            _arena.unclaimedRewardsByte += calculateRewardsByte(_arenaTokenId);\n        }\n        _arena.timeOfLastRewardUpdate = block.timestamp;\n        _arena.tier += 1;\n        arenas[_arenaTokenId] = _arena;\n    }\n\n    ///////////\n    // Admin //\n    ///////////\n\n    // Set the address for other SC in the ecosystem\n    function setInterfaces(\n        IArenas _oldArenas,\n        IERC1155 _passes,\n        IERC20 _esportToken\n    ) external onlyOwnerOrAdmin {\n        oldArenas = _oldArenas;\n        passes = _passes;\n        esportToken = _esportToken;\n    }\n\n    // Set paused state for minting\n    function setPaused(bool _paused) external onlyOwnerOrAdmin {\n        paused = _paused;\n    }\n\n    // Set the Byte Token Smart Contract\n    function setByteToken(IERC20 _address) external onlyOwnerOrAdmin {\n        byteToken = _address;\n    }\n\n    // Set if byte enabled in the system\n    function setByteEnabled(bool _bool) external onlyOwnerOrAdmin {\n        byteEndabled = _bool;\n    }\n\n    // Set the prices for Arena Upgrade\n    function setPriceForUpgrade(\n        uint256 _priceForUpgradeEsport,\n        uint256 _priceForUpgradeByte\n    ) external onlyOwnerOrAdmin {\n        esportPriceForUpgrade = _priceForUpgradeEsport;\n        bytePriceForUpgrade = _priceForUpgradeByte;\n    }\n\n    // Set rewards (everyone needs to claim rewards or unstake their arena\n    // before the rewards per hour is set or they might lose some of their\n    // accumulated rewards)\n    function setRewardsPerHour(\n        uint256 _rewardsPerHourEsport,\n        uint256 _rewardsPerHourByte\n    ) external onlyOwner {\n        rewardsPerHourEsport = _rewardsPerHourEsport;\n        rewardsPerHourByte = _rewardsPerHourByte;\n    }\n\n    // Set the mint cost of one NFT\n    function setPrice(\n        uint256 _carbon,\n        uint256 _gold,\n        uint256 _all\n    ) public onlyOwnerOrAdmin {\n        priceForCarbon = _carbon;\n        priceForGold = _gold;\n        priceForAll = _all;\n    }\n\n    // Set the maximum mint amount per transaction\n    function setMaxMintAmountPerTx(uint256 _maxMintAmountPerTx)\n        public\n        onlyOwnerOrAdmin\n    {\n        maxAmountPerTx = _maxMintAmountPerTx;\n    }\n\n    // The URI of IPFS/hosting server for the metadata folder.\n    // Used in the format: \"ipfs://your_uri/\".\n    function setUri(string memory _uri) public onlyOwnerOrAdmin {\n        uri = _uri;\n    }\n\n    function setLevelBooster(address _levelBooster) external onlyOwnerOrAdmin {\n        levelBooster = _levelBooster;\n    }\n\n    // Set a address for the admin function\n    function setAdmin(address _admin) external onlyOwner {\n        admin = _admin;\n    }\n\n    // Set the minting period for next districts\n    function setMintingPeriods(\n        uint256 _mintStart,\n        uint256 _mintCarbonEnd,\n        uint256 _mintGoldEnd,\n        uint256 _mintEnd\n    ) external onlyOwnerOrAdmin {\n        mintStart = _mintStart;\n        mintCarbonEnd = _mintCarbonEnd;\n        mintGoldEnd = _mintGoldEnd;\n        mintEnd = _mintEnd;\n    }\n\n    function addDistrict() external onlyOwnerOrAdmin {\n        require(maxSupply <= 4000);\n        maxSupply += 1000;\n    }\n\n    // Add onchain metadata for Arena Rarity\n    function addRarity(uint256[] memory _tokenIds, uint256[] memory _rarity)\n        external\n        onlyOwnerOrAdmin\n    {\n        require(_tokenIds.length == _rarity.length);\n        for (uint256 i; i < _tokenIds.length; ++i) {\n            require(_rarity[i] < 5);\n            arenas[_tokenIds[i]].rarity = _rarity[i];\n        }\n    }\n\n    // Withdraw ETH after sale\n    function withdraw(uint256 _amountEsport, uint256 _amountByte)\n        public\n        onlyOwner\n    {\n        uint256 _balanceEsport = esportToken.balanceOf(address(this));\n        require(_amountEsport <= _balanceEsport);\n        esportToken.transfer(msg.sender, _amountEsport);\n        if (byteEndabled) {\n            uint256 _balanceByte = byteToken.balanceOf(address(this));\n            require(_amountByte <= _balanceByte);\n            byteToken.transfer(msg.sender, _amountByte);\n        }\n    }\n\n    //////////\n    // View //\n    //////////\n\n    //Returns Token Ids of Staked Arenas of arg _user\n    function userStakedArenas(address _user)\n        public\n        view\n        returns (uint256[] memory)\n    {\n        return userArenasStaked[_user];\n    }\n\n    // Returns rewards available to claim for Arena\n    function availableRewards(uint256 _arenaTokenId)\n        public\n        view\n        returns (uint256, uint256)\n    {\n        uint256 _rewardsEsport = arenas[_arenaTokenId].unclaimedRewardsEsport +\n            calculateRewardsEsport(_arenaTokenId);\n        uint256 _rewardsByte;\n        if (byteEndabled) {\n            _rewardsByte =\n                arenas[_arenaTokenId].unclaimedRewardsByte +\n                calculateRewardsByte(_arenaTokenId);\n        } else {\n            _rewardsByte = 0;\n        }\n        return (_rewardsEsport, _rewardsByte);\n    }\n\n    // Returns arena detalis for Arena Token ID passed as arg\n    function arenaDetails(uint256 _arenaTokenId)\n        public\n        view\n        returns (\n            uint256 arenaTier_,\n            uint256 arenaLevel_,\n            uint256 timeToWaitForLevelUp_,\n            bool staked_,\n            bool canUpgrade_\n        )\n    {\n        uint256 _arenaTier = arenas[_arenaTokenId].tier;\n        bool _canUpgrade = arenas[_arenaTokenId].level >=\n            (arenas[_arenaTokenId].tier + 1) * levelsForUpgrade;\n        uint256 _arenaLevel = calculateArenaLevel(_arenaTokenId);\n        uint256 _timeToWaitForLevelUp;\n        if (arenas[_arenaTokenId].staked) {\n            _timeToWaitForLevelUp =\n                (timeToLevelUp * (_arenaLevel + 1)) -\n                (block.timestamp - arenas[_arenaTokenId].timeOfStake);\n        } else {\n            _timeToWaitForLevelUp = timeToLevelUp;\n        }\n        return (\n            _arenaTier,\n            _arenaLevel,\n            _timeToWaitForLevelUp,\n            arenas[_arenaTokenId].staked,\n            _canUpgrade\n        );\n    }\n\n    // Returns the Token Id for Tokens owned by the specified address\n    function tokensOfOwner(address _owner)\n        public\n        view\n        returns (uint256[] memory)\n    {\n        uint256 ownerTokenCount = balanceOf(_owner);\n        uint256[] memory ownedTokenIds = new uint256[](ownerTokenCount);\n        for (uint256 i; i < ownerTokenCount; ++i) {\n            ownedTokenIds[i] = tokenOfOwnerByIndex(_owner, i);\n        }\n        return ownedTokenIds;\n    }\n\n    // Returns the Token URI with Metadata for specified Token Id\n    function tokenURI(uint256 _tokenId)\n        public\n        view\n        virtual\n        override\n        returns (string memory)\n    {\n        require(\n            _exists(_tokenId),\n            \"ERC721Metadata: URI query for nonexistent token\"\n        );\n        string memory currentBaseURI = _baseURI();\n        return\n            bytes(currentBaseURI).length > 0\n                ? string(\n                    abi.encodePacked(\n                        currentBaseURI,\n                        _tokenId.toString(),\n                        uriSuffix\n                    )\n                )\n                : \"\";\n    }\n\n    /////////////\n    // Internal//\n    /////////////\n\n    // Helper function\n    function _baseURI() internal view virtual override returns (string memory) {\n        return uri;\n    }\n\n    // Loop for minting multiple NFTs in one transaction\n    function _mintLoop(address _receiver, uint256 _mintAmount) internal {\n        for (uint256 i = 0; i < _mintAmount; i++) {\n            supply++;\n            _safeMint(_receiver, supply);\n        }\n    }\n\n    // Calculate rewards for param _staker by calculating the time passed\n    // since last update in hours and mulitplying it to ERC721 Tokens Staked\n    // and rewardsPerHour.\n    function calculateRewardsEsport(uint256 _arenaTokenId)\n        internal\n        view\n        returns (uint256 _rewards)\n    {\n        if (arenas[_arenaTokenId].staked) {\n            return ((((block.timestamp -\n                arenas[_arenaTokenId].timeOfLastRewardUpdate) *\n                rewardsPerHourEsport) *\n                (arenas[_arenaTokenId].tier + tierMultiplier)) / 3600);\n        } else {\n            return 0;\n        }\n    }\n\n    function calculateRewardsByte(uint256 _arenaTokenId)\n        internal\n        view\n        returns (uint256 _rewards)\n    {\n        if (arenas[_arenaTokenId].staked) {\n            return ((((block.timestamp -\n                arenas[_arenaTokenId].timeOfLastRewardUpdate) *\n                rewardsPerHourByte) *\n                (arenas[_arenaTokenId].tier + tierMultiplier)) / 3600);\n        } else {\n            return 0;\n        }\n    }\n\n    // Returns arena level for arg Arena Token ID\n    function calculateArenaLevel(uint256 _arenaTokenId)\n        internal\n        view\n        returns (uint256)\n    {\n        if (arenas[_arenaTokenId].timeOfStake == 0) {\n            return (arenas[_arenaTokenId].level);\n        } else {\n            return\n                ((block.timestamp - arenas[_arenaTokenId].timeOfStake) /\n                    timeToLevelUp) + arenas[_arenaTokenId].level;\n        }\n    }\n\n    // Just because you never know\n    receive() external payable {}\n\n    // The following functions are overrides required by Solidity.\n\n    function _beforeTokenTransfer(\n        address from,\n        address to,\n        uint256 tokenId\n    ) internal override(ERC721Upgradeable, ERC721EnumerableUpgradeable) {\n        require(!arenas[tokenId].staked, \"You can't transfer staked arenas!\");\n        arenas[tokenId].level = 0;\n        super._beforeTokenTransfer(from, to, tokenId);\n    }\n\n    function supportsInterface(bytes4 interfaceId)\n        public\n        view\n        override(ERC721Upgradeable, ERC721EnumerableUpgradeable)\n        returns (bool)\n    {\n        return super.supportsInterface(interfaceId);\n    }\n}\n",
  "sourcePath": "contracts/MetaArenas.sol",
  "type": "contract"
}